:100000000C9470020C948D020C948D020C948D0251
:100010000C948D020C948D020C948D020C948D0224
:100020000C948D020C948D020C9414260C94E826EA
:100030000C94A8200C948D020C948D020C948D02CB
:100040000C948D020C948D020C948D020C948D02F4
:100050000C948D020C942F210C948D020C948D0223
:100060000C948D020C948D020C948D020C948D02D4
:100070000C948D020C948D020C948D020C948D02C4
:100080000C948D020C948D020C948D020C948D02B4
:100090000C948D020C948D020C948D020C948D02A4
:1000A0000C948D020C948D020C948D025F00600004
:1000B00061002A000400A9005C005D005E002900C8
:1000C0000400AA0059005A005B002B000400A9009C
:1000D000C1526200630028000400AA000100010070
:1000E000010001000100A900010001000100010060
:1000F0000100AA0001000100010001000100A900A7
:1001000001000100010001000100AA00010001003E
:10011000010001000100A90001000100010001002F
:100120000100AA0001000100010001000100A90076
:1001300001000100010001000100AA00010001000E
:10014000010001000100A9000100010001000100FF
:100150000100AA0001000100010001000100A90046
:1001600001000100010001000100AA0000010101DD
:100170000101010101010202020202020202020364
:100180000303030303030304040404040404050534
:1001900005050506060606060707070707080808F7
:1001A00008090909090A0A0A0B0B0B0C0C0C0D0DA6
:1001B0000D0E0E0E0F0F0F1010111111121213133E
:1001C0001414151516161717181819191A1A1B1BB7
:1001D0001C1D1D1E1E1F2020212222232424252613
:1001E00026272829292A2B2C2D2D2E2F303132324B
:1001F000333435363738393A3B3C3D3E3F40414257
:10020000434445464748494A4C4D4E4F505153543C
:10021000555658595A5B5D5E5F61626465666869F0
:100220006B6C6D6F7072737577787A7B7D7E808270
:10023000838587888A8C8E8F91939596989A9C9EB9
:10024000A0A2A3A5A7A9ABADAFB1B3B5B7BABCBEC9
:10025000C0C2C4C6C9CBCDCFD1D4D6D8DBDDDFE296
:10026000E4E7E9EBEEF0F3F5F8FAFDFF000000003B
:10027000000000002A2B2800000000000000000001
:100280000000000000000029000000002C1E3420A7
:10029000212224342627252E362D3738271E1F20CD
:1002A0002122232425263333362E37381F04050612
:1002B0000708090A0B0C0D0E0F1011121314151656
:1002C0001718191A1B1C1D2F3130232D3504050654
:1002D0000708090A0B0C0D0E0F1011121314151636
:1002E0001718191A1B1C1D2F3130354C0000000047
:1002F00000000000000000000000000000000000FE
:1003000000000000000000000000000000000000ED
:100310007E0F00D4FFFFFFC7000000780E037A00B5
:1003200065006F0070006100640000002803700029
:100330006F0073006900740072006F006E005F0050
:1003400065006C0065006300740072006F006E0051
:100350006900630000000403090409025B00030153
:1003600000A0FA09040000010301010009211101A4
:100370000001224000070581030800010904010073
:1003800002030000000921110100012222000705DB
:100390008203200001070503032000010904020075
:1003A000010300000009211101000122B600070528
:1003B0008403200001120100020000000855F034FF
:1003C000350001010200010660FF0961A101096217
:1003D000150026FF00952075088102096315002687
:1003E000FF00952075089102C005010902A1018551
:1003F000020901A100050919012908150025019527
:1004000008750181020501093009311581257F95A3
:10041000027508810609381581257F9501750881C7
:1004200006050C0A38021581257F9501750881069D
:10043000C0C005010980A101850319012AB7001573
:100440000126B700950175108100C0050C0901A1B6
:1004500001850419012AA002150126A00295017543
:10046000108100C005010906A1018506050719E0F4
:1004700029E7150025019508750181020507190076
:1004800029EF1500250195F0750181020508190174
:100490002905950575019102950175039101C00526
:1004A000010906A101050719E029E71500250195B5
:1004B0000875018102950175088101050719002958
:1004C000FF150026FF009506750881000508190133
:1004D0002905950575019102950175039101C000EB
:1004E00011241FBECFEFDAE0DEBFCDBF11E0A0E0E8
:1004F000B1E0E4E8F3E502C005900D92AC3BB10732
:10050000D9F722E0ACEBB1E001C01D92AB3CB207E1
:10051000E1F70E94F6110C9459290C9400005598AB
:100520005D98209828980E94B1100895A5E0B0E049
:10053000ECE9F2E00C94D0288EEBE82E81E0F82E66
:1005400010E000E0F70181917F018823C9F08695D2
:10055000F801F9F0E85EFE4F808191819A838983EA
:100560001B820E9408218160782F9D838C83F70174
:100570003197108249815A816B818D810E94980444
:100580000E5F1F4F04301105E9F62596E6E00C9446
:10059000EC28E45EFE4FE0CFA5E0B0E0E2EDF2E053
:1005A0000C94D028162FE82EF12CC701880F991F24
:1005B000662301F1885E9E4FFC01808191819A83C0
:1005C000898301E00B830E9408218160782F9D833D
:1005D0008C83F701E254FE4F0127110F102B10837B
:1005E00049815A816B818D810E9498042596E6E0AD
:1005F0000C94EC28845E9E4FDFCF0E9496020895F3
:100600000E94CC0280E00895CF93C82F0E94450439
:10061000813051F08823A1F0823071F0833081F471
:1006200044E16FEF84E603C044E16FEF84EB0E9486
:10063000D1168C2FCF91089544E16FEF83E2F7CF6D
:1006400044E16FEF8FEF0E94CD16F3CF84E0089561
:100650008430B8F46430A8F4463098F450E096E062
:10066000699F400D511D1124FA0198E1899FE00D09
:10067000F11D1124EE0FFF1FE455FF4F859194915A
:10068000089580E090E0089581E0089581E0089564
:100690000E944603089508950E944B030895A5E023
:1006A000B0E0E5E5F3E00C94D32849835A83309118
:1006B000C50189819A81311119C0662399F02223DD
:1006C00089F00E941209182F682F89819A810E944F
:1006D000EE0869817A81812F0E94840F2596E3E0DC
:1006E0000C94EF280E940009182FF3CF0E941209E2
:1006F00069817A81F1CFFC01262F4081518162818D
:10070000738184810E944F03089581E00895CF93FF
:10071000DF93EC0160E00E947B03BE010E944C036A
:10072000DF91CF910895E1E0F0E0DF0102C0AA0F70
:10073000BB1F6A95E2F7BD01DF0102C0AA0FBB1F14
:100740004A95E2F76A2B01C0EE0F2A95EAF7962F39
:100750009823961302C08E2B0895E0958E2308955A
:10076000242F462F682F8091CF010E9493030E946F
:10077000500808950E948F0208950E94B2100895B3
:1007800008950E94E7070E94C0032FEF84E39CE0D6
:10079000215080409040E1F700C0000008950E9481
:1007A000C1030E94532108950E94C1030E94642145
:1007B00008950F931F93CF93DF938C0161E00E9404
:1007C0007B03EC01B8010E945A18811106C080E039
:1007D000DF91CF911F910F910895B801CE010E9432
:1007E00048038823A1F3B801CE010E94CA1E8823C2
:1007F00071F3B801CE010E94E919882341F3B801D1
:10080000CE010E943C1E882311F3B801CE010E9444
:100810006F178823E1F2F8018281882361F0C330E9
:10082000FCE7DF07E9F058F4C115ECE7DE07A9F0B3
:10083000C130DC47B9F0C8010E944403C9CFCB35B1
:100840008CE7D807A9F0CC35ECE7DE0771F0CA35A4
:10085000DC4789F70E940F0DEECF0E94CF03B7CF80
:100860000E94170D0E94D403B2CF0E94050DE3CF62
:100870000E94130DE0CF0E9485200E947604089507
:100880000E947A040E948A200895982F92959F7062
:1008900011F0892F94E0282F2695269511F09E5F60
:1008A000822F869509F09F5F892F089508950E94F1
:1008B0005604089581E008950895CF93DF93D82FCB
:1008C0000E945A04C82F882319F08D2F0E945C04BF
:1008D0008C2FDF91CF9108950895CF93C82F0E9458
:1008E00057048C2F0E945D04CF91089580E00E94F0
:1008F0006D0408950E94181F0E946D040895CF93FF
:100900000E94181FC82F8091C0018C1779F0C093E6
:10091000C0010E9414216093C1017093C2018093B1
:10092000C3019093C4018C2F0E946D04CF91089550
:10093000ABE0B0E0EEE9F4E00C94D4284F835887A4
:1009400069877A878B8761110E94500C1E821D82F5
:1009500085E0FE013796DE01119601900D928A9591
:10096000E1F78C819D81892B61F449815A816B81EA
:100970007C818D819E810E94790B2B96E2E00C9404
:10098000F02889819A8189238F3F79F3CE010196DE
:100990000E9485038111E9CFF0CFFC018081918114
:1009A0000E943F090895662329F00E947A120E944E
:1009B0004D1308950E94D412FACFCF93C82F8823E5
:1009C000B9F08CEF8C0F813AA8F46C2F8091000164
:1009D000909101010E94AB1F882329F08C2F0E9467
:1009E000100C0E94710C8C2F0E94080C0E94710C3C
:1009F000CF91089580E28C0F883048F4C77081E071
:100A000001C0880FCA95EAF70E94330CEFCFEBE5DF
:100A1000EC0FE33040F4F0E0EE5AFE4F808190E0BE
:100A20000E944D1FE5CFE8E5EC0FE93150F4F0E00E
:100A3000EE0FFF1FE05EFE4F808191810E94721FCA
:100A4000D7CF83E38C0F833198F661E08C2F0E941F
:100A5000D304CECF882381F19CEF980F913A28F4EC
:100A60000E94100C0E94710C089590E2980F98302B
:100A700050F4877091E001C0990F8A95EAF7892FA9
:100A80000E94390CEFCF9BE5980F933028F490E04B
:100A900080E00E944D1F089598E5980F993128F441
:100AA00090E080E00E94721F089593E3980F9331C5
:100AB00018F460E00E94D30408951F93CF93DF934E
:100AC000182FEB010E94DD04209739F4812F0E943A
:100AD0002A05DF91CF911F9108958FE99FE001973B
:100AE000F1F700C000002197EFCF6AE070E0893392
:100AF00011F460E570E00E945D050895882321F0FF
:100B00000E94330C0E94710C0895882321F00E94EA
:100B1000390C0E94710C0895B0E0A0E0E2E9F5E024
:100B20000C94CD286C01D62FC72FFC011281F580C3
:100B3000F2949FE0F9220E94290CE82E8823B9F054
:100B4000E12E1123A1F08C2F807F803421F080E2F0
:100B50008D0F8830D0F08091A90282FF16C082E00C
:100B60000E94D40C0E94290C91E0E82EE926BC2EAC
:100B7000B2948FE0B822FBE0FB1508F468C0EB2DBF
:100B8000F0E0E55AF64D0C94B728E12CF0CF0C2F8D
:100B90000F70C07F11F00295007F112399F00023A0
:100BA00059F080E28D0F883010F0D11107C0802FEE
:100BB0000E94330C0E94710C8D2F41C0802F0E9427
:100BC000430CF8CF8D2F0E942A05002309F43FC063
:100BD00080E28D0F883010F0D11104C0802F0E9468
:100BE000390C03C0802F0E94490C0E94710C2FC049
:100BF0000C2F0F70C07FC03211F00295007FDD23F3
:100C000081F0D13009F46AC0112309F474C0FF20C7
:100C100009F46AC0F601858180FFCECF8F7085838D
:100C200063C08091A90282FD34C0112359F00023D2
:100C300029F0802F0E94330C0E94710C80E00E94EA
:100C4000DD0405C080E00E942A050111C7CF2B2DCD
:100C50002850330B2430310520F40E94181F0E94C5
:100C60006D04EE2089F00E94250C80FD0DC0F60178
:100C700012820E941F0C0E946208C6010E94A707F0
:100C80000E941F0C0E946E08CDB7DEB7E9E00C94FD
:100C9000E928112389F0F11006C00E94530C802B23
:100CA0000E947E05D4CF21E0F212F7CF0E94530CB0
:100CB000802B0E945A0CCBCFF11006C00E94670C0B
:100CC000802F0E948505C3CF31E0F31609F4BFCF12
:100CD000802F0E9485050E94670CB9CF112331F047
:100CE00085E08F1508F4B3CF802FDACF94E09F15FD
:100CF00008F4ADCFE5CFFF2019F3D93369F4FFEF46
:100D000027EE33E0F15020403040E1F700C0000012
:100D10008D2F0E942A059BCF8FE39CE90197F1F765
:100D2000F5CF8C2F86958695837069F0813009F018
:100D30008ECF8D2F9C2F9370111102C080E090E018
:100D40000E94721F84CF8D2F9C2F9370111102C0AF
:100D500080E090E00E944D1F7ACF612F8D2F0E947E
:100D6000D30475CF8C2F837079F5111170CF4D2F6F
:100D7000429546954770440F440F8D2F8F70042E77
:100D800001C0880F0A94EAF72D2F2071D4FF07C005
:100D90002FE030E001C0220F4A95EAF72095C69572
:100DA000C695C370822BC23049F058F4C13019F097
:100DB0000E9441084CCF0E943B0849CF0E9447083F
:100DC00046CF0E94380843CF8695112311F08C2F0F
:100DD0008170882309F43BCF4D2F4295469547708B
:100DE000440F440F8D2F8F70042E01C0880F0A947A
:100DF000EAF72D2F2071D4FF07C02FE030E001C0AB
:100E0000220F4A95EAF72095C695C695C370822BA6
:100E1000C23049F058F4C13019F00E948D0817CF44
:100E20000E94870814CF0E94930811CF0E94500897
:100E30000ECFCF70112329F08C2F0E9462088D2FC6
:100E40002FCF8D2F0E9485058C2F0E946E08FFCE1C
:100E5000D23F51F160F4D03FB9F0D13F81F011237E
:100E600009F449C0F110A8CE8C2F8F7121C0D33F57
:100E700011F1D43FA1F78091A90282FD26C08C2FE9
:100E80008F71112311F314C0112349F094E09F15C1
:100E900008F4DDCE8C2F8F710E947B08D8CEE5E060
:100EA000EF1508F4D4CEF6CF8C2F8F711111CDCF62
:100EB0000E946208CCCE112329F08C2F8F710E94E2
:100EC0005908C5CE0E945508C2CE112349F0CF71F2
:100ED0008C2F0E94620863E08C2F0E94B60CB7CE64
:100EE00081E00E94D40CF1E0FF1508F0B0CE82E062
:100EF0000E94D40CACCEFF2079F0D93341F42FEF0F
:100F000037EE83E0215030408040E1F7FFCEEFE341
:100F1000FCE93197F1F7FACE8C2F8F7196CF0F93B2
:100F20001F93CF93DF93EC01688179818A810E94BE
:100F30004A098C010E9499080E943708B801CE0125
:100F40000E948C05DF91CF911F910F910895CF934F
:100F5000DF93EC018B819C81892B29F08881998119
:100F600089238F3F51F4DF91CF910895CE010E94E4
:100F70008F07CE010E948703F6CFCE010E94D903CE
:100F80008111F4CF0E94290C882369F38A81882378
:100F900051F38091A90282FFE6CF82E00E94D40C37
:100FA000E2CF90E080E00E944D1F90E080E00E9440
:100FB000721F0E94500C0E94710C0E9469130E94C3
:100FC0004D1308950E94180C0E94D10708950E94A5
:100FD000400C0E94E207089592959F70963091F020
:100FE00058F4925F9F70923058F4803F19F030F4BB
:100FF000883E30F481E008959A5FF4CF843FD1F3C6
:1010000080E00895883EB0F3813FD1F7F3CFFC0133
:1010100083819481892B29F08081918189238F3F5D
:1010200011F480E00895808191810E943F090E941F
:10103000EC070895A5E0B0E0E0E2F8E00C94D428D5
:101040002596E2E00C94F028A6E0B0E0EAE2F8E0B1
:101050000C94D4282696E2E00C94F02808950E947F
:101060002E0808950E942F088093D00108950895B6
:101070000E94320808959091D001892B0E94320875
:1010800008959091D00189230E943208089590918B
:10109000D00189270E94320808950E940403089510
:1010A0000E944D088093CF01089580E00E9450086F
:1010B000089591E001C0990F8A95EAF7892F0E945F
:1010C0005008089521E030E001C0220F8A95EAF728
:1010D0008091CF01822B0E945008089521E030E0DA
:1010E00001C0220F8A95EAF720958091CF018223D3
:1010F0000E945008089521E030E001C0220F8A9537
:10110000EAF78091CF0182270E94500808959091BC
:10111000CF01892B0E94500808959091CF01892317
:101120000E94500808959091CF0189270E9450088D
:1011300008950895262F277091E001C0990F2A95F0
:10114000EAF723E0769567952A95E1F7FB01EE0F24
:10115000FF1FE60FF71FE40FF51F50E040E0682F78
:1011600070E08191DF0111979B01042E02C036953A
:1011700027950A94E2F7217021952827292328270B
:101180002C934F5F5F4F4330510559F70895A82FB7
:10119000A77023E0969587952A95E1F7FC01EE0F5D
:1011A000FF1FE80FF91FE60FF71F50E040E080E057
:1011B000219130E00A2E02C0369527950A94E2F775
:1011C00021703327042E01C0220F0A94EAF7822BE4
:1011D0004F5F5F4F4330510559F70895262F9430E4
:1011E00070F4863060F4682F70E086E0989F600DA0
:1011F000711D112446EC51E0822F0E949A08089537
:10120000292F943068F4863058F490E066EC71E051
:1012100036E0239F800D911D11240E94C708089578
:1012200080E00895CF92DF92FF920F931F93CF93A8
:10123000DF936C010091CF018091D001082BC7E0B2
:10124000D0E010E0FC2EC8010C2E02C095958795C9
:101250000A94E2F780FD0CC02197A0F7F12C8F2DA6
:10126000DF91CF911F910F91FF90DF90CF90089564
:10127000B6018C2F0E94900F019771F3F0CFCF939E
:10128000DF93EC010E941209BE010E94900FDF91D2
:10129000CF9108951F93CF93DF93EB019091C501F8
:1012A000992339F0CB010E943F09DF91CF911F9123
:1012B0000895882369F0CB010E941209182F682F26
:1012C000CE010E94EE08BE01812F0E94900FEDCF4B
:1012D000CB010E940009182FF6CF1F93CF93DF9305
:1012E000C091D10116E08091D2018C1304C0DF912E
:1012F000CF911F910895D0E01C9FF0011D9FF00D2C
:101300001124ED52FE4F40815181628173818481AD
:1013100095810E9424082196C770E5CF4091030271
:1013200050910402609105027091060280910702BB
:10133000909108020E94240808951F93CF93DF9391
:1013400080910802807F09F049C0809105028823BE
:1013500009F444C08091D101C091D201609103028F
:1013600070910402A0910602B0910702D62FD723F4
:1013700016E0C81799F190E0109711F0DF3F19F4CB
:1013800001968770F6CF189F9001199F300D112498
:10139000F901ED52FE4F41814713F2CF40814613D0
:1013A000EFCF42814111ECCF438154814A1B5B0B4B
:1013B000483C510528F7809108028F708061809326
:1013C0000802F901E852FE4F80818F7080618083AE
:1013D00083E092E00E94A7070E946D09DF91CF9100
:1013E0001F910895A1E1B0E0E8EFF9E00C94CC285A
:1013F0008C0185E0F801DE011D9601900D928A9521
:10140000E1F7F801E28083E0C82E82E0D82E6091F7
:101410000602709107026115710509F44EC19091A1
:10142000030220910402892F82238F3F09F445C1D2
:1014300040815181A380B480F0900502F501E61B44
:10144000F70BFF2009F4EAC080910802382F307FA3
:10145000E83CF10508F0A3C031116DC0FE2C251346
:1014600016C0941314C0E11012C08F708061809375
:1014700008020E948E09C6010E94A70780910802F7
:10148000F80185838F2D6196EAE00C94E828A11479
:10149000B10429F0842F85238F3F09F027C180E014
:1014A000F82FF170DF2E80FF3CC08091D101209198
:1014B000D20136E0821315C04D875E878D859E85EB
:1014C0000E943F09292F22952F702230F0F02430FE
:1014D00018F59F70F1F0F8019581907FD1F4D12C2F
:1014E0001EC090E0389FF001399FF00D1124ED529D
:1014F000FE4F6181651306C06081641303C0628181
:10150000E6120FC001968770D5CF9F7011F0882327
:1015100031F3805E883018F3C8010E94A707FD2CC4
:10152000B1CFEE2009F4AECF8091080281608093A4
:101530000802F12CA7CF251306C0941304C0F801AC
:10154000EE2009F487C0C8010E940708882319F11A
:10155000EE2009F180910802803270F020910302A0
:101560003091040238872F831986BB86AA868C8720
:10157000CE0107960E94A70786E0F801A3E0B2E03B
:1015800001900D928A95E1F70E949D090E948E09B3
:10159000FF24F39477CFC8010E94A707F9CF311138
:1015A00013C07A2DB98AA88A6E2D89890E941A08DB
:1015B00083E092E00E94A70786E0F60111928A95E7
:1015C000E9F70E948E09B5CF25130FC094130DC003
:1015D000E1100BC0F8018583C8010E94A70786E0CF
:1015E000F60111928A95E9F74DCFC8010E940708CC
:1015F000882389F2EE2079F280910802803208F483
:10160000BBCF20910302309104023A8329831B82CD
:10161000BD82AC828E83CE010196ACCFE83CF10551
:1016200008F03EC0FE2CEE2009F4B5CF25132AC0E9
:10163000941328C08091080280FD1BC0982F907FD2
:10164000C1F0F8018583903F31F0982F907F905F33
:101650008F70892B8583C8010E94A70786E0F80157
:10166000A3E0B2E001900D928A95E1F70E948E0905
:1016700009CF86E0F801A3E0B2E001900D928A95CF
:10168000E1F700CFC8010E940708811175CF809152
:101690000802816080930802C8010E94A707F2CE69
:1016A0007A2DB98AA88A6E2D89890E941A0886E047
:1016B000F60111928A95E9F7D9CFEE2009F46BCFA4
:1016C000C8010E940708F82E882309F464CF86E039
:1016D000F801A3E0B2E001900D928A95E1F783E072
:1016E00092E00E94CD040E949D09C0CF81E08E252A
:1016F000D7CEACE0B0E0EFE7FBE00C94D3284F830B
:10170000588769877A878B879C87CE0107960E94C6
:10171000F209882369F08A859B85892B39F04F81EE
:101720005885842F85238F3F09F06BC016E05FC07A
:1017300086E0FE013796DE01119601900D928A95A2
:10174000E1F78A859B85892B89F38F819885892389
:101750008F3F61F32091D20130E0C901019687707B
:1017600099274091D1014817190671F40E94E707A3
:101770001092D2011092D10186E0E3E0F2E0DF01A5
:101780001D928A95E9F7D2CF96E0929FD001939F60
:10179000B00D1124AD52BE4FFE01319601900D9255
:1017A0009A95E1F78093D2010E946D09BFCF819F86
:1017B000C00111248D529E4F0E94F2098823E9F046
:1017C000E091D1011E9FF0011124ED52FE4F4081A6
:1017D000518162817381848195810E942408809166
:1017E000D10190E00196877099278093D101809173
:1017F000D1019091D2018913DACF2C96E3E00C94B9
:10180000EF2869857A858B859C850E9424088ECF78
:10181000682F80910001909101010E942B20089572
:10182000682F80910001909101010E943920089554
:1018300080910001909101010E94472008958091BC
:10184000290285958595859508958091290287704F
:10185000089590912902977081E009F480E008953D
:1018600080914C02089590914C02892B80934C02F8
:101870000895809590914C02982390934C0208957E
:1018800010924C02089590914B02892B80934B0249
:101890000895809590914B02982390934B02089560
:1018A00010924B02089580912A02089508950E9493
:1018B000560C08959091A90292FF08C090912A02B7
:1018C000981721F080932A020E94570C0895809166
:1018D0002A02882329F010922A0280E00E94570CE5
:1018E0000895CF93DF93E0910001F0910101809181
:1018F0004C028083E0910001F09101018081909180
:101900004B02892B808390912A02992381F0E091E8
:101910000001F09101018081892B80838091000179
:10192000909101010E94971F81110E94670CC09144
:101930000001D091010140E250E069E072E0CE0187
:101940000E94FB28892B59F080E2FE01A9E0B2E059
:1019500001900D928A95E1F7CE010E94251FDF913B
:10196000CF91089508950E94B20C08959091A90214
:1019700092FF11C098E0899F90011124622B60931F
:1019800029020E9462088091290285958595859596
:101990000E94B30C08950E946208089510922902D3
:1019A00080E00E94B30C08959091290280958923CC
:1019B00080932902282F277091F4282F082E000CDD
:1019C000330B9217130659F09091A90292FF07C0AA
:1019D0008595859585950E946E080E94CE0C089588
:1019E0009091A90292FB222720F9281769F080FB29
:1019F00092F99093A9028091A8029091A9020E9465
:101A0000390D82E00E94D40C08958091A90282FBD6
:101A1000882780F991E089270E94F00C089581E0E1
:101A20000E94F00C089580E00E94F00C08956FEF82
:101A30007FEF90E080E00E944329089590E080E0ED
:101A40000E941F29873E9E4F19F40E94F2170895A5
:101A500080E0089582E090E00E941129089583E0DB
:101A600090E00E941129089584E090E00E941F29CF
:101A70000895BC0184E090E00E9443290895AB01E1
:101A8000BC018FE090E00E9437290895AB01BC01B2
:101A900083E190E00E943729089560E070E0CB0177
:101AA0000E94460D089560E070E0CB010E943F0D5A
:101AB0000E944D0D089567EE7EEF90E080E00E9459
:101AC000432960E082E090E00E94252960E083E005
:101AD00090E00E9425291092D00160E074E184E03A
:101AE00090E00E94432960E086E090E00E94252972
:101AF0006FEF87E090E00E94252940E050E0BA01B6
:101B000088E090E00E94372960E08DE090E00E943C
:101B1000252940E050E0BA0188E190E00E94372991
:101B200060E087E190E00E94252940E050E0BA01A2
:101B30008CE190E00E94372970E060E080E290E064
:101B40000E94432940E050E0BA0188E190E00E9401
:101B5000372980E00E940B180E943A180E94530D0A
:101B600008950E945B0D0895682F8EE090E00E941A
:101B7000252908950E94142160935B0270935C02F2
:101B800080935D0290935E026093570270935802B7
:101B90008093590290935A0208950E9414216093F1
:101BA0005B0270935C0280935D0290935E0260938F
:101BB00053027093540280935502909356020895F5
:101BC000089508950E94E10D089508950E94E50D7D
:101BD00008958AE790E10E940E1F0E94E00D0E9486
:101BE000E20D089581E008950E94F20D0895089590
:101BF00008950E94F70D0E94F80D08950E94961016
:101C00000E946C0408950E94FF200E944A180E94BE
:101C1000921B0E9457110E94FE0D0E9425170E94E0
:101C2000E60D0895AAE0B0E0E8E1FEE00C94CC28CF
:101C30000E946D118FE4A82E82E0B82E750110E08D
:101C4000F70101917F01812F0E94B5101F5F1430B1
:101C500009F440C00817A1F380915F0281FD0E9442
:101C6000BB100E94F40DC82E10E0812F0E94B51009
:101C7000082FF50181915F01081731F1D02ED82688
:101C8000F12CEE24E3948D2D8E21B1F0CC20A1F027
:101C9000FE821F8391E0802F8E2109F490E09887C7
:101CA0000E9408218160782F9A8789874E815F8101
:101CB00068858A850E949804F394EE0CF6E0FF1282
:101CC000E2CFF501319700831F5F143071F60E9457
:101CD000BA0D20C00813C0CF0E9408218C0180914A
:101CE0004D0290914E0208171907A1F08FEF8983DA
:101CF0008A831B820E9408218160782F9D838C83B8
:101D000049815A816B818D810E94980410934E0203
:101D100000934D020E94031C81110E94CD0D0E9470
:101D20008B130E947F042A96EAE00C94E828CF9354
:101D3000DF930E94950FEC01811520E59207D0F505
:101D4000811530E4930708F086C0803E910518F5B0
:101D50008D3C910508F07DC0883A910570F4853A74
:101D6000910508F06EC08130910501F10097F1F006
:101D70000497E0F4D0E0C0E019C0813C9105D0F7B1
:101D8000C85AD0E0CC0FDD1FCB5ADE4F0990D88166
:101D9000C02DD4640BC08115904208F0A8C0C115B5
:101DA00081E0D80718F4C83ED10520F7CE01DF91B5
:101DB000CF910895803622E5920710F5803432E500
:101DC000930708F052C08032924508F047C0C11511
:101DD00082E5D80708F47DC02C2F2695269540E291
:101DE000249F900111248C2F8370C1E0D0E002C0A9
:101DF000CC0FDD1F8A95E2F7C22BD32BDD68D6CF3F
:101E0000803A22E5920760F4803832E5930708F4BF
:101E100041C0CF71D0E0DC2FCC27C46FD06AC6CFD1
:101E2000803C42E5940708F449C0C03E82E5D807EB
:101E300008F0A0CFDC2FCC27CC27DF71C06FD06A91
:101E4000B5CFC55AD0E0C957DE4FC881D0E0D064C5
:101E5000ADCFD065ABCFDF70D06AA8CFCF71D0E067
:101E6000DC2FCC27C16FD06AA1CF282F26952695CD
:101E7000277080E2289F900111248C2F8370C1E08D
:101E8000D0E002C0CC0FDD1F8A95E2F7C22BD32B26
:101E9000DC688CCF282F26952695277040E2249F5A
:101EA000900111248370C1E0D0E002C0CC0FDD1F8F
:101EB0008A95E2F7C22BD32BDA6878CF8F710E9414
:101EC0003710C82FD0E0DC2FCC27CC27DF71D062B1
:101ED0006DCF8C2F8F710E94371035E0D695C79546
:101EE0003A95E1F7CF709C2FEC01D0695FCF8D2F31
:101EF0008F710E94371090E0982F882788279F7154
:101F00009C012C2BE901E3CF462F743030F466306E
:101F100020F4672F0E94541D089590E080E00895FA
:101F20000E94840F0E94970E089582389105B9F19E
:101F3000B0F48133910509F47DC048F489329105EC
:101F400009F46DC08A32910509F47BC00895853388
:101F5000910509F45FC08933910509F10895833E25
:101F60009105D9F138F4803E910529F1823E910521
:101F700079F10895863E9105D9F1873E910509F4DE
:101F80003EC0843E910541F52091A90221FF24C065
:101F90008091A80284FD19C087EE90E008952091F9
:101FA000A802237009F05AC02091A90223FF14C08F
:101FB00089E290E008952091A80220FD38C0309178
:101FC000A90230FF09C024FF43C090E080E00895DB
:101FD0002091A80222FDF7CF08952091A80222FDAA
:101FE0003AC03091A90230FD39C024FFF5CFEDCFC2
:101FF0002091A80223FFF0CF24FDE7CFCDCF209181
:10200000A80223FD2EC03091A90231FFEECF84EE4D
:1020100090E008952091A80225FFDECFC9CF20913E
:10202000A80225FD21C02091A90223FFD5CF89E375
:1020300090E0D2CF2091A80226FFCECF8AE290E096
:1020400008952091A80226FFC7CF81E390E008956C
:1020500083EE90E0089582EE90E0089580EE90E0A7
:10206000089586EE90E0089585E390E008959091BC
:10207000A80292FF06C0282F28712830F9F4877F24
:10208000846093FF06C0282F28712831F1F4877EE1
:1020900084612091A90220FF06C0382F38713830A2
:1020A000D9F4877F816021FF06C0282F287128314D
:1020B000D1F4877E816194FD877E0895282F247155
:1020C0002430F9F68B7F8860DCCF282F24712431EF
:1020D00001F78B7E8861DDCF382F3171313019F7F0
:1020E0008E7F8860E0CF282F2171213121F78E7EED
:1020F0008861E1CF80E008950E94170D08950E9445
:102100006D118FE39CE90197F1F700C000000E9478
:102110006D1180E00E94B51080FF04C00E947C1009
:102120000E94532108950E947F1008950E941E0D61
:10213000811102C00E94B10D0E942A0D80935F029E
:102140000E94340D9093A9028093A8020E949310DC
:102150000E942F0D0E9438088091CF010E944D08E7
:10216000089508950E94FD020895E82FF0E0E255D9
:10217000FD4F80810895089580EA8A95F1F70895CA
:1021800000C008950E94BC100895F894E82FE295CD
:10219000EF70F0E031A1282F2F7081E090E001C0B6
:1021A000880F2A95EAF7982F9095932391A392A1EF
:1021B000892B82A378940895CF93DF9384EF0E94B4
:1021C000C51081E30E94C51083E30E94C51082E31D
:1021D0000E94C510CAE8D1E089918F3F11F00E949A
:1021E000C51081E0C039D807B9F7DF91CF910895C4
:1021F000B0E0A0E0EEEFF0E10C94CE28EC01D62E9A
:10220000062F10E0C80180579E4F7C01FC018081A1
:102210008F3F09F445C0F894E82FE295EF70F0E0A5
:1022200091A18F7021E030E001C0220F8A95EAF77A
:10223000892F822B81A382A12095282322A3789421
:102240000E94C010EAE8F1E040E951E031E0C12C21
:1022500021912F3F51F1A22FA295AF70B0E090963F
:102260008C9190E02F7002C0959587952A95E2F7A2
:1022700080FD1BC0832FC82A330F4E175F0741F71D
:10228000F70180818F3F11F00E94C51061E0C110FD
:1022900001C060E08D2D0E94C210C00FD11FC88206
:1022A000CDB7DEB7E8E00C94EA2880E0E4CF0E94E6
:1022B000DC1084E0EEEAF2E0DF01982F1D929A959F
:1022C000E9F7EAEAF2E0DF011D928A95E9F784E096
:1022D0000E94AA110E94BA030895A4E0B0E0E3E7C7
:1022E000F1E10C94D32819821A821B821C8210E01F
:1022F000612FCE0101960E94F8101F5F1430C1F7C4
:1023000044E050E0BE016F5F7F4F8AEA92E00E9496
:10231000FB2821E0009709F420E0892B61F08981F6
:102320009A81AB81BC818093AA029093AB02A09367
:10233000AC02B093AD0244E06EEA72E08AEA92E049
:102340000E94AB11182F0E94BD03812F2496E3E059
:102350000C94EF280895CF92DF92EF92FF920F93A3
:102360001F93CF936C017B01042F222349F081E05E
:10237000809362020E940821909361028093600220
:10238000C0916202C1110AC0C0E08C2FCF911F9191
:102390000F91FF90EF90DF90CF90089580916002B1
:1023A000909161020E942021059770F310E0A8012E
:1023B000B601C7010E94FB28892B41F0A801B60194
:1023C000C7010E94082910926202DFCFC0E0FBCF54
:1023D0000E94EE220E94030E0E94FB2208950E949A
:1023E00000230E94120E0E941A2308950E94A12029
:1023F0000E94D4220E94E90D0E94E8110E94EF1170
:102400000E94F90DFBCF8091690280FF0DC06091A1
:10241000070170E0660F771F6038710570F5611570
:10242000710569F1862F089581FF07C0609107014A
:1024300084E0689FB0011124EFCF6091070182FD15
:102440000AC0809168028823A9F02091060160915A
:102450000701821710F088E0ECCF869FC00111249D
:1024600033E0880F991F3A95E1F7622F70E00E94E0
:10247000A328D2CF68E070E0D5CF8FE7089581E040
:1024800008958091690280FF0CC06091030170E0A3
:1024900075956795759567956115710549F1862F55
:1024A000089581FF06C06091030170E075956795FE
:1024B000F3CF6091030182FD0BC0909167029923D5
:1024C000A1F06091020180910301961738F0682F06
:1024D00070E06038710500F38FE70895899FC001AF
:1024E000112470E00E94A328F4CF61E070E0D7CF00
:1024F00081E008958D3C31F40E9403128195809310
:102500006D0208958E3C19F40E940312F8CF8F3C9F
:1025100031F40E940312819580936C020895803DEE
:1025200019F40E940312F8CF893D29F40E94411248
:1025300080936E0208958A3D21F40E944112819594
:10254000F7CF8B3D31F40E944112819580936F0249
:1025500008958C3D19F40E944112F8CF9FE2980F24
:10256000983070F4815D990B21E030E001C0220FBA
:102570008A95EAF780916B02822B80936B02089513
:102580008D3D31F4809169028160809369020895E4
:102590008E3D21F4809169028260F7CF8F3DB9F7BB
:1025A000809169028460F1CF40916C028D3C59F4B6
:1025B00080916D0287FF0DC010926D0241110BC01A
:1025C0001092680208C08E3C81F480916D0218164A
:1025D0009CF3442381F080916E0290916F02892BCD
:1025E00009F05AC01092670208958F3C49F447FFE2
:1025F000F0CF10926C0280916D028111ECCFE0CF90
:10260000803D19F41416ACF3E4CF90916E02893D2D
:1026100029F41916F4F610926E02DBCF8A3D19F4F4
:1026200097FFD7CFF8CF90916F028B3D29F497FF9A
:10263000D0CF10926F02CDCF8C3D19F41916CCF388
:10264000C8CF9FE2980F983090F4815D990B21E0FC
:1026500030E0B90102C0660F771F8A95E2F7CB011F
:10266000809590916B02892380936B02B2CF8D3D50
:1026700031F4809169028E7F80936902AACF8E3DEA
:1026800021F4809169028D7FF7CF8F3D09F0A1CFB2
:10269000809169028B7FF0CF08950E9408219C01F0
:1026A00090916C0280916D02982B21F0309366021C
:1026B0002093650290916E0280916F02982B21F019
:1026C00030936402209363028AE692E00E943F1FE7
:1026D000089586E0EAE6F2E0DF011D928A95E9F7C7
:1026E0001092680210926702109269020895FC012C
:1026F000828181110EC0838181110BC0848181117F
:1027000008C091E08581811101C090E0892F81701E
:10271000089581E0FCCFA6E0B0E0E1E9F3E10C949C
:10272000D32886E0EAE6F2E0DE01119601900D92F0
:102730008A95E1F710926C0210926D0210926E026F
:1027400010926F028B819C81892B89F080916502A8
:10275000909166020E942021AC0190916802992319
:10276000C9F1809108018417150608F440C08D81D5
:102770009E81892B91F080916302909164020E9466
:102780002021AC0190916702992309F471C08091D6
:1027900004018417150608F479C0BE016F5F7F4FEE
:1027A0008AE692E00E945920811105C08AE692E0F3
:1027B0000E94771381110E944D1386E0FE0131962D
:1027C000AAE6B2E001900D928A95E1F72696E3E041
:1027D0000C94EF28209109018AE0289F9001112490
:1027E0002417350720F69F5F9093680202C09F3F31
:1027F000D1F71B81112359F00E9403129FEF11168C
:102800000CF491E0899F802D112480936C021C812F
:10281000112359F00E9403129FEF11160CF491E05E
:10282000899F802D112480936D0230916C02332397
:1028300009F49DCF20916D02222309F498CF45EB36
:102840003403C0011124992359F090936C0245EB95
:10285000240390011124332339F030936D0287CF84
:1028600081E080936C02F3CF81E080936D027FCF93
:10287000209105018AE0289F900111242417350733
:1028800008F08BCF9F5F9093670202C09F3FD1F704
:102890001D81112359F00E9441129FEF11160CF473
:1028A00091E0899F802D112480936E021E81112357
:1028B00059F00E9441129FEF11160CF491E0899F8C
:1028C000802D112480936F0230916E02332309F41E
:1028D00064CF20916F02222309F45FCF45EB3403CC
:1028E000C0011124992359F090936E0245EB240303
:1028F00090011124332339F030936F024ECF81E0E1
:1029000080936E02F3CF81E080936F0246CFEF9207
:10291000FF920F931F93CF93DF93EB01E82FD11119
:102920000EC0442321F0F0E0E459FE4FE4916E2FF5
:102930007E2F8E2FCDB7DEB7E6E00C94EC280D2F5E
:1029400010E0282F30E0442329F024593E4FF901AC
:10295000249130E0F6E0CF9FC0011124EFEFF0E0CA
:10296000BF010E948F28AB018C2F90E0880F991F28
:10297000A5E5A49FB001A59F700D1124861B970BA0
:10298000982F990F980FBF01601B710B629FD001A8
:10299000639FB00D729FB00D11248B2F9D9FB001CE
:1029A0001124672F7727EF01C61BD70BBE01629F4B
:1029B000E001639FD00D729FD00D11247F01E91AB1
:1029C000F108E09EB001E19E700DF09E700D1124A3
:1029D000672F7727E61BF70BE29F8001E39F100D1F
:1029E000F29F100D1124E12F722F4230510599F002
:1029F00048F44115510569F04130510581F0EB2F44
:102A00008D2F07C04430510569F080F046305105E4
:102A1000B1F76E2F8FCFE22F7B2F812FFACFE22FCE
:102A20007D2FF7CFEB2F822F712FF3CF7B2F822FAC
:102A3000ED2FEFCF41E00E94871408950E941A15F0
:102A40000895CF93DF93762FE901682F842F0E949A
:102A50001E15798368838A83DF91CF91089545316C
:102A600008F044E10E94211508958091B202982F48
:102A70009E7F71F48091B202817082608093B20275
:102A80008091B502853118F084E18093B5020895F4
:102A9000843080F7F5CF88E090E00E9419290895EE
:102AA000CF92DF92EF92FF926B017C010E9435156D
:102AB000B701A60188E090E00E943729FF90EF90CF
:102AC000DF90CF9008956091B2027091B30280912F
:102AD000B4029091B5020E9450150895E2EBF2E025
:102AE00083E0808311828FEF828384E18383148269
:102AF00060817181828193810E9450150895809137
:102B0000B20280FF02C08695089580E0089580910A
:102B1000B202817008959091B602933018F49F5FCD
:102B20009093B602882351F06091B2027091B30283
:102B30008091B4029091B5020E945015089581E0F1
:102B40000E948B1508959091B602992319F0915027
:102B50009093B602882351F06091B2027091B30253
:102B60008091B4029091B5020E945015089581E0C1
:102B70000E94A31508958091B60208958093B6022D
:102B8000662351F06091B2027091B3028091B40259
:102B90009091B5020E945015089560E00E94BE1504
:102BA00008958091B30208958091B40208958091B0
:102BB000B502089570E00E94C617089560910B0158
:102BC0008091B20280FF0BC080910A0123E0829FB6
:102BD000C001112489549D4F0E94DA150895E09197
:102BE0000C0180910D01E81778F78E2F90E0FC0121
:102BF000EE0FFF1FE80FF91FE954FD4F11821082FD
:102C00001282E2CFE2EBF2E080818E7F80836081EE
:102C10007181828193810E9450150E94DE15089572
:102C2000E2EBF2E080818E7F80830E94DE150895C2
:102C30009091B20290FF14C0E0910C0190910D01AF
:102C4000E91760F42E2F30E0F901EE0FFF1FE20FBD
:102C5000F31FE954FD4F8183608342830E94DE1598
:102C60000895A3E0B0E0E7E3F6E10C94D028F82E55
:102C7000062F142FE22E8091B20280FF28C0E82F89
:102C8000E695F0E0EC56FE4F9081909371028E7FB6
:102C9000823059F49E012F5F3F4F8F2D0E942F15D8
:102CA0004B8169818A810E941816F092B3020093C9
:102CB000B4021093B502EE2051F06091B20270910F
:102CC000B3028091B4029091B5020E9450152396F0
:102CD000E6E00C94EC28E2EBF2E09181282F4381AE
:102CE000628188E0890F0E943116089581E00E9478
:102CF0006B160895E2EBF2E09181282F4381628107
:102D000088EF890F0E943116089581E00E947A169B
:102D10000895E2EBF2E0628121E1620F08F46FEFC7
:102D2000282F438181810E943116089581E00E94FD
:102D300089160895E2EBF2E0628121E1621B08F45A
:102D400060E0282F438181810E943116089581E03F
:102D50000E949A160895E2EBF2E0438121E1420FCE
:102D600008F44FEF282F628181810E943116089567
:102D700081E00E94AB160895E2EBF2E0438121E18D
:102D8000421B08F440E0282F628181810E943116A5
:102D9000089581E00E94BC16089521E00E9431163A
:102DA000089520E00E94311608958091B20280FFBC
:102DB00018C0817082608093B202662351F06091E6
:102DC000B2027091B3028091B4029091B5020E9458
:102DD00050154091B5026091B4028091B3020E94F7
:102DE000D1160895682F81E00E94D516089581E0DC
:102DF0000E94F2160895682F9091B20296958FEF77
:102E0000890F09F481E00E94D516089581E00E949F
:102E1000FB16089561E00E94D5160895E2EBF2E0FA
:102E200080818160808386950E940A170895809131
:102E3000B20280FF03C00E94021608950E940E177E
:102E4000089560E00E94D516089580917002811166
:102E50002CC00E941E0D811104C00E94B10D0E9461
:102E60006E150E944B156093B2027093B30280936B
:102E7000B4029093B5026E7F61F40E946E150E94B9
:102E80004B156093B2027093B3028093B402909397
:102E9000B5020E9435158091B20280FF03C086956D
:102EA0000E94211781E0809370020895E2EBF2E026
:102EB00080818160808386950E942117089580918A
:102EC000B20280FF03C00E94101608950E94561798
:102ED0000895FA01811101C0FB01099508951F931E
:102EE000CF93DF93EC01FB011281111110C00E94FE
:102EF000300C8272FE01E052F847E531F10508F02E
:102F000043C0E959F64D0C94B7280E941717812F3A
:102F1000DF91CF911F91089546E057E167EF76E189
:102F20000E946917F4CF47EF56E166E077E1F8CFEA
:102F300045E856E166E776E1F3CF46E756E165E816
:102F400076E1EECF47EA56E166E976E1E9CF46E978
:102F500056E167EA76E1E4CF49EC56E168EB76E1C9
:102F6000DFCF48EB56E169EC76E1DACF47EB55E18C
:102F70006FE975E1D5CF4FE955E167EB75E1D0CF4A
:102F800081E00E940A17C3CF11E0C1CF539A4BB121
:102F9000477F5BB15860EFB7F8949B01220F331F56
:102FA000260F371F280F391F2817390741F4EFBFA5
:102FB0008FE594E00197F1F700C000000895DC016F
:102FC0006D91CD0178E05BB9000000C067FF4BB99F
:102FD000660F000000C000C000C04BB900C07A9569
:102FE00091F7E2CF82E290E00E941129833289F4C6
:102FF00083E290E00E941129813059F484E290E04C
:103000000E94112991E0883209F090E0892F8170A7
:10301000089580E0FCCFCF93C82F6FEF811163E25A
:1030200082E290E00E9425296FEFC11161E083E206
:1030300090E00E9425296FEFC11168E284E290E0E0
:103040000E942529CF910895089585E290E00E947D
:103050001129682F70E090E080E008950895CF93E3
:10306000C62F0E942E186C2F85E290E00E94252921
:10307000CF91089580E00E940B1860E070E0CB01D2
:103080000E942F180E94E21C0E94AF1D81E00E9446
:103090000B1808950E9424180E9425180E942E18CB
:1030A0000E94F217811102C00E943A1808950E94EE
:1030B0005F170895CF93FB01C281CC2309F19C01D6
:1030C000225037472031310520F582500E94BF1D24
:1030D000C0E08C2FCF91089581E00E94620843E008
:1030E00062E081E00E94B003F3CF81E00E946E08AD
:1030F00043E062E081E00E94B003EBCF82E0F6CFD4
:103100008115F7E79F0789F381309747B9F3C1E04D
:10311000E0CF8115E7E79E07F9F281309747C9F6BE
:1031200082E0DBCF2FEFFC012083089580E008953B
:10313000CF93DF93EC0188818230E9F028F481306D
:1031400071F0DF91CF9108958330F9F08430C9F7A1
:103150000E94D11589830E94D4158A83F2CF0E94E0
:10316000D7152FEF829FC001112464E170E00E9407
:103170008F286983E6CF0E948715882321F00E945B
:103180007F158983DECF80E0FCCF0E94BB15F9CF8D
:10319000CF93DF93EC018881823021F128F48130D4
:1031A00069F0DF91CF910895833041F18430C9F700
:1031B0000E94D715482F6A81898111C0898124E135
:1031C000829FC00111246FEF70E00E948F28D62FDC
:1031D0000E94D415C82F0E94D1154D2F6C2F0E942C
:1031E000D116DFCF8981811103C00E941016D9CF7B
:1031F0000E94561789810E942117D3CF89810E948E
:10320000CD15CFCFFC019C012E5F3F4F90819830B0
:1032100041F0993051F0973059F4C9010E94C81813
:103220000895C9010E94981808950E946315089591
:103230008FEF80830895FC012181223019F40E94D0
:10324000021908950E9492180895EF92FF920F9329
:103250001F93CF93DF93EC01062F0E9496188111E4
:1032600010C0E881E150E331B8F4F0E0E458F64DE5
:103270000C94B72819828BE08A83602FCE010E94BC
:10328000C821CDB7DEB7E6E00C94EC288981823006
:10329000C1F028F4813061F08FEF8883EECF833066
:1032A00099F08430C9F71A821B821C821D82E5CFF7
:1032B0000E9414210E94BD286A837B838C839D8396
:1032C000DCCF0E942518F6CF7E0182E0E80EF11CCB
:1032D00010E0812F0E94B510F70181937F011F5FDD
:1032E0001430B9F7CACF8981823031F08530A1F628
:1032F0008A810E945718C1CF6A817B818C819D8110
:103300000E94BD280E942F18B8CF4B816A81898105
:103310000E94A41C9827892798279D838C83ADCF72
:103320002C813D813227232732274B816A81898175
:103330000E94C61CA2CF0E94E21C9FCF602FCE012C
:103340000E941B199ACF0E94601D898396CF0E940C
:10335000621D9827892798279A8389838ECF6B814E
:1033600070E089819A81AE014C5F5F4F9827892771
:1033700098270E94651D81CF6B8170E089819A81B9
:10338000AE014C5F5F4F9827892798270E948A1DBE
:1033900074CF0E94AF1D71CF0E94921CD6CF6B815B
:1033A00070E089819A81AE014C5F5F4F9827892731
:1033B00098270E940E1D61CF6B8170E089819A81F0
:1033C000AE014C5F5F4F9827892798270E94311DD7
:1033D00054CFCF93DF93EC01FB018281882309F462
:1033E000D2C09E0130572332310508F0B2C00E948E
:1033F000340D9093A9028093A802FE01E150F0479A
:10340000E232F10520F4E157F64D0C94B728809193
:10341000A80281608093A80293C08091A90288606D
:103420008093A9028DC08091A8028260F3CF809121
:10343000A8028460EFCF8091A8028860EBCF8091D2
:10344000A9028160EDCF8091A9028260E9CF8091CD
:10345000A8028061DFCF8091A8028062DBCF8091DB
:10346000A8028064D7CF0E94E7078091A8028068F5
:10347000D1CF8091A8028C60CDCF8091A9028360CA
:10348000CFCF8091A8028E7FC5CF8091A902877F80
:10349000C7CF8091A8028D7FBDCF8091A8028B7F7E
:1034A000B9CF8091A802877FB5CF8091A9028E7F86
:1034B000B7CF8091A9028D7FB3CF8091A8028F7E74
:1034C000A9CF8091A8028F7DA5CF8091A8028F7B84
:1034D000A1CF0E94E7078091A8028F779BCF8091B0
:1034E000A802837F97CF8091A9028C7F99CF80918A
:1034F000A80282FB992790F921E0922790FB82F99C
:1035000090FB83F987CF8091A902982F90959170B5
:103510008E7F892B90FB81F983CF9091A802892F10
:103520008F7B96FF806476CF0E94E7079091A80278
:10353000892F97FB87F980586DCF81E00E94B40DE9
:103540008091A8029091A9020E94390D0E94E7077C
:1035500080E0DF91CF91089580E0F0CF9091A802B4
:10356000892F8F7E94FF806155CF9091A802892F7B
:103570008E7F90FF81604ECF9091A902892F877F27
:1035800093FF88604DCF81E0E4CFB0E0A0E0EBECAA
:10359000FAE10C94CF28E82FF0E0E459FD4FD490E5
:1035A000282F26952695269530E0F901E45FFC4FFB
:1035B0000491877010E0082E02C0159507950A94B3
:1035C000E2F701701127F901E450FD4FE490F12C6E
:1035D000082E02C0F594E7940A94E2F791E0E922FC
:1035E000FF24F901E451FD4FC491D0E002C0D5950C
:1035F000C7958A95E2F7C170DD270115110519F00D
:1036000081EE0E94DD04E114F10419F086EE0E94BF
:10361000DD048D2D0E947505E114F10419F086EE8C
:103620000E942A050115110519F081EE0E942A0554
:10363000CD2B19F08CE20E947505CDB7DEB7E7E01F
:103640000C94EB28EF92FF920F931F93CF93DF938D
:10365000EC01162F0AE08881882309F454C08130D8
:1036600009F04EC08981813099F47E0122E0E20E9A
:10367000F11C8A810E947505E7012196812F8150F6
:1036800050F3EFE9FFE03197F1F700C00000F7CF0A
:10369000823041F47E0182E0E80EF11C8A810E94B2
:1036A000DD04EACF833041F47E01E2E0EE0EF11C4E
:1036B0008A810E942A05E0CF843011F02196DDCF67
:1036C0002A81229690E080E0AE014F5F5F4F205349
:1036D000330B2A30310548F0019778F2EFE9FFE02B
:1036E0003197F1F700C00000F7CF089FB001099FA4
:1036F000700D1124C901860F971F2981EA01E4CFBB
:103700000E94C51ABACFCDB7DEB7E6E00C94EC281C
:103710008FE891E00197F1F700C0000008950E9442
:1037200000030895FF920F931F93CF93DF9382E0DE
:10373000809375020AEA11E0C8EAD1E0AE01D8012F
:1037400021E030E08D91E82FE295EF70F0E0F1A0FC
:103750008F70B90101C0660F8A95EAF7962F909590
:103760009F2191A382A1862B82A3FA018191AF01AF
:10377000E82FE295EF70F0E0F1A08F70B90101C081
:10378000660F8A95EAF7962F90959F2191A382A1C3
:10379000862B82A3F1E0AC3ABF07A1F60E94881BFA
:1037A0006091750248E752E0FA018E2F841B86175C
:1037B00028F0CDB7DEB7E5E00C94ED28D8012D91C7
:1037C0008D01A22FA295AF70B0E090968C9190E001
:1037D0002F7002C0959587952A95E2F7817099918F
:1037E000A92FA295AF70B0E090962C9130E09F7019
:1037F00002C0359527959A95E2F790E020FD92E07A
:10380000892B8193D2CFB0E0A0E0E9E0FCE10C94F9
:10381000CE2810E000E080917502181730F0802F5C
:10382000CDB7DEB7E8E00C94EA28C12FD0E0FE0166
:10383000E655FE4F8081E82FE295EF70F0E0E0A1C1
:10384000F0E08F7002C0F595E7958A95E2F7E17098
:10385000DE01A855BE4F2C91A22FA295AF70B0E00B
:1038600090968C9190E02F7002C0959587952A953F
:10387000E2F780FD55C080E08E2BDE01A858BD4FD9
:10388000EC919E2F9370981709F448C0EE0FEE0F3D
:10389000E82BEC93DE01AA55BE4FCC90EF70F0E020
:1038A000EA56FE4FCE018A589D4F7C018081F70178
:1038B0009081890F8083D12C082E000C990B20E079
:1038C0008C159D055CF0FE01ED58FD4F80818F5FEA
:1038D000808360E0812F0E948F1B21E0F7018081AF
:1038E000082E000C990B442755274C195D094817E1
:1038F000590754F0CD58DD4F88818150888361E0AD
:10390000812F0E948F1B21E0F7018081082E000C7F
:10391000990BB6010E94A3288083022B1F5F7BCFE7
:1039200082E0AACF84E0089550E0440F551F9CE048
:10393000699F400D511D112490E3899F400D511D39
:103940001124CA01869608950F931F93CF93DF9396
:103950008430C8F46430B8F44630A8F40E94941C53
:103960008C010E941129C82FD0E0DC2FCC27C80180
:1039700001960E9411299E01282BC901DF91CF9148
:103980001F910F91089590E080E0F8CF0F931F935F
:10399000CF93DF93122F032F843078F4643068F4D0
:1039A000463058F40E94941CEC01602F0E94252997
:1039B000612FCE0101960E942529DF91CF911F91A1
:1039C0000F9108950F931F93CF93DF93D0E0C0E042
:1039D00010E019C00E94260321E030E08C171D067C
:1039E00039F034F0402F612F8C2F0E9428039C0166
:1039F000402F612F8C2F0E94C61C0F5F063051F79D
:103A00001F5F143011F000E0E5CF2196C430D105DE
:103A1000F9F6DF91CF911F910F910895EF92FF92E8
:103A20000F931F93CF93DF93EC018A017C01E60E85
:103A3000F71ECE018696CE15DF0529F4CDB7DEB789
:103A4000E6E00C94EC28C03CD10540F40E9411291A
:103A5000F80180830F5F1F4F2196EBCFF801108292
:103A6000F9CFB0E0A0E0E7E3FDE10C94CE287C01C3
:103A70006A018C01060F171FEC01CE018696C01754
:103A8000D10729F4CDB7DEB7E8E00C94EA28C03CB2
:103A9000D10540F4FE01EE19FF09EC0DFD1D60811A
:103AA0000E9425292196E9CF843038F4643028F427
:103AB000463018F40E94A41C089590E080E0089518
:103AC00080E108958AE193E00895EF92FF920F93C9
:103AD0001F93CF93DF93EC018A017C01E60EF71E62
:103AE000CE018A519F4FCE15DF0529F4CDB7DEB741
:103AF000E6E00C94EC28CA3123E0D20740F40E949F
:103B00001129F80180830F5F1F4F2196E9CFF8013B
:103B10001082F9CFB0E0A0E0E0E9FDE10C94CE28FE
:103B20007C016A018C01060F171FEC01CE018A513E
:103B30009F4FC017D10729F4CDB7DEB7E8E00C944A
:103B4000EA28CA3123E0D20740F4FE01EE19FF094A
:103B5000EC0DFD1D60810E9425292196E7CFCF93B2
:103B6000DF93C6EED0E060E0CE010E9425292196C9
:103B7000C11584E0D807B9F7DF91CF910895A8E087
:103B8000B0E0E5ECFDE10C94CC28F82E8FE08F1529
:103B900008F46EC08FEF93E00E941129811168C074
:103BA00006EE10E0F11035C0FE0131966F0188E09D
:103BB00011928A95E9F77801FFEFEF1AFF0AC80121
:103BC0000E94112989831A82882309F451C0813007
:103BD000D1F4580182E0A80EB11CC7010E9411293E
:103BE0008A83882309F444C09FEF980F9330F0F440
:103BF000780193E0E90EF11CC5010E9411298B8325
:103C00008823B1F11C826AE0C6010E94221B870151
:103C1000D2CF011594E0190759F1C8010E9411296A
:103C2000811101C0FA940F5F1F4FBCCF7501843022
:103C300051F702E010E07501EFEFEE1AFE0AC50140
:103C40000E941129F601E00FF11F8083882381F083
:103C50008C3741F4E2E0F0E0EC0FFD1FE00FF11FC4
:103C60001082D1CF0F5F1F4F57010730110519F791
:103C70002896EAE00C94E828CF93DF93EB01863195
:103C80009C4711F50E94300C9A81992399F08A7A09
:103C900091E009F490E090937A02811109C089E2E1
:103CA0000E94080C0E94710C80E0DF91CF91089572
:103CB00085E3F6CF80917A02811104C089E20E94E7
:103CC000100CF0CF85E3FBCF81E0EFCF0F931F9374
:103CD000CF93DF93C42FD22FFC0182818823C9F0B8
:103CE00040937D020E94082190937C0280937B0286
:103CF00080E28C0F883040F4C77081E001C0880FEB
:103D0000CA95EAF70E947E05DF91CF911F910F912E
:103D1000089510917D02141332C080917B0290911E
:103D20007C020E942021883C910548F5C0E2CD0F1D
:103D30001D17B9F080E2810F883040F4177081E0E0
:103D400001C0880F1A95EAF70E948505C83048F42B
:103D500081E09D2F977001C0880F9A95EAF70E9425
:103D60007E05802F0E947505C83070F6D77081E0FF
:103D700001C0880FDA95EAF70E948505C5CF80E279
:103D80008C0F883008F6C77081E001C0880FCA9593
:103D9000EAF7F2CF0F93DB0188519C4787309105FA
:103DA000A0F5FC01EF54F64D0C94B72806E221EE85
:103DB00041EE6AE17CE7CD010E94661E80E00F9132
:103DC000089507E225EE45EE6BE17CE7F4CF06E2CD
:103DD00021EE40EE68E17CE7EECF07E225EE44EE0F
:103DE00069E17CE7E8CF06E221EE42EE6CE17CE798
:103DF000E2CF07E225EE46EE6DE17CE7DCCF08E29C
:103E000021E045EE6EE17CE7D6CF12968C918823B7
:103E100019F010927D02D3CF81E0D1CF9093BD01F4
:103E20008093BC0108959093830280938202089549
:103E3000E0918202F0918302309729F00190F081A5
:103E4000E02D0995089580E00895E0918202F091B7
:103E50008302309799F020911701222359F0209185
:103E6000A80227FF07C0DC012C9111962C93119713
:103E700026E02C930280F381E02D09950895E091CE
:103E80008202F0918302309739F022E0DC012C931A
:103E90000480F581E02D09950895A3E0B0E0E3E505
:103EA000FFE10C94D42820918002309181022817E0
:103EB0003907A1F09093810280938002E091820201
:103EC000F0918302309751F023E029839B838A830A
:103ED0000680F781E02DCE01019609952396E2E058
:103EE0000C94F028A3E0B0E0E8E7FFE10C94D428BC
:103EF00020917E0230917F0228173907A1F090931C
:103F00007F0280937E02E0918202F09183023097DB
:103F100051F024E029839B838A830680F781E02D7A
:103F2000CE01019609952396E2E00C94F028FC015D
:103F3000329680911701882321F08091A8029EE19A
:103F400087FF96E080E0915008F4089521912223A4
:103F5000D1F38F5FF8CF662301F12091170122235F
:103F6000F1F02091A80227FF1AC0462F46954695EA
:103F700046954E3190F4677021E030E002C0220F88
:103F8000331F6A95E2F7840F911DFC01828190E056
:103F90002823392381E0232B69F480E00895FC0174
:103FA000329608962191261721F0E817F907D1F7E4
:103FB000F4CF81E008959C01FC0132969FEF80E0F0
:103FC0004191461751F09F3F19F4411101C0982FBC
:103FD0008F5F8630A9F79F3F09F40895290F311D9F
:103FE00097FD3A95F90162830895FC01329608968F
:103FF0002191261303C0DF0111971C92E817F907DE
:10400000B9F70895E62FE695E695E695EE3168F462
:10401000E80FF92FF11D677021E030E001C0220F99
:104020006A95EAF78281822B82830895E62FE695CE
:10403000E695E695EE3170F4E80FF92FF11D677003
:1040400021E030E001C0220F6A95EAF720958281D5
:1040500028232283089520911701222339F02091EB
:10406000A80227FF03C00E94022008950E94DB1FC0
:10407000089520911701222339F02091A80227FFEB
:1040800003C00E94162008950E94F51F0895FC01A8
:10409000329680911701882351F08091A80287FF02
:1040A00006C08EE1DF011D928A95E9F7089586E04A
:1040B000F9CF46E050E00E94FB2821E0892B09F46B
:1040C00020E0822F089508950E94632008958111B1
:1040D00006C081E0809384020E946420089582E0FB
:1040E000F9CF83E0809384020E94642008950E94A7
:1040F0006720089581E0809384020E9464200895DF
:104100000E947A200895089508950E9484200895B9
:10411000089508950E9483200895CF930E948820D7
:104120000E946D110E948920C0E08C2F0E94B51062
:10413000811105C0CF5FC430C1F7CF91089581E0F0
:10414000FCCF85B7806885BF85B7806885BF089537
:104150001F921FB61F9211248F939F93AF93BF930B
:1041600080918502811113C08091BA029091BB02A7
:10417000A091BC02B091BD024196A11DB11D8093DA
:10418000BA029093BB02A093BC02B093BD02BF9150
:10419000AF919F918F911F901FBE1F901895809196
:1041A000C202843031F10E943B041092850288E102
:1041B00090E020E40FB6F894A895809360000FBEBD
:1041C0002093600083B7817F846083BF83B7816061
:1041D00083BF7894889583B78E7F83BF0FB6F8949A
:1041E000A8958091600088618093600010926000C3
:1041F0000FBE08950E94E7070E944004089582E0E0
:1042000084BD93E095BD9AEF97BD80936E000895AD
:104210002FB7F8948091BA029091BB02A091BC0292
:10422000B091BD022FBF08952FB7F8946091BA02E4
:104230007091BB028091BC029091BD022FBF089586
:104240009C014FB7F8948091BA029091BB02A09163
:10425000BC02B091BD024FBF821B930B08957894AE
:104260001F921FB61F9211248F939F93AF93BF93FA
:104270008091BA029091BB02A091BC02B091BD02A4
:104280000196A11DB11D8093BA029093BB02A09329
:10429000BC02B093BD02BF91AF919F918F911F90CF
:1042A0001FBE1F90189587E797E7909301088093AA
:1042B000000888E19AE00FB6F894A8958093600012
:1042C0000FBE90936000FFCF88E19AE00FB6F8949C
:1042D000A895809360000FBE90936000FFCF8091FF
:1042E000A60208959B01BA019091C2029430E9F4AC
:1042F0008F708093E9009FEF8091E800915085FDD9
:1043000006C085ED8A95F1F700009111F5CF8091F7
:10431000E80085FF0AC050E040E0C9010E94B923CF
:104320008091E8008E778093E800089543E050E0A4
:10433000BC0184E00E947221089546E050E0BC0177
:1043400084E00E9472210895CF93DF93EC01809165
:104350001701811111C048E050E0BE0181E00E94C8
:10436000722180E2FE01A6E8B2E001900D928A95EA
:10437000E1F7DF91CF9108958091A80287FF05C0F2
:1043800040E284E050E0BE01EACF48E081E0FACFAD
:10439000603231F440E250E0BC0182E00E947221C0
:1043A00008958091C102811109C00E9498250E9440
:1043B000F5258091E20084608093E20008951092D8
:1043C000C10208950E947A2008956091BE0281E0A2
:1043D000611101C080E00E94712008959091C20295
:1043E00081E0943009F080E06091BE020E94772065
:1043F000089542E061EC81E00E94142542E261EC04
:1044000084E00E94142542E261EC82E00E941425BF
:1044100042E260EC83E00E9414259091C20281E0A8
:10442000943009F080E06091BE020E9467200895F8
:104430008091C402833009F463C030F48130E1F12B
:10444000823009F4A0C008958A3009F48CC08B3002
:1044500009F471C0893009F052C08091C3028132E1
:1044600009F04DC08091C7029091C802009719F0E1
:10447000029709F044C08091E800877F8093E800AC
:104480008091E80082FF37C09091F3008091F200A4
:10449000029731F48091F100813011F0863021F4DF
:1044A0008091F1008093A6028091E8008B77809341
:1044B000E8000E94482523C08091C302813AF9F4A4
:1044C0008091E800877F8093E8008091C7029091F7
:1044D000C802892B61F460E286E892E070E00E94F5
:1044E00057248091E8008B778093E800089560E07E
:1044F00090E080E0F3CF8091C2028111C1CF089596
:104500008091C302813AD9F78091C7029091C80285
:10451000892BA9F78091E800877F8093E80080913C
:10452000E80080FFFCCF809117018093F10080911B
:10453000E8008E77BCCF8091C302813201F7809171
:10454000C7029091C802892BD1F68091E800877F3D
:104550008093E8000E9448258091C502809317014E
:104560000E94E70708958091C302813241F680914D
:10457000E800877F8093E8000E9448258091C6026A
:104580008093A70208958091C302813A09F0B7CFC2
:104590008091E800877F8093E8008091E80080FFA9
:1045A000FCCF8091A702C1CF84B7877F84BF0FB6AD
:1045B000F894A895809160008861809360001092C3
:1045C00060000FBE80E890E00FB6F8948093610021
:1045D000909361000FBE0E94802008950E9498254C
:1045E0000E94F525E2EEF0E080818460808378947B
:1045F0000E94742808958FE091E00E94131F08958F
:104600008091C202853031F48091C202853019F068
:104610000E94FA2008950E94CF208091C002882332
:1046200099F30E948D20882379F30E94A3230E948E
:10463000E707EACFA0E2B0E0E0E2F3E20C94D4288E
:104640008091C202843009F583E08093E900809173
:10465000E80082FF1AC08091E80090E085FF09C061
:1046600050E040E060E270E0CE0101960E94082434
:1046700091E08091E8008B778093E800992329F0FE
:1046800060E2CE0101960E942519A096E2E00C940A
:10469000F0280E944C230895292F33272330310519
:1046A00021F168F42130310509F443C0223031058D
:1046B00009F444C090E080E030E020E026C02132E0
:1046C000310551F122323105A9F76330710590F7B8
:1046D000FB01EE0FFF1FE155FE4F20813181645534
:1046E0007E4FFB01808190E010C0992781309105B9
:1046F00081F0009729F00297E9F6ECE1F3E002C0BF
:10470000E6E5F3E0849190E09F01FA013183208394
:104710000895ECE2F3E0F6CF6330710558F6660FCA
:10472000771FFB01EB54FE4F2081318189E090E03F
:10473000ECCF82E190E025EB33E0E7CF8BE590E032
:104740002AE533E0E2CF80E189BD82E189BD09B489
:1047500000FEFDCF8091D8008F7D8093D80080919E
:10476000E00082608093E0008091E00081FDFCCF5A
:104770000895AF92BF92CF92DF92FF920F931F9353
:10478000CF93DF936C01EB018A010E946725F82E1D
:10479000811123C00115110539F0F8018081918143
:1047A000C81BD90BC80ED91EB12CA12C2097A9F07B
:1047B0008091E80085FD22C08091E8008E7780938B
:1047C000E80001151105A1F0F80180819181A80E82
:1047D000B91EB182A08285E0F82E8F2DDF91CF9196
:1047E0001F910F91FF90DF90CF90BF90AF900895F1
:1047F0000E9467258823D1F2F82EEFCFF601819130
:104800006F018093F1002197FFEFAF1ABF0ACECF5F
:10481000AF92BF92CF92DF92FF920F931F93CF93ED
:10482000DF936C01EB018A010E946725F82E81114C
:1048300023C00115110539F0F80180819181C81B51
:10484000D90BC80ED91EB12CA12C2097A9F08091AC
:10485000E80085FD22C08091E8008B778093E80016
:1048600001151105A1F0F80180819181A80EB91EF2
:10487000B182A08285E0F82E8F2DDF91CF911F911C
:104880000F91FF90DF90CF90BF90AF9008950E945E
:1048900067258823D1F2F82EEFCF8091F100F60141
:1048A00081936F012197FFEFAF1ABF0ACECFFC01B2
:1048B0008091C9029091CA0286179707A0F06115EE
:1048C000710529F49091E8009E779093E80090E0BC
:1048D0006115710551F4911108C08091E80082FFC3
:1048E00034C080E00895BC01F2CF8091C2028823D9
:1048F000C1F18530C1F18091E80083FD30C0809125
:10490000E80082FDEACF8091E80080FFE1CF80914E
:10491000F3002091F200382F6115710519F028304D
:10492000310558F091E02830310509F090E02091F0
:10493000E8002E772093E800CBCF81918093F1009F
:10494000615071092F5F3F4FE7CF8091C2028823EA
:1049500041F0853041F08091E80083FFBECF81E0D7
:10496000089582E0089583E00895FC018091C902D2
:104970009091CA0286179707A0F06115710529F476
:104980008091E8008E778093E80090E061157105D2
:1049900051F4911108C08091E80082FF35C080E099
:1049A0000895BC01F2CF8091C2028823C9F18530FD
:1049B000C9F18091E80083FD31C08091E80082FD5B
:1049C000EACF8091E80080FFE1CF8091F300209151
:1049D000F200382F6115710519F02830310558F0B3
:1049E00091E02830310509F090E08091E8008E7761
:1049F0008093E800CBCF84918093F1003196615091
:104A000071092F5F3F4FE6CF8091C202882341F0AA
:104A1000853041F08091E80083FFBDCF81E00895AB
:104A200082E0089583E00895982F973028F08F70E2
:104A30008093E90081E008959093E900242F762F78
:104A400050E0981731F07091EC002091ED005091FA
:104A5000F00021FD02C09F5FE8CF3091EB003E7F68
:104A60003093EB003091ED003D7F3093ED003091BD
:104A7000EB0031603093EB007093EC002093ED007D
:104A80005093F0002091EE0027FDE5CF80E00895DF
:104A90008091C30287FF13C08091E80082FF06C0A7
:104AA0008091E8008B778093E80004C08091C20277
:104AB0008111F2CF08958091C2028823D9F38091A9
:104AC000E80080FFF8CF8091E8008E77ECCF20914E
:104AD000E4003091E50095E6A9012091EC00822FD9
:104AE000817020FF06C08091E80080FF06C080E052
:104AF00008952091E80022FD1AC08091C202882307
:104B000089F0853089F08091EB0085FD0FC0209100
:104B1000E4003091E50042175307F9F29150E1F6B5
:104B200084E0089582E0089583E0089581E0089587
:104B30000E9407260E940F26E0EEF0E0808181604F
:104B40008083E8EDF0E080818F77808319BCA7ED4A
:104B5000B0E08C918E7F8C9380818F7E80831092C9
:104B6000C10208950F931F93CF93DF930E940726EE
:104B70000E940F26C8EDD0E088818F7788838881D6
:104B80008068888388818F7D888319BC1092C202D7
:104B90001092BE021092C0021092BF0200EE10E00E
:104BA000F80180818B7F808388818160888342E0E7
:104BB00060E080E00E941425E1EEF0E080818E7FCD
:104BC0008083E2EEF0E08081816080838081886074
:104BD0008083F80180818E7F8083888180618883D3
:104BE000DF91CF911F910F910895E8EDF0E0808162
:104BF0008F7E8083E7EDF0E080818160808384E0B8
:104C000082BF81E08093C1020E94B2250895E8ED41
:104C1000F0E080818E7F80831092E20008951092F0
:104C2000DA001092E10008951F920F920FB60F92D2
:104C300011242F933F934F935F936F937F938F93A1
:104C40009F93AF93BF93EF93FF938091E10082FF17
:104C50000BC08091E20082FF07C08091E1008B7F52
:104C60008093E1000E9473288091DA0080FF19C0D0
:104C70008091D80080FF15C08091DA008E7F8093EC
:104C8000DA008091D90080FF96C080E189BD82E181
:104C900089BD09B400FEFDCF81E08093C2020E946D
:104CA000D1218091E10080FF19C08091E20080FF56
:104CB00015C08091E2008E7F8093E2008091E20037
:104CC00080618093E2008091D80080628093D80058
:104CD00019BC85E08093C2020E94E5218091E10029
:104CE00084FF2BC08091E20084FF27C080E189BD52
:104CF00082E189BD89B5982F917080FFFBCF8091AB
:104D0000D8008F7D8093D8008091E1008F7E8093C2
:104D1000E1008091E2008F7E8093E2008091E200CA
:104D200081608093E2008091BE02882309F449C02B
:104D300084E08093C2020E94EE218091E10083FF13
:104D400029C08091E20083FF25C08091E100877F28
:104D50008093E10082E08093C2021092BE028091B3
:104D6000E1008E7F8093E1008091E2008E7F80934E
:104D7000E2008091E20080618093E20042E060E026
:104D800080E00E9414258091F00088608093F000FC
:104D90000E94E221FF91EF91BF91AF919F918F917E
:104DA0007F916F915F914F913F912F910F900FBE27
:104DB0000F901F90189519BC1092C2020E94DF211B
:104DC00070CF8091E30087FD93E09093C202B3CF50
:104DD0001F920F920FB60F9211242F933F934F9370
:104DE0005F936F937F938F939F93AF93BF93CF9373
:104DF000DF93EF93FF93D091E900DF708091EC0097
:104E0000C82FC17080FDC0E81092E9008091F000C9
:104E1000877F8093F00078940E942C271092E900FD
:104E20008091F00088608093F000CD2BCF70C0930C
:104E3000E900FF91EF91DF91CF91BF91AF919F91E9
:104E40008F917F916F915F914F913F912F910F9033
:104E50000FBE0F901F901895AAE2B0E0E2E3F7E2D0
:104E60000C94D32883EC92E02091F100FC01219373
:104E7000CF01F2E08B3C9F07B9F70E941822809186
:104E8000E80083FF1EC18091C3029091C4029A3052
:104E900008F017C1E92FF0E0E854F64D0C94B7285C
:104EA000803899F0823809F00CC18091C7028F7068
:104EB000873008F006C18093E9008091EB0085FB04
:104EC000882780F91092E90006C08091BF02909176
:104ED000C002911182609091E800977F9093E80062
:104EE0008093F1001092F1008091E8008E77E5C088
:104EF000882309F4D3C0823009F0E3C08091C50251
:104F00008111D6C08091C7028F702FEF280F2630F5
:104F100008F0D7C08093E9002091EB0020FFC8C0C3
:104F2000933031F48091EB0080628093EB00C0C03D
:104F30009091EB0090619093EB0021E030E001C094
:104F4000220F8A95EAF72093EA001092EA008091F6
:104F5000EB008860EACF8111B4C01091C5021F77C1
:104F60008091E3008078812B8093E3008091E800BA
:104F7000877F8093E8000E9448258091E80080FFA9
:104F8000FCCF8091E30080688093E30082E0111100
:104F900083E08093C20295C08058823008F091C0AF
:104FA0008091C5029091C6028C3D23E09207A1F545
:104FB00083E08A838AE289834FB7F894DE011396EF
:104FC00020E03EE051E2E32FF0E050935700E491FF
:104FD00020FF03C0E295EF703F5FEF708E2F90E0EF
:104FE000EA30C0F0C7968D939D932F5F243159F717
:104FF0004FBF8091E800877F8093E8006AE270E00D
:10500000CE0101960E9457248091E8008B7780930F
:10501000E80057C0C096E7CF6091C7027091C80200
:10502000AE014F5F5F4F0E944923BC01892B09F4F9
:1050300048C09091E800977F9093E80089819A8119
:105040000E94B524E1CF8038E1F58091E800877FA8
:105050008093E8008091BE028093F10045CF8111DA
:1050600030C09091C502923060F58091E800877F52
:105070008093E8009093BE020E9448258091BE0272
:10508000882311F084E005C08091E30087FDFACF0A
:1050900081E08093C2020E94F92113C08091C50271
:1050A000813079F481E0933009F080E08093C00290
:1050B0001092E9008091E800877F8093E8000E94C9
:1050C00048258091E80083FF0AC08091E800877F2F
:1050D0008093E8008091EB0080628093EB00AA96B9
:1050E000E3E00C94EF280895CF938091C2028823C7
:1050F000A1F0C091E900CF709091EC00892F8170F0
:1051000090FD80E8C82B1092E9008091E80083FDB3
:105110000E942C27CF70C093E900CF910895AA1B5D
:10512000BB1B51E107C0AA1FBB1FA617B70710F092
:10513000A61BB70B881F991F5A95A9F780959095C4
:10514000BC01CD01089597FB072E16F4009407D0FB
:1051500077FD09D00E948F2807FC05D03EF490957A
:1051600081959F4F0895709561957F4F0895EE0F3B
:10517000FF1F0590F491E02D099469279627692770
:1051800078278727782708952F923F924F925F9232
:105190006F927F928F929F92AF92BF92CF92DF9247
:1051A000EF92FF920F931F93CF93DF93CDB7DEB7AC
:1051B000CA1BDB0B0FB6F894DEBF0FBECDBF099440
:1051C0002A88398848885F846E847D848C849B8497
:1051D000AA84B984C884DF80EE80FD800C811B81A5
:1051E000AA81B981CE0FD11D0FB6F894DEBF0FBED4
:1051F000CDBFED010895FB01DC0104C08D9101904C
:10520000801921F441505040C8F7881B990B08952C
:10521000FB01DC0102C001900D9241505040D8F7D3
:105220000895F999FECF92BD81BDF89A992780B56E
:105230000895A6E1B0E044E050E00C944B29A8E1C9
:10524000B0E042E050E00C944B29262FF999FECFB4
:1052500092BD81BDF89A019700B4021639F01FBAC9
:1052600020BD0FB6F894FA9AF99A0FBE08950396E6
:10527000272F0E9426290E942529252F0E942629B2
:10528000242F0C9426290196272F0E9426290C945E
:105290002529DC01CB01FC01F999FECF06C0F2BD46
:1052A000E1BDF89A319600B40D9241505040B8F7E4
:1052B0000895F894FFCFC705C705F805F8059106CE
:1052C000AD0627062706B2061907280728078517FF
:1052D0008C17931798179D17A217A717AC17B1171C
:1052E000B617BB17C0178717871787178717871732
:1052F00087178717871787173A194619731985195A
:1053000090199B199E199E199E194C194C19A31995
:10531000A719AF19BC19C919CC19CF19DC19411A31
:10532000B51A491A131A171A4D1A1B1A511A5D1A6F
:10533000271AAE1A2B1A611A2F1A651A8D1A331AE8
:10534000691A941A391A6F1A771A1F1A551A231ADA
:10535000591A3D1A731A831A9D1AAC1A0D1A451A56
:10536000BC1AE71EED1ED61EE11EF31EF91EFF1E1F
:1053700050277827612878276128AB27CC27612818
:0453800023282F2887
:105384002B02280850011E0A140100010001016FBC
:1053940021A4219D21962101050105030500050293
:1053A400E200E900EA00B500B600B700CD008301D1
:1053B400CC008A01920194012102230224022502D5
:1053C400260227022A02B300B4006F0070009F0176
:1053D400CB01818283E200E900EA00B500B600B7A0
:1053E40000CD008301CC008A0192019401210223A3
:1053F4000224022502260227022A02B300B4006F07
:105404000070009F01CB018182836697C63435FF0B
:10541400F4313332000100FF0100010000FFFF00FE
:1054240000010001FF000404903691F64022B69F6B
:0C54340004C703E9036C038503A5030013
:00000001FF
