:100000000C942E020C944B020C944B020C944B0259
:100010000C944B020C944B020C944B020C944B022C
:100020000C944B020C944B020C94A0270C94732854
:100030000C9428220C944B020C944B020C944B020F
:100040000C944B020C944B020C944B020C944B02FC
:100050000C944B020C94C0220C944B020C944B0257
:100060000C944B020C944B020C944B020C944B02DC
:100070000C944B020C944B020C944B020C944B02CC
:100080000C944B020C944B020C944B020C944B02BC
:100090000C944B020C944B020C944B020C944B02AC
:1000A0000C944B020C944B020C944B02AA00A90036
:1000B0000100010001000100010001005F0060007B
:1000C00061002A000400010001000100010001009C
:1000D0000100010001000100010001000100010018
:1000E0000100010000010101010101010101020201
:1000F00002020202020202030303030303030304D6
:1001000004040404040405050505050606060606A0
:10011000070707070708080808090909090A0A0A5A
:100120000B0B0B0C0C0C0D0D0D0E0E0E0F0F0F10FC
:100130001011111112121313141415151616171786
:10014000181819191A1A1B1B1C1D1D1E1E1F2020F2
:10015000212222232424252626272829292A2B2C3C
:100160002D2D2E2F30313232333435363738393A5F
:100170003B3C3D3E3F404142434445464748494A57
:100180004C4D4E4F50515354555658595A5B5D5E25
:100190005F616264656668696B6C6D6F70727375C0
:1001A00077787A7B7D7E8082838587888A8C8E8F24
:1001B00091939596989A9C9EA0A2A3A5A7A9ABAD52
:1001C000AFB1B3B5B7BABCBEC0C2C4C6C9CBCDCF40
:1001D000D1D4D6D8DBDDDFE2E4E7E9EBEEF0F3F5EE
:1001E000F8FAFDFF00000000000000002A2B2800A4
:1001F00000000000000000000000000000000029D6
:10020000000000002C1E3420212224342627252E15
:10021000362D3738271E1F2021222324252633334D
:10022000362E37381F0405060708090A0B0C0D0E79
:100230000F101112131415161718191A1B1C1D2F45
:100240003130232D350405060708090A0B0C0D0E65
:100250000F101112131415161718191A1B1C1D2F25
:100260003130354C000000000000000000000000AC
:10027000000000000000000000000000000000007E
:1002800000000000000000007E0F00D4FFFFFFC749
:10029000000000780E037A0065006F0070006100B6
:1002A00064000000280370006F0073006900740090
:1002B00072006F006E005F0065006C0065006300F7
:1002C000740072006F006E00690063000000040398
:1002D000090409025B00030100A0FA0904000001FF
:1002E00003010100092111010001224400070581D9
:1002F00003080001090401000203000000092111A4
:1003000001000122220007058203200001070503E6
:10031000032000010904020001030000000921116B
:1003200001000122B600070584032000011201002C
:10033000020000000855F0343500010102000106FA
:1003400060FF0961A1010962150026FF0095207573
:100350000881020963150026FF00952075089102A7
:10036000C005010902A10185020901A100050919C1
:10037000012908150025019508750181020501096B
:100380003009311581257F950275088106093815D8
:1003900081257F950175088106050C0A38021581B3
:1003A000257F950175088106C0C005010980A1015E
:1003B000850319012AB700150126B70095017510AC
:1003C0008100C0050C0901A101850419012AA002C0
:1003D000150126A002950175108100C005010906CE
:1003E000A1018506050719E029E7150025019508F3
:1003F000750181020507190029EF1500250195F007
:1004000075018102050819012905950575019102FB
:10041000950175039101C005010906A101050719A0
:10042000E029E71500250195087501810295017500
:100430000881010507190029FF150026FF00950610
:100440007508810005081901290515002501950584
:1004500075019102950175039101C00011241FBE21
:10046000CFEFDAE0DEBFCDBF11E0A0E0B1E0E6E51E
:10047000F7E502C005900D92A23BB107D9F722E043
:10048000A2EBB1E001C01D92A53BB207E1F70E94CB
:10049000AF110C942E2B0C94000055985D98209869
:1004A00028980E94B3100895CF93C82F0E949D03EF
:1004B00044E16FEF823051F0833051F0813051F4DC
:1004C00084EB0E947C148C2FCF91089583E2F9CFA6
:1004D00084E6F7CF8FEF0E947814F5CF843090F444
:1004E000611110C0453070F4E42FF0E095E0899F71
:1004F000E00DF11D1124EE0FFF1FE454FF4F859115
:100500009491089581E090E00895843088F4611119
:100510000FC0E82FF0E0EE0FFF1F81E04827E40F47
:10052000F11DEE0FFF1FE455FF4F85919491089543
:1005300081E090E0089581E008950E949B02089573
:1005400081E008950E949B0208950E94A2020895EE
:1005500008950E94A8020895A6E0B0E0E2EBF2E060
:100560000C94622A49835A839E833091B901898110
:100570009A8131111AC03E81332399F0222389F0E8
:100580000E946008182F682F89819A810E9436087E
:1005900069817A81812F0E946B0F2696E3E00C948B
:1005A0007E2A0E944B08182FF3CF0E9460086981B1
:1005B0007A81F1CFFC01262F4081518162817381C4
:1005C000848195810E94AC020895CF93DF93D82F48
:1005D000C92F61E00E94DA026D2F7C2F0E949D02DC
:1005E000DF91CF910895CF93DF93D82FC92F60E08B
:1005F0000E94DA026D2F7C2F0E94A902DF91CF9119
:10060000089581E008950E9401030895CF93C82FB3
:100610000E942D078C2F0E9403032FEF84E39CE0A0
:10062000215080409040E1F700C00000CF91089534
:1006300081E00E9406030E94E422089580E00E9467
:1006400006030E94F52208950F931F93CF93DF9323
:100650008C0161E00E94DA02EC01F80185818111D0
:100660000E942F15B801CE010E94611E882309F453
:1006700049C0B801CE010E94A502882309F442C0F6
:10068000B801CE010E946D1D8823E1F1B801CE01B1
:100690000E94BF188823B1F1B801CE010E949418BE
:1006A000882381F1B801CE010E943815882351F1C9
:1006B000B801CE010E94AE1D882321F1F801858189
:1006C000882381F0CA35FCE7DF0739F178F4C130BF
:1006D000ECE7DE07F9F0C330FCE7DF07C9F0C1152E
:1006E000DC4771F0C8010E94A0020DC0CB35ECE7D9
:1006F000DE07B1F0CC35DC47A9F70E94B20CF2CF8F
:100700000E94180380E0DF91CF911F910F9108950F
:100710000E94C40C0E941E03F5CF0E94BC0CE2CFC5
:100720000E94C00CDFCF0E940A220E94CC030895D1
:100730000E94D0030E940F220895982F82958F70F7
:10074000882311F0982F84E0292F269526952223BF
:1007500011F08E5F922F969591118F5F08950895F5
:1007600081E008950895CF93DF93D82F0E94B003BE
:10077000C82F882319F08D2F0E94B2038C2FDF9190
:10078000CF9108950895CF93C82F0E94AF038C2F67
:100790000E94B303CF91089580E00E94C30308959F
:1007A0000E9446200E94C3030895CF930E944620D2
:1007B000C82F8091B4018C1779F0C093B4010E94C6
:1007C00094226093B5017093B6018093B701909322
:1007D000B8018C2F0E94C303CF910895ADE0B0E023
:1007E000E4EFF3E00C94632A488759876A877B8794
:1007F0008C879D8791110E94BD0B1F8286E0FE01B0
:100800003896DE01119601900D928A95E1F78D815F
:1008100081110DC029813A814B815C816D817E817E
:100820008F810E94030B2D96E2E00C947F2ACE016B
:1008300001960E94E5028111EDCFF5CFFC01848184
:10084000813021F4808191810E9489080895662376
:1008500029F00E942D1A0E94031B08950E948B1AF2
:10086000FACFCF93C82F882399F08CEF8C0F813A61
:1008700088F48C2F0E94E920882329F08C2F0E9475
:100880008E210E94550C8C2F0E9477210E94550CBE
:10089000CF91089580E28C0F883048F4C77081E0D2
:1008A00001C0880FCA95EAF70E949E0BEFCF8BE537
:1008B0008C0F833038F42C2F2452330BC9010E9443
:1008C0007C20E6CFE8E5EC0FEB3150F4F0E0EE0FE2
:1008D000FF1FE15EFE4F808191810E94A220D8CF50
:1008E00083E38C0F8331A0F661E08C2F0E942704F4
:1008F000CFCF882381F19CEF980F913A28F40E9482
:100900008E210E94550C089590E2980F983050F473
:10091000877091E001C0990F8A95EAF7892F0E94AC
:10092000A40BEFCF9BE5980F933028F480E090E084
:100930000E947C20089598E5980F9B3128F480E070
:1009400090E00E94A220089593E3980F933118F449
:1009500060E00E94270408951F93CF93DF93182F20
:10096000EB010E943104209739F4812F0E94790411
:10097000DF91CF911F9108958FE99FE00197F1F7E3
:1009800000C000002197EFCF6AE070E0893311F4D6
:1009900060E570E00E94AC040895882321F00E9475
:1009A0009E0B0E94550C0895882321F00E94A40BF1
:1009B0000E94550C0895A0E0B0E0E1EEF4E00C9444
:1009C0005D2A6C01D62FC72FFC0115810681029587
:1009D0000F700E94930BE82E8823F9F0E12E11236B
:1009E000E1F08C2F807F803461F080E28D0F8830C1
:1009F000F0F08C2F807E803221F4D230C0F00023C2
:100A0000B1F08091960282FF12C082E00E94850CB4
:100A10000E94930B91E0E82EE926EC2FE295EF700F
:100A2000C03CB0F5F0E0E05DF44D0C94462AE12CBA
:100A3000F4CF0C2F0F70C03110F00295007F1123FE
:100A400099F0002359F080E28D0F883010F0D11119
:100A500007C0802F0E949E0B0E94550C8D2F51C005
:100A6000802F0E94AF0BF8CF8D2F0E9479040023B6
:100A700079F080E28D0F883010F0D11104C0802F02
:100A80000E94A40B03C0802F0E94B50B0E94550C3E
:100A9000EE2089F00E948F0B80FD0DC0F6011582BB
:100AA0000E94890B0E94A407C6010E94F4060E94BE
:100AB000890B0E94B007CDB7DEB7E8E00C94792A25
:100AC000FC2FFF70FF2EC07FC03219F0F29480EF30
:100AD000F822DD2341F0D130D1F1112309F444C0D3
:100AE0000023F1F0BBCF8091960282FD15C0112347
:100AF00059F0FF2029F08F2D0E949E0B0E94550C6B
:100B000080E00E943104C4CF80E00E947904FF207D
:100B100009F4BECF8F2DB4CF112369F0011104C0A9
:100B20008F2D0E94CD04B4CF013009F0B1CF8F2DAD
:100B30000E94D50BADCF0111ABCF8F2D0E94D404F5
:100B40008F2D0E94E10B8F2D0E94C40BA1CF11238A
:100B500021F0063008F09CCFE3CF053008F098CFA5
:100B60008F2D0E94D40494CF0023D1F3D93369F49C
:100B70002FEF87EE93E0215080409040E1F700C0D6
:100B800000008D2F0E94790483CFEFE3FCE93197B9
:100B9000F1F7F5CF8C2F869586958370882369F0C1
:100BA000813009F075CF8D2F9C2F9370111102C0E9
:100BB00080E090E00E94A2206BCF8D2F9C2F93703D
:100BC000111102C080E090E00E947C2061CF612F73
:100BD0008D2F0E9427045CCF8C2F8370811134C02D
:100BE000111124C04D2F429546954770440F440F74
:100BF0008D2F8F70042E01C0880F0A94EAF7D071F0
:100C0000DD2341F02FE030E001C0220F4A95EAF7E2
:100C1000D22FD095C695C695C3708D2BC23071F07A
:100C2000C33079F0C13039F00E9483070E9446201A
:100C30000E94C3032DCF0E947D07F8CF0E94890731
:100C4000F5CF0E947A07F2CF112339F1C0FFEECF22
:100C50004D2F429546954770440F440F8D2F8F704E
:100C6000042E01C0880F0A94EAF7D071DD2341F009
:100C70002FE030E001C0220F4A95EAF7D22FD0953D
:100C8000C695C695C3708D2BC23069F0C33071F024
:100C9000C13031F00E94D207C9CF823038F2D8CFAC
:100CA0000E94CC07C3CF0E94D807C0CF0E949207F2
:100CB000BDCFCF70112339F08C2F0E94A4078D2F48
:100CC0000E94CD04B3CF8D2F0E94D4048C2F0E949C
:100CD000B007ACCFD23F31F170F4D03FB9F0D13F83
:100CE000B1F1112309F451C0002309F44BC08D2F39
:100CF0000E9431049BCFD33FE1F0D43F21F1111189
:100D0000F3CF011154C08C2F8F71E1CF112341F02B
:100D1000053008F08BCF8C2F8F710E94C00786CFD3
:100D20000530F7CF8C2F8F711111D1CF0E94A407FE
:100D30007DCF112329F08C2F8F710E949B0776CFD6
:100D40000E94970773CF8091960282FD06C08C2F78
:100D50008F71112309F4BBCFE9CF112349F0CF7173
:100D60008C2F0E94A40763E08C2F0E94670C5ECF3B
:100D700081E00E94850C023008F458CF82E00E9486
:100D8000850C54CF8C2F8F71D1CF002309F4BBCFAA
:100D9000D93369F4FFEF27EE83E0F1502040804023
:100DA000E1F700C000008D2F0E9479043FCFEFE3F0
:100DB000FCE93197F1F7F5CF0F931F93CF93DF93B2
:100DC000EC01688179818D810E9496088C010E94D6
:100DD000DE070E947907B801CE010E94DB04DF9193
:100DE000CF911F910F910895CF93DF93EC018C81E8
:100DF000882399F0CE010E942403811111C00E9422
:100E0000930B882351F08D81882339F080919602CD
:100E100082FF03C082E00E94850CDF91CF9108958C
:100E2000CE010E94DC06CE010E94F302F6CF80E0E4
:100E300090E00E947C2080E090E00E94A2200E942E
:100E4000BD0B0E94550C0E94201B0E94031B08959D
:100E50000E94A5210E94170708950E94AC0B0E94D2
:100E600028070895282F92959F70963091F060F48E
:100E7000925F9F70923030F481E0203F79F030F43F
:100E8000283E30F080E008959A5FF3CF243FD1F7F9
:100E9000089581E0283EE0F3213FF9CF0895FC0159
:100EA0008481882339F0808191810E9489080E9481
:100EB0003207089580E00895A6E0B0E0E2E6F7E0AA
:100EC0000C94632A2696E2E00C947F2AA7E0B0E017
:100ED000ECE6F7E00C94632A2796E2E00C947F2A74
:100EE00008950E94700708950E9471078093C101C0
:100EF000089508950E94740708959091C101892B67
:100F00000E94740708959091C10189230E9474077B
:100F100008959091C10189270E94740708950E9445
:100F2000540208950E948F078093C001089580E0C5
:100F30000E949207089591E001C0990F8A95EAF7FF
:100F4000892F0E949207089521E030E001C0220F0E
:100F50008A95EAF78091C001822B0E94920708953A
:100F600021E030E0A90102C0440F551F8A95E2F745
:100F7000CA0180959091C00189230E94920708952B
:100F800021E030E001C0220F8A95EAF78091C0018C
:100F900082270E94920708959091C001892B0E9498
:100FA000920708959091C00189230E9492070895A5
:100FB0009091C00189270E949207089508959B018E
:100FC000677091E001C0990F6A95EAF763E0369582
:100FD00027956A95E1F7B901660F771F260F371F2E
:100FE000FA01E20FF31F40E050E0682F70E08191BA
:100FF000DF0111979B01042E02C0369527950A94B4
:10100000E2F7217021952827292328272C934F5F69
:101010005F4F4330510559F708959C01A82FA770E1
:1010200083E0369527958A95E1F7C901880F991FC6
:10103000820F931FFB01E80FF91F40E050E080E0B2
:10104000219130E00A2E02C0369527950A94E2F7E6
:1010500021703327042E01C0220F0A94EAF7822B55
:101060004F5F5F4F4330510559F70895282F862F62
:10107000911107C0622F70E04DEB51E0253040F038
:1010800008959C5F9230E0F7622F70E04AEB51E0E8
:101090000E94DF07F5CF282F892F911105C06DEB36
:1010A00071E0253030F008958C5F823038F46AEBBF
:1010B00071E0822F90E00E940D08089580E0F3CF48
:1010C000A0E0B0E0E6E6F8E00C945E2A7C01009136
:1010D000C0018091C101082BC3E0D0E010E0C8013D
:1010E0000C2E02C0959587950A94E2F780FD09C001
:1010F0002197A8F7D12C8D2DCDB7DEB7E7E00C9462
:101100007A2ADC2EB7018C2F0E94840F019781F37D
:10111000F2CFCF93DF93D82FC92F0E9460086D2F95
:101120007C2F0E94840FDF91CF9108951F93CF935E
:10113000DF93162FD72F9091B901992341F0862F75
:10114000972F0E948908DF91CF911F9108958823DE
:1011500081F0862F972F0E946008C82F682F812F5B
:101160009D2F0E943608612F7D2F8C2F0E94840FA7
:10117000EACF862F972F0E944B08C82FF4CFE1E0CB
:10118000F0E0DF0102C0AA0FBB1F6A95E2F7BD01C4
:10119000DF0102C0AA0FBB1F4A95E2F76A2B01C00C
:1011A000EE0F2A95EAF7962F9823961302C08E2BFE
:1011B0000895E0958E230895242F462F682F80915F
:1011C000C0010E94BF080E94920708950F931F93C9
:1011D000CF93E091C201C7E08091C3018E1304C098
:1011E000CF911F910F9108950E2F10E0CE9FF00127
:1011F0001124EC53FE4F208131814281538164815F
:10120000758186810E946607F8013196E770E4CF08
:101210002091FC013091FD014091FE015091FF01B0
:101220006091000270910102809102020E946607A3
:10123000089580910202803178F480910102882320
:1012400059F0E091C2012091C3013091FD0140911C
:10125000FC0157E02E1301C008956E2F70E05E9FD1
:10126000F0011124DF01AC53BE4F14968C911497FA
:10127000882361F111968C911197831327C08C916B
:10128000841324C015968C91159781111FC0129656
:101290008D919C91A091FE01B091FF018A1B9B0B47
:1012A000883C910598F4809102028F708061809350
:1012B0000202E653FE4F80818F70806180838CEF45
:1012C00091E00E94F4060E94E6080895FB01319621
:1012D000E770C0CFE091C2019091C30127E0E9130C
:1012E00002C080E00895AE2FB0E02E9FF0011124DF
:1012F000EC53FE4F3181361306C03081381303C0E2
:101300003581341304C0FD013196E770E8CF81E0E8
:1013100008958F929F92AF92BF92DF92EF92FF92C9
:101320000F931F93CF93DF93CDB7DEB72D970FB6F3
:10133000F894DEBF0FBECDBF8C0186E0F801DE0160
:10134000189601900D928A95E1F7F801E080F580FA
:10135000A280B38084819CEF892E91E0992E909198
:10136000000291111BC0882309F4FCC0FF2009F47E
:101370003DC1C8010E944F07882309F437C187E0A7
:10138000F801D40101900D928A95E1F7C4010E9401
:101390001E040E9419090E940809E4C0D0900102AD
:1013A0002091FE013091FF01A501421B530BDD206E
:1013B00009F4DBC0483C510508F0A6C0882309F4B5
:1013C000D1C09091FD01918080910202803108F09E
:1013D0006BC0991228C09091FC019E1124C0F1109D
:1013E0005DC08F708061809302020E9408098CEFBB
:1013F00091E00E94F40680910202F8018683F12CAC
:101400008F2D2D960FB6F894DEBF0FBECDBFDF91A6
:10141000CF911F910F91FF90EF90DF90BF90AF9011
:101420009F908F900895F11039C040E0692D8E2D66
:101430000E946A0940E0692D8E2D0E946A09F82EEB
:101440008111DDCF888599850E948908292F2295F1
:101450002F70903450F49F70223080F0992399F0CF
:10146000F8019681903178F4CBCF2A5F2F7022302B
:1014700078F0C8010E94F406FD2CC2CF992319F020
:10148000882309F4BDCF805E883008F4B9CFF1CF4E
:10149000803F08F4B5CF815F8230F7CF80910202A0
:1014A000816080930202ABCF991207C09091FC013A
:1014B0009E1103C0FF2009F479C0C8010E944F07A4
:1014C000882309F493C0FF2009F490C080910202A0
:1014D000803288F02091FC013091FD013A8329830C
:1014E000BC82AB82909100029D831E828F83CE01CD
:1014F00001960E94F40687E0F801ACEFB1E001909C
:101500000D928A95E1F745CF909102029031A0F4B7
:10151000488559856A857B858C859D850E945C07F9
:101520008CEF91E00E94F40687E0F40111928A9515
:10153000E9F70E94080963CF8823A1F02091FD01FB
:1015400081812813BACF8091FC018E11B6CFF110A2
:10155000B4CF9683C8010E94F40687E0F40111928B
:101560008A95E9F7FF24F3944BCF483C510508F0E6
:1015700041C08823B9F3FF20C9F19091FD01818119
:1015800098132AC08091FC018E1126C0809102021E
:1015900080FD19C08031B8F08683807F803F39F0AC
:1015A0008681982F907F905F8F70892B8683C801EA
:1015B0000E94F40687E0F801ACEFB1E001900D92D3
:1015C0008A95E1F7E8CE87E0F801ACEFB1E0019051
:1015D0000D928A95E1F7C6CFC8010E944F0781118D
:1015E0008ACF80910202816080930202C8010E942A
:1015F000F406B8CF488559856A857B858C859D859D
:101600000E945C0791CFAEE0B0E0E9E0FBE00C9413
:10161000622A288739874A875B876C877D878E8710
:10162000CE0108960E9489098823B1F06C85662353
:1016300041F0288539854A855B857D858E850E94A8
:10164000660717E08091C2019091C30189133EC0E3
:101650002E96E3E00C947E2A87E0FE013896DE01A8
:10166000119601900D928A95E1F72091C301409166
:10167000C2018C85882329F330E0C9010196877067
:10168000992750E08417950799F097E0929FD00131
:10169000939FB00D1124AC53BE4FFE0131960190C3
:1016A0000D929A95E1F78093C3010E94E608C9CF95
:1016B0000E942D071092C3011092C20187E0ECEF47
:1016C000F1E0DF011D928A95E9F7BBCF189FC001B9
:1016D00011248C539E4F0E948909882309F4B8CFA6
:1016E000E091C2011E9FF0011124EC53FE4F2081B6
:1016F0003181428153816481758186810E946607B0
:101700008091C20190E00196877099278093C20171
:1017100099CF80912B028695869586950895809124
:101720002B028770089590912B02977081E09111A0
:1017300001C080E00895809157020895909157026A
:10174000982B909357020895982F90958091570267
:10175000892380935702089510925702089590911B
:101760005602982B909356020895982F9095809149
:1017700056028923809356020895109256020895C6
:1017800008950E94C00B089590912C02292F2823C0
:10179000222331F08095892380932C020E94C10B73
:1017A000089508950E94D10B089590912D02292F3C
:1017B0002823281729F0982B90932D020E94D20BF2
:1017C000089590912D02292F2823222331F080950E
:1017D000892380932D020E94D20B089580912D02BF
:1017E000882329F010922D0280E00E94D20B0895E8
:1017F000CF93DF93C091570280915602C82BD091AE
:101800002D02DD2331F00E94C82081110E94EE0BD1
:10181000CD2B8C2FDF91CF910895CF93DF93C09183
:101820000201D09103010E94F80B8883C09102014C
:10183000D091030148E050E063E272E0CE010E94E3
:10184000C02A892B59F088E0FE01A3E2B2E00190A2
:101850000D928A95E1F7CE010E945320DF91CF913E
:101860000895CF93DF93C0910001D09101010E94B0
:10187000F80B8983C0910001D091010140E250E052
:1018800063E072E0CE010E94C02A892B59F080E209
:10189000FE01A3E0B2E001900D928A95E1F7CE013E
:1018A0000E945E20DF91CF91089580911E018823D0
:1018B00039F08091950287FF03C00E94310C089592
:1018C0000E940D0C089508950E94630C0895909154
:1018D000960292FF11C098E0899F90011124622B1B
:1018E00060932B020E94A40780912B028695869517
:1018F00086950E94640C08950E94A4070895109292
:101900002B0280E00E94640C089590912B02809538
:10191000892380932B02282F277021110DC089174E
:1019200059F09091960292FF07C08695869586950C
:101930000E94B0070E947F0C08959091960292FB3E
:10194000222720F9281769F080FB92F990939602DC
:1019500080919502909196020E94E60C82E00E948E
:10196000850C08958091960282FB882780F991E08A
:1019700089270E949D0C089581E00E949D0C089586
:1019800080E00E949D0C08956FEF7FEF80E090E073
:101990000E94182B089580E090E00E94E42A863E81
:1019A0009E4F19F40E94E91D089580E0089582E099
:1019B00090E00E94D62A089583E090E00E94D62A03
:1019C000089584E090E00E94E42A0895BC0184E038
:1019D00090E00E94182B0895AB01BC018FE090E0CD
:1019E0000E940C2B0895AB01BC0183E190E00E94A2
:1019F0000C2B089560E070E0CB010E94F30C089579
:101A000060E070E0CB010E94EC0C0E94FA0C08959B
:101A1000A8E0B0E0EEE0FDE00C94632A66EE7EEF15
:101A200080E090E00E94182B60E082E090E00E944D
:101A3000FA2A81E08093C10161E083E090E00E9496
:101A4000FA2A60E074E184E090E00E94182B60E0E4
:101A500086E090E00E94FA2A6FEF87E090E00E9413
:101A6000FA2A40E050E0BA0188E090E00E940C2B96
:101A700060E084E290E00E94FA2A60E087E190E072
:101A80000E94FA2A60E08CE090E00E94FA2A60E06E
:101A90008DE090E00E94FA2A19821A821B821C8231
:101AA0001D821E821F82188648E050E068E170E0C7
:101AB000CE0101960E94EA2A40E050E0BA0180E29D
:101AC00090E00E940C2B80E00E94021E0E94411EAA
:101AD0000E94000D2896E2E00C947F2A0E94080DD7
:101AE0000895682F8EE090E00E94FA2A0895A6E0FB
:101AF000B0E0EDE7FDE00C94612A0E9488228C01A1
:101B000080915802909159028017910779F01982BB
:101B10001A820E948822BC0149815A8180E090E0AB
:101B20000E94EE0310935902009358022696E4E0B7
:101B30000C947D2A0E949422609363027093640245
:101B4000809365029093660260935F0270936002D7
:101B5000809361029093620208950E9494226093A0
:101B600063027093640280936502909366026093AF
:101B70005B0270935C0280935D0290935E02089515
:101B8000089508950E94C00D089508950E94C50DFE
:101B900008958CE790E10E94BC110E94C10D0E9443
:101BA000C20D089581E008950E94D20D08950E940B
:101BB000D20D0895089508950E94DA0D0E94DB0D5C
:101BC00008950E9498100E94C20308950E947F22E7
:101BD0000E94511E0E9496150E9430110E94E10D34
:101BE0000E94D9140E94C60D0895A6E0B0E0EBEF64
:101BF000FDE00C945E2A0E94D40D811111C00E9458
:101C0000770D0E9430150E94B21581110E94AD0D12
:101C10000E94411B0E94D5032696E7E00C947A2A85
:101C20000E943C1110915A0280E00E94B8101817CF
:101C300031F38091670281FD0E94BE100E94D70D92
:101C4000D82E80E00E94B810182F90915A02891760
:101C500031F1E82EE92600E0FF24F3948F2D8E2148
:101C60008823B9F0DD20A9F009831A820E94882216
:101C70009C838B8381E08D8391E08F2D8123811163
:101C800001C090E049815A816B817C818D810E94E5
:101C9000EE030F5FFF0C053009F710935A020E9404
:101CA0009A0DAFCF1F93CF93DF930E94890FEC0162
:101CB000811522E5920708F053C0811540E594078D
:101CC00008F0DDC0803E9105F8F48D3C910508F0E8
:101CD000AEC0883A910580F4853A910508F099C024
:101CE0008130910521F00497813A910550F4CE019D
:101CF000DF91CF911F910895885A91094B9708F46D
:101D00008BC0C0E0D0E0F3CF811550E49507F8F424
:101D1000C11580E2D80708F0CBC0C83ED10538F322
:101D2000CE019A9581159F4160F78D2F0E942D104D
:101D3000182FCE0199270E94890F212F30E0322FD2
:101D40002227E901CC27DF71C82BD92BD0CF9927C7
:101D50000E94890FCC27DF70C82BD92BD06AC7CF40
:101D6000803842E59407C8F5803652E5950708F0BB
:101D700067C0C03482E5D807B0F08C2F8695869571
:101D8000877020E2829FC0011124C37021E030E0FF
:101D9000A90102C0440F551FCA95E2F7EA01C82BFA
:101DA000D92BDC68A4CFC03252E5D50708F041C07A
:101DB0008C2F8695869520E2829FC0011124C370E6
:101DC00021E030E0A90102C0440F551FCA95E2F797
:101DD000EA01C82BD92BDD688ACF803C52E59507F4
:101DE00060F48F71C03AD24508F03FC090E0982F60
:101DF0008827EC01C46FD06A7ACF805C92458097C7
:101E000008F07FCFDC2FCC27CC27DF71C06FD06AE2
:101E10006ECFA497D0646BCFC85AD0E0CC0FDD1F33
:101E2000CB5ADE4F0990D881C02DD46460CFD065E5
:101E30005ECFCF71D0E0DC2FCC27C16FD06A57CFF7
:101E400086958695877020E2829FC0011124C37019
:101E500021E030E0A90102C0440F551FCA95E2F706
:101E6000EA01C82BD92BDA6842CF0E942D10C82F67
:101E7000D0E0DC2FCC27CC27DF71D06238CF8F7138
:101E80000E942D1065E0D695C7956A95E1F7CF7051
:101E9000D0E0DC2FCC27282F30E084FF05C054E0B1
:101EA000220F331F5A95E1F7C22BD32BD0691FCFD6
:101EB0008D2F8F710E942D10182FCE0199270E940F
:101EC000890F212F30E0322F222722273F71282B24
:101ED000392BE901D2CF462F711106C0653088F445
:101EE00060E00E94A81708957D3F39F4611109C090
:101EF00041E060E00E94B41708957C3F11F466232E
:101F0000C1F380E090E008950E946B0F0E94520E92
:101F10000895803E9105D1F1C8F48133910509F40B
:101F20007FC048F48932910509F46FC08A32910567
:101F300009F47DC0089589339105E1F08238910557
:101F4000C9F08533910509F45BC00895843E91057D
:101F5000D1F148F4823E910531F1833E910541F182
:101F600081EE90E00895863E9105C1F1873E91058E
:101F7000E1F10895209195022370211165C020910F
:101F8000960223FF14C089E290E008952091950203
:101F900020FD43C03091960230FF09C024FF4EC09F
:101FA00080E090E008952091950222FDF7CF0895FA
:101FB0002091950222FD45C03091960230FD44C02B
:101FC00024FFF5CFEDCF2091960221FFF0CF809135
:101FD000950284FDE5CF87EE90E00895209195026B
:101FE00023FFE5CF24FDDCCFF6CF2091950223FD22
:101FF0002EC03091960231FFE3CF84EE90E0089539
:102000002091950225FFD3CFBECF2091950225FDCB
:1020100021C02091960223FFCACF89E390E0089562
:102020002091950226FFC3CF8AE290E00895209187
:10203000950226FFBCCF81E390E0089583EE90E007
:10204000089582EE90E0089580EE90E0089586EE87
:1020500090E0089585E390E0AACF9091950292FFD9
:1020600010C041E0282F2471243009F040E031E015
:10207000282F2871283009F030E0431711F02CE0A8
:10208000822793FF10C041E0282F2471243109F0EA
:1020900040E031E0282F2871283109F030E0431763
:1020A00011F02CE082273091960230FF10C051E0F1
:1020B000282F2171213009F050E041E0282F2871AC
:1020C000283009F040E0541711F029E0822731FF51
:1020D00010C041E0282F2171213109F040E031E0AA
:1020E000282F2871283109F030E0431711F029E03A
:1020F000822794FD877E089580E008950E94C40C95
:1021000008950E943C118FE39CE90197F1F700C00C
:1021100000000E943C1180E00E94B81080FF04C0C3
:102120000E947E100E94E42208950E94811008956A
:102130000E94CB0C811102C00E946E0D0E94D70C30
:10214000809367020E94E10C90939602809395021F
:102150000E9495100E94DC0C0E947A078091C001B9
:102160000E948F070895089508950E94B41008955D
:10217000E82FF0E0E856FD4F80810895089580EA49
:102180008A95F1F7089500C008950E94BF10089540
:10219000F894E82FE295EF70F0E041A18F7021E014
:1021A00030E0B90102C0660F771F8A95E2F7CB01D4
:1021B000962F9095942391A392A1892B82A3789432
:1021C0000895CF93DF9384EF0E94C810CBE8D1E04D
:1021D00089918F3F11F00E94C81081E0C039D80763
:1021E000B9F7DF91CF9108950F931F93CF93DF93AA
:1021F000EC01062FF894849A8C9878940E94C3106E
:10220000ABE8B1E081E010E09D919F3F81F0E92FC4
:10221000E295EF70E05EF0E0208130E09F7002C058
:10222000359527959A95E2F72170982F211190E026
:10223000192B880F91E0A039B90731F784EF0E947C
:10224000C81061E0111101C060E0802F0E94C5102C
:10225000C00FD11D1883DF91CF911F910F91089569
:102260000E94E110109298021092970281E00E9461
:1022700061110E944D020895A1E0B0E0E2E4F1E1B5
:102280000C94622A198260E0CE0101960E94F4103B
:1022900090919702898121E0981310C020E041E0DD
:1022A00068E972E087E992E00E946211182F0E94AB
:1022B000B510812F2196E3E00C947E2A809397023B
:1022C000EECF0895A0E0B0E0E8E6F1E10C945D2ADD
:1022D000D82EE92EF62ED72F042FC22F222379F0E5
:1022E00081E080936A020E94882290936902809321
:1022F000680280E0CDB7DEB7E8E00C94792AC090A0
:102300006A02CC20B1F380916802909169020E9428
:10231000B122059770F310E0A8016D2D7E2D8F2D51
:102320009D2F0E94C02A892B41F0A8016D2D7E2D82
:102330008F2D9D2F0E94CD2ACC2D10926A028C2FBA
:10234000D9CF0E9478240E94E60D0E94852408952A
:102350000E948A240E94F50D0E94A42408950E94E0
:1023600021220E945E240E94C90D0E94A1110E9498
:10237000A8110E94DC0DFBCF9093B3018093B201B2
:102380000895A0E0B0E0E7ECF1E10C945B2AE82FBF
:1023900071110DC0442321F0F0E0EC51FF4F849106
:1023A000682F782FCDB7DEB7EAE00C94772A262F76
:1023B00030E0C72FD0E0F0E0442321F0EC51FF4F94
:1023C000E491F0E086E0829F7001839FF00C11247D
:1023D0000FEF10E0C701B8010E941E2AAB01220FC7
:1023E000331F65E5649FC001659F900D1124281B74
:1023F000390BC22ECC0CC20EC8018C1B9D0B8E9FBC
:1024000090018F9F300D9E9F300D1124832FCC9E05
:10241000B001CD9E700D1124672F77275801A61AA1
:10242000B70AAE9ED001AF9EB00DBE9EB00D112476
:102430007B2F5801AC18B1086501CC9E5001CD9E90
:10244000B00CDC9EB00C1124AB2CBB240A191B0968
:102450000E9FE0010F9FD00D1E9FD00D11246E2FF7
:1024600043305105C9F09CEFE91693E0F90650F4AA
:102470004130510509F496CF4230510589F07E2F45
:102480006D2F90CF4430510571F046305105B9F3AE
:10249000632F8B2F7E2F86CF6B2F732F8E2F82CFA4
:1024A000732F8D2F7FCF7D2F632FF8CF41E00E94B8
:1024B000C11108950E9456120895CF93DF93982F6B
:1024C000762F842FE901692F0E945A12798368833D
:1024D0008A83DF91CF910895453108F044E10E944D
:1024E0005D12089580919902843070F48091990270
:1024F000837084608093990280919C02853118F0EA
:1025000084E180939C020895883080F7F5CF4F9244
:102510005F926F927F928F929F92AF92BF92CF9273
:10252000DF92EF92FF920F9388E090E00E94DE2A04
:102530002B013C0184E290E00E94D62A282F30E053
:1025400040E050E060E070E080E090E000E20E9457
:102550008A2A53014201C12CD12C76012429392920
:102560004A295B296C297D298E299F290F91FF908B
:10257000EF90DF90CF90BF90AF909F908F907F9023
:102580006F905F904F900895A0E0B0E0EAECF2E128
:102590000C945D2A8901D42FC52F6B017C010E9408
:1025A0007212A8016D2F7C2F88E090E00E940C2B06
:1025B00098014D2F5C2FB601C70100E20E94A52AA9
:1025C000622F84E290E00E94FA2ACDB7DEB7E8E0FD
:1025D0000C94792AE9E9F2E020813181428153812A
:1025E00064817581868197810E94C4120895E9E90A
:1025F000F2E085E0808311828FEF828384E1838320
:102600001482758125E030E04FEF54E160E086816F
:1026100097810E94C41208958091990280FF03C09F
:1026200086958695089580E008958091990281703D
:10263000089590919D02933018F49F5F90939D02AE
:10264000882391F02091990230919A0240919B0247
:1026500050919C0260919D0270919E0280919F0218
:102660009091A0020E94C412089581E00E94191363
:10267000089590919D02992319F0915090939D0295
:10268000882391F02091990230919A0240919B0207
:1026900050919C0260919D0270919E0280919F02D8
:1026A0009091A0020E94C412089581E00E94391303
:1026B000089580919D02089580939D02662389F07C
:1026C0002091990230919A0240919B0250919C0274
:1026D00070919E02682F80919F029091A0020E94AB
:1026E000C412089560E00E945C13089580919A02DC
:1026F000089580919B02089580919C02089570E056
:102700000E9468160895609105018091990280FFEA
:102710000DC02091040130E0C901880F991F820F7C
:10272000931F8F559D4F0E947F130895809106013E
:1027300090910701891768F790E0FC01EE0FFF1FE9
:10274000E80FF91FEF55FD4F118210821282E1CF81
:10275000E9E9F2E020812E7F20833181428153819B
:1027600064817581868197810E94C4120E948313BF
:102770000895E9E9F2E080818E7F80830E948313CF
:1027800008959091990290FF13C0209106019091B5
:102790000701291758F430E0F901EE0FFF1FE20F8F
:1027A000F31FEF55FD4F8183608342830E948313A3
:1027B0000895A3E0B0E0EFEDF3E10C945F2AF82E6A
:1027C000062F142FE22E8091990280FF2DC0E82F52
:1027D000E695E695F0E0E057FE4F908190936C020D
:1027E0008C7F843059F49E012F5F3F4F8F2D0E94C4
:1027F0006C124B8169818A810E94C113F0929A0206
:1028000000939B0210939C02EE2071F0209199029C
:1028100060919D0270919E023F2DA80180919F02C0
:102820009091A0020E94C4122396E6E00C947B2AA9
:10283000282FE9E9F2E0818143816281885F0E946B
:10284000D913089581E00E9418140895282FE9E90A
:10285000F2E081814381628188500E94D9130895FA
:1028600081E00E9426140895282FE9E9F2E06281B0
:1028700031E1630F08F46FEF438181810E94D91326
:10288000089581E00E9434140895282FE9E9F2E0C8
:10289000628131E1631B08F460E0438181810E9421
:1028A000D913089581E00E9445140895282FE9E97D
:1028B000F2E0438131E1430F08F44FEF62818181FF
:1028C0000E94D913089581E00E9456140895282F7C
:1028D000E9E9F2E0438131E1431B08F440E0628121
:1028E00081810E94D913089581E00E9467140895A0
:1028F00021E00E94D913089520E00E94D913089581
:102900002091990220FF1EC0237024602093990219
:10291000662381F030919A0240919B0250919C0273
:1029200060919D0270919E0280919F029091A00201
:102930000E94C41240919C0260919B0280919A0275
:102940000E947C140895682F81E00E9480140895ED
:1029500081E00E94A3140895682F909199029695A2
:1029600096958FEF890F913009F481E00E948014D1
:10297000089581E00E94AC14089561E00E948014E3
:102980000895E9E9F2E080818160808386958695EB
:102990000E94BD1408958091990280FF03C00E9497
:1029A000A81308950E94C114089560E00E94801445
:1029B000089580916B0281113DC00E94CB0C811162
:1029C00004C00E946E0D0E94F7120E94871220938D
:1029D000990230939A0240939B0250939C02609319
:1029E0009D0270939E0280939F029093A0022430D8
:1029F000A0F40E94F7120E9487122093990230934C
:102A00009A0240939B0250939C0260939D027093A4
:102A10009E0280939F029093A0020E947212809166
:102A2000990280FF04C0869586950E94D51481E0A6
:102A300080936B020895E9E9F2E0808181608083F0
:102A4000869586950E94D51408958091990280FFFD
:102A500003C00E94B91308950E941B15089508959C
:102A60000895FA01882311F009950895FB01FCCF20
:102A70001F93CF93DF93EC01FB01158111114DC022
:102A80000E949B0B8272FE01E052F847E531F1058E
:102A900008F043C0E45CF44D0C94462A0E94CB1429
:102AA000812FDF91CF911F91089549EB54E168EA9E
:102AB00074E10E943115F4CF48EA54E169EB74E106
:102AC000F8CF40E354E162E274E1F3CF42E254E133
:102AD00060E374E1EECF42E554E161E474E1E9CFF3
:102AE00041E454E162E574E1E4CF44E754E163E694
:102AF00074E1DFCF43E654E164E774E1DACF45E502
:102B000053E165E373E1D5CF45E353E165E573E157
:102B1000D0CF81E00E94BD14C3CF11E0C1CF8FE8B8
:102B200091E00197F1F700C00000089581E08093E3
:102B30006F025098589A5198599A0E948F15209177
:102B40006F0241E752E0FA018E2F841B821708F0D2
:102B5000089599B189B186958170880F9170892BFC
:102B60008193F2CFA8E1B0E0E8EBF5E10C94562AAE
:102B700010E000E084E0A82EB12C9DEF992E22E019
:102B8000822E772473943CEF632E43E0542E809181
:102B90006F02181728F0802F6896EFE00C94722AC5
:102BA000E12EF12C99B189B186958170880F9170D1
:102BB000892BD701AF58BD4FEC919E2F937098177A
:102BC00009F484C0EE0FEE0FE82BEC93EF70F0E009
:102BD000EE56FE4FC70180599D4F6C018081F60172
:102BE0009081890F808320E084308CF1F701E259D5
:102BF000FD4F80818F5F80831D876E860E948822B3
:102C0000BC018F87988B598A7A8A4D855E8583E0CF
:102C100091E00E94EE038FE39CE90197F1F700C079
:102C200000001B8B6C8A0E948822BC018D8B9E8BBE
:102C30005F8A188E4B895C8983E090E00E94EE03E6
:102C4000EFE3FCE93197F1F700C0000021E0F60165
:102C500080818D3F8CF5F701E259FD4F80818150D5
:102C6000808319839A820E948822BC018B839C8373
:102C70008D827E8249815A8182E091E00E94EE033A
:102C80008FE39CE90197F1F700C000001F8398864D
:102C90000E948822BC0189879A878B861C864F8177
:102CA000588582E090E00E94EE03EFE3FCE9319763
:102CB000F1F700C0000021E0F6018081082E000C31
:102CC000990BB5010E94322A8083022B1F5F5FCFD0
:102CD0009C01AB01539A6BB1677F7BB17860EFB712
:102CE000F894CA01880F991F840F951F820F931FB4
:102CF0008217930741F4EFBF8FE594E00197F1F756
:102D000000C000000895D9014D919D0158E07BB9A4
:102D1000000000C047FF6BB9440F000000C000C0B6
:102D200000C06BB900C05A9591F7E2CF84E00895D6
:102D30000F931F93CF93DF93843008F561111FC069
:102D40004530E8F4C42FD0E0CC0FDD1F2AE0829F8D
:102D5000C00DD11D1124CE0189960E94D62A082FBC
:102D600010E0102F0027CE018A960E94D62A9801E3
:102D7000282BC901DF91CF911F910F91089580E019
:102D800090E0F8CF1F93CF93DF93962F122F632FEE
:102D90008430B0F4911114C0453090F4C42FD0E0C9
:102DA000CC0FDD1F9AE0899FC00DD11D1124CE01EB
:102DB00089960E94FA2A612FCE018A960E94FA2AE9
:102DC000DF91CF911F9108950F931F93CF93DF93BE
:102DD000843048F5611127C024E0829F80011124CE
:102DE0000F5A1F4FC8014423A1F00E94D62AC82FB2
:102DF000D0E0DC2FCC2781E090E0800F911F0E9473
:102E0000D62A9E01282BC901DF91CF911F910F91E6
:102E1000089502960E94D62AC82FD0E0DC2FCC2736
:102E200083E090E0EACF80E090E0EECF1F93CF9375
:102E3000DF93962F122F632F8430A0F4911112C0CC
:102E400094E0899FE0011124CF5ADF4FCE01442343
:102E500069F00E94FA2A81E090E0612F8C0F9D1F9B
:102E60000E94FA2ADF91CF911F91089502960E9445
:102E7000FA2A83E090E0F1CFCF93DF93C0E0D0E077
:102E80004D2F60E08C2F0E946E029C014D2F60E060
:102E90008C2F0E94C216DF5FD53091F741E060E0D1
:102EA0008C2F0E9485029C0141E060E08C2F0E94E3
:102EB000161740E060E08C2F0E9485029C0140E0E4
:102EC00060E08C2F0E941617CF5FC430C1F6DF91EF
:102ED000CF910895EF92FF920F931F93CF93DF93BB
:102EE0008C01EA017A01E60EF71ECE15DF0529F402
:102EF000CDB7DEB7E6E00C947B2A80E008321105FE
:102F000020F4C80189960E94D62A89930F5F1F4F2B
:102F1000ECCFEF92FF920F931F93CF93DF938C012F
:102F2000EA017A01E60EF71ECE15DF0529F4CDB7CA
:102F3000DEB7E6E00C947B2A0832110528F468819C
:102F4000C80189960E94FA2A21960F5F1F4FECCF85
:102F5000843038F4611105C0453018F40E94981689
:102F6000089580E090E00895843028F4611103C052
:102F70000E94E416089580E090E0089580E10895AD
:102F80008FE993E00895EF92FF920F931F93CF93F1
:102F9000DF938C01EA017A01E60EF71ECE15DF05FC
:102FA00029F4CDB7DEB7E6E00C947B2A0F3983E035
:102FB000180748F4C8018F599F4F0E94D62A899359
:102FC0000F5F1F4FEBCF80E0FACFEF92FF920F938E
:102FD0001F93CF93DF938C01EA017A01E60EF71E6F
:102FE000CE15DF0529F4CDB7DEB7E6E00C947B2AD9
:102FF0000F3983E0180730F46881C8018F599F4F5B
:103000000E94FA2A21960F5F1F4FEACFCF93DF93DA
:10301000C1E6D0E060E0CE010E94FA2A2196C115F7
:1030200084E0D807B9F7DF91CF910895A8E0B0E028
:10303000ECE1F8E10C945D2AF82E2FE0281708F453
:103040006FC08FEF93E00E94D62A811169C001E61C
:1030500010E0F11038C01A821982FE01339686E022
:10306000DF011D928A95E9F76801BFEFCB1ADB0AF1
:10307000C8010E94D62A89831A82882309F450C085
:103080008130D1F4780122E0E20EF11CC6010E94E9
:10309000D62A8A83882309F443C09FEF980F933080
:1030A000F8F4680183E0C80ED11CC7010E94D62A3B
:1030B0008B838823A9F11C826AE0CE0101960E94CD
:1030C000971C8601D1CF011584E0180749F1C8018A
:1030D0000E94D62A0F5F1F4F8111F5CFFA94B9CF06
:1030E0008430B9F402E010E0C701AFEFEA1AFA0A3F
:1030F0000E94D62AE1E0F0E0EC0FFD1FE00FF11F87
:103100008083882369F08C3731F4FE01E00FF11FD2
:1031100012826701D1CF0F5F1F4F0730110521F7D2
:103120002896E8E00C94792ACF93DF93EB0186315F
:103130009C4719F50E949B0B9D819923A1F08A7AE7
:1031400091E0811101C090E090937202882349F0D0
:1031500085E30E9477210E94550C80E0DF91CF919A
:10316000089589E2F6CF80917202882321F085E3E9
:103170000E948E21F0CF89E2FBCF81E0EFCFCF9389
:10318000DF93EC01FB018581882309F4D2C09E0105
:1031900030572332310508F0B2C00E94E10C909301
:1031A000960280939502FE01E150F047E232F1056C
:1031B00020F4EF5AF44D0C94462A809195028160D8
:1031C0008093950293C080919602886080939602C6
:1031D0008DC0809195028260F3CF809195028460CA
:1031E000EFCF809195028860EBCF8091960281604D
:1031F000EDCF809196028260E9CF80919502806147
:10320000DFCF809195028062DBCF80919502806450
:10321000D7CF0E942D07809195028068D1CF8091F1
:1032200095028C60CDCF809196028360CFCF809144
:1032300095028E7FC5CF80919602877FC7CF809100
:1032400095028D7FBDCF809195028B7FB9CF809104
:103250009502877FB5CF809196028E7FB7CF809100
:1032600096028D7FB3CF809195028F7EA9CF8091FA
:1032700095028F7DA5CF809195028F7BA1CF0E9473
:103280002D07809195028F779BCF80919502837F48
:1032900097CF809196028C7F99CF8091950282FB87
:1032A000992790F921E0922790FB82F990FB83F90E
:1032B00087CF80919602982F909591708E7F892B61
:1032C00090FB81F983CF90919502892F8F7B96FF98
:1032D000806476CF0E942D0790919502892F97FBED
:1032E00087F980586DCF81E00E94710D8091950221
:1032F000909196020E94E60C0E942D0780E0DF91DB
:10330000CF91089580E0F0CF90919502892F8F7E24
:1033100094FF806155CF90919502892F8E7F90FF09
:1033200081604ECF90919602892F877F93FF8860AE
:103330004DCF81E0E4CF282F35EB2303C0011124CA
:1033400097FF04C080589109892F089580589F4F96
:10335000FBCF8091790280FF0DC060910E0170E07B
:10336000660F771F60387105C0F561157105B9F1F9
:10337000862F089581FF07C060910E0184E0689F49
:10338000B0011124EFCF82FF04C060910E0188E0EC
:10339000F6CF809178028823E9F090910D01609139
:1033A0000E0170E0891730F093E0660F771F9A9551
:1033B000E1F7D8CF869F9001879F300D112483E0DD
:1033C000220F331F8A95E1F7692F70E0C9010E942F
:1033D000322AC8CF68E070E0CBCF8FE7089581E054
:1033E00008958091790280FF0CC060910A0170E01D
:1033F00075956795759567956115710561F1862FCE
:10340000089581FF06C060910A0170E07595679587
:10341000F3CF60910A0170E082FD15C02091770220
:103420002223B1F09091090160910A0170E02917FF
:1034300050F4269FA001279F500D1124692F70E0A2
:10344000CA010E94322A60387105B0F28FE70895F0
:1034500061E070E0D4CF81E0089590917C022091EA
:103460007D02922B20917F02922B20917E02922B43
:10347000992331F098E09093780291E0909377024D
:103480008D3C31F40E94A919819580937D020895A5
:10349000E2E3E80FE231B0F5F0E0ED58F44D0C94C2
:1034A000462A0E94A919F1CF0E94A91981958093FB
:1034B0007C0208950E94A919FACF0E94F119809305
:1034C0007E0208950E94F1198195F9CF0E94F119A9
:1034D000819580937F0208950E94F119FACF815D52
:1034E000990B21E030E001C0220F8A95EAF7809124
:1034F0007B02822B80937B02089580917902816008
:10350000809379020895809179028260F9CF809149
:1035100079028460F5CF40917C028D3C59F4809112
:103520007D0287FF0DC010927D02442359F4109252
:10353000780208C08E3C81F480917D0218169CF3BD
:10354000442381F080917E0290917F02892B81112A
:1035500059C01092770208958F3C41F447FFF0CF95
:1035600010927C0280917D028823E0CF803D19F487
:103570001416B4F3E5CF90917E02893D29F4191613
:10358000FCF610927E02DCCF8A3D19F497FFD8CF6B
:10359000F8CF90917F028B3D29F497FFD1CF109205
:1035A0007F02CECF8C3D19F41916CCF3C9CF9FE220
:1035B000980F983090F4815D990B21E030E0B901CB
:1035C00002C0660F771F8A95E2F7CB018095909134
:1035D0007B02892380937B02B3CF8D3D31F48091B0
:1035E00079028E7F80937902ABCF8E3D21F480915A
:1035F00079028D7FF7CF8F3D09F0A2CF80917902BC
:103600008B7FF0CF08950E94882220917C02309118
:103610007D02232B222321F0809375029093760262
:1036200020917E0230917F02232B222321F0809370
:103630007302909374028AE792E00E946D200895CD
:1036400086E0EAE7F2E0DF011D928A95E9F7109241
:10365000780210927702109279020895FC0182811B
:1036600081110DC0838181110AC08481811107C03D
:1036700081E09581911101C080E08170089581E021
:10368000FCCFA6E0B0E0E7E4FBE10C94602A86E022
:10369000EAE7F2E09E012F5F3F4FD90101900D92C2
:1036A0008A95E1F710927C0210927D0210927E02C0
:1036B00010927F028B819C81892B8901882391F054
:1036C00080917502909176020E94B1229C018091B6
:1036D00078028823C9F140910F0150E04217530747
:1036E00008F43FC08D819E81892B882399F08091B9
:1036F0007302909174020E94B1229C018091770222
:10370000882309F467C040910B0150E0421753072A
:1037100008F46EC0B8018AE792E00E94BF218111CF
:1037200005C08AE792E00E942E1B81110E94031BB4
:1037300086E0F801AAE7B2E001900D928A95E1F7E0
:103740002696E5E00C947C2A409110019AE0499F6E
:10375000A00111244217530728F68F5F8093780247
:1037600002C08F3FD1F7FB80FF2059F00E94A919BA
:1037700091E01F140CF09FEF899F802D11248093FE
:103780007C02FC80FF2059F00E94A91991E01F14CF
:103790000CF09FEF899F802D112480937D028091F2
:1037A0007C02882309F49ECFF0907D02FF2009F46B
:1037B00099CF0E949B19811101C081E080937C0206
:1037C0008F2D0E949B19882319F080937D028ACF48
:1037D00081E0FBCF40910C019AE0499FA0011124A8
:1037E0004217530708F096CF8F5F8093770202C08D
:1037F0008F3FD1F7FD80FF2059F00E94F11991E031
:103800001F140CF09FEF899F802D112480937E025E
:10381000FE80FF2059F00E94F11991E01F140CF076
:103820009FEF899F802D112480937F0280917E02DB
:10383000882309F46FCFF0907F02FF2009F46ACF4C
:103840000E949B19811101C081E080937E028F2D1F
:103850000E949B19882319F080937F025BCF81E03F
:10386000FBCFFF920F931F93CF93DF93E82FF0E0EE
:10387000EC51FE4FF490282F26952695269530E0A2
:10388000F901EC57FD4F94918770F901EC58FD4F09
:10389000049110E0082E02C0159507950A94E2F7EE
:1038A00001701127F901EC59FD4FC491D0E0082EA9
:1038B00002C0D595C7950A94E2F7C170DD27E92FBC
:1038C000F0E002C0F595E7958A95E2F7E0FD10C0BB
:1038D00001151105C1F48F2D0E94C404CD2B19F0E0
:1038E0008CE20E94C404CDB7DEB7E5E00C947C2ADC
:1038F00081EE0E9431040115110579F48F2D0E948B
:10390000C40481EE07C086EE0E9431048F2D0E9410
:10391000C40486EE0E947904E1CF86EE0E94310451
:103920008F2D0E94C40486EE0E947904EACFEF92A4
:10393000FF921F93CF93DF93EC01162F888188238A
:1039400009F456C0813009F050C089818130A1F45A
:103950007E0122E0E20EF11C8A810E94C404E7018C
:103960002196812F882351F3EFE9FFE03197F1F79A
:1039700000C000008150F6CF823041F47E0182E029
:10398000E80EF11C8A810E943104E9CF833041F4B2
:103990007E01E2E0EE0EF11C8A810E947904DFCF05
:1039A000843011F02196DCCF2A81229680E090E0CD
:1039B0006AE0AE014F5F5F4F2053330B2A30310571
:1039C00048F0019768F2EFE9FFE03197F1F700C0A6
:1039D0000000F7CF689FF001699FF00D1124C90125
:1039E0008E0F9F1F2981EA01E4CF0E94311CB8CFBE
:1039F000DF91CF911F91FF90EF9008950F931F9348
:103A0000CF93DF93C42FD22FFC0185818823C9F087
:103A1000409382020E9488229093810280938002C8
:103A200080E28C0F883040F4C77081E001C0880FBD
:103A3000CA95EAF70E94CD04DF91CF911F910F91B3
:103A400008951091820214133CC0809180029091DD
:103A500081020E94B122883C910598F5C0E2CD0F09
:103A60001D1741F180E2810F883040F4177081E02A
:103A700001C0880F1A95EAF70E94D404C83020F0DC
:103A8000802F0E94C404D8CF91E08D2F877001C091
:103A9000990F8A95EAF7892F0E94CD04802F0E9402
:103AA000C404D77081E001C0880FDA95EAF70E945C
:103AB000D404C2CF802F0E94C404C83008F0BCCF09
:103AC000F0CF80E28C0F883008F0B6CFC77081E06D
:103AD00001C0880FCA95EAF7EACF0F93FC01CB012A
:103AE000E851FC47E730F10590F5EB57F44D0C94A5
:103AF000462A06E221EE41EE6AE17CE70E94FE1CC6
:103B000080E00F91089507E225EE45EE6BE17CE73A
:103B1000F5CF06E221EE40EE68E17CE7EFCF07E269
:103B200025EE44EE69E17CE7E9CF06E221EE42EEC4
:103B30006CE17CE7E3CF07E225EE46EE6DE17CE742
:103B4000DDCF08E221E045EE6EE17CE7D7CFFB0157
:103B5000858181111092820281E0D3CFCF93DF93D0
:103B60009C01FB0127378CE7380739F028373C47A1
:103B7000F1F081E0DF91CF9108958581882391F064
:103B80000E94E01D0E94A4070E94E61DD82F0E94FB
:103B9000E31DC82F0E94E01D4D2F6C2F0E94DC08F2
:103BA00080E0E8CF0E94E01D0E94B007EDCF858144
:103BB000882319F00E94E31DE5CF0E94E31DF4CF96
:103BC000809113010895809112010895809111014F
:103BD000089585E290E00E94D62A843289F486E234
:103BE00090E00E94D62A833059F487E290E00E9448
:103BF000D62A91E0863109F090E0892F81700895EE
:103C000080E0FCCF882381F064E285E290E00E94AE
:103C1000FA2A63E086E290E00E94FA2A66E187E2EF
:103C200090E00E94FA2A08956FEF85E290E00E94EA
:103C3000FA2A6FEF86E290E00E94FA2A6FEFEFCF48
:103C40000895A4E0B0E0E7E2FEE10C94632A88E284
:103C500090E00E94D62A282F30E040E050E0CA01D0
:103C6000B9012496E2E00C947F2A0895CF93C62FE1
:103C70000E94351E6C2F88E290E00E94FA2ACF91B4
:103C8000089580E00E94021E60E070E0CB010E9477
:103C9000361E0E943C170E94061881E00E94021EF8
:103CA00008950E94201E0E94211E0E94351E0E941F
:103CB000E91D811102C00E94411E08950E94251530
:103CC00008959C01FB018581882351F0A901575774
:103CD0004038510530F4822F0E94161880E0089574
:103CE00081E008952FEFFC012083089580E008957E
:103CF000CF93DF93EC018881833039F138F4813040
:103D000071F08230C1F0DF91CF9108958430D9F7FE
:103D10000E94761389830E9479138A83F4CF0E94CC
:103D20007C132FEF829FC001112464E170E00E9498
:103D30001E2A6983E8CF0E941513882321F00E9470
:103D40000C138983E0CF80E0FCCF0E945913F9CF98
:103D5000CF93DF93EC018881833081F138F4813097
:103D600069F08230F9F0DF91CF9108958430D9F76E
:103D70000E947C13482F6A81898111C0898124E1C6
:103D8000829FC00111246FEF70E00E941E2AD62F7F
:103D90000E947913C82F0E9476134D2F6C2F0E941A
:103DA0007C14E1CF8981811103C00E94B913DBCF5C
:103DB0000E941B1589810E94D514D5CF89810E944C
:103DC0007213D1CFFC019C012E5F3F4F9081983040
:103DD00041F0993051F0973059F4C9010E94A81E62
:103DE0000895C9010E94781E08950E94EA1208955C
:103DF0008FEF80830895FC012181223019F40E9405
:103E0000E21E08950E94721E0895AEE0B0E0EBE05D
:103E1000FFE10C94622A8D839E83162F8D819E81F3
:103E20000E94761E811115C0AD81BE81EC91E150DA
:103E3000E531F0F4F0E0E457F44D0C94462AED81BE
:103E4000FE8111828CE08283612F8D819E810E9490
:103E500053232E96E3E00C947E2AAD81BE81119609
:103E60008C91833059F148F4813081F08230C9F06F
:103E70008FEFAD81BE818C93E7CF8430C9F7ED81A0
:103E8000FE811282138214821582DECF0E94942258
:103E90000E944C2AED81FE81628373838483958323
:103EA000D3CF0E94211E0E944C2AAD81BE81129662
:103EB0006D937D938D939C931597C6CFED81FE8175
:103EC00082818111C1CF0E94B810AD81BE8113964D
:103ED0008C93BACFED81FE818181823041F08530B3
:103EE00039F6ED81FE8182810E945E1EADCFAD81EB
:103EF000BE8112968D919D910D90BC91A02DBC011B
:103F0000CD010E944C2A0E94361E9ECFAD81BE81FB
:103F100013964C91139712966C91129711968C915F
:103F20000E949816982789279827ED81FE8195830E
:103F300084838ACFAD81BE8114962D913C911597D3
:103F400032272327322713964C91139712966C91A0
:103F5000129711968C910E94C21676CF0E943C1740
:103F600073CF612F8D819E810E94FB1E6DCF0E94B9
:103F7000BE17ED81FE81818367CF0E94C01798270D
:103F800089279827AD81BE8112969C938E931197B5
:103F90005BCFED81FE81638170E081819281AF0111
:103FA0004C5F5F4F9827892798270E94C3174CCFF3
:103FB000AD81BE8113966C91139770E011968D912F
:103FC0009C911297AD014C5F5F4F982789279827E6
:103FD0000E94E51739CF0E94061836CF0E94961628
:103FE000C8CFAD81BE8113966C91139770E0119686
:103FF0008D919C911297AD014C5F5F4F9827892757
:1040000098270E946A1720CFED81FE81638170E0BE
:1040100081819281AF014C5F5F4F98278927982754
:104020000E94891711CF41E0AD81BE8113968C911A
:10403000811101C040E0ED81FE81628181810E9499
:10404000E416982789279827AD81BE8115969C9301
:104050008E931497F9CEED81FE812481358132272C
:104060002327322741E08381811101C040E0AD81E7
:10407000BE8112966C91129711968C910E94161720
:10408000E3CE90938802809387020895E09187029F
:10409000F0918802309729F00190F081E02D099588
:1040A000089580E00895E0918702F09188023097AA
:1040B00021F00280F381E02D09950895DC01E09163
:1040C0008702F0918802309739F086E08C93048063
:1040D000F581E02DCD0109950895DC01E09187027D
:1040E000F0918802309739F082E08C930680F78156
:1040F000E02DCD0109950895A3E0B0E0E2E8F0E2FB
:104100000C94632A9C01809185029091860282170B
:104110009307A1F03093860220938502E0918702F5
:10412000F0918802309751F083E089833B832A83A2
:104130000084F185E02DCE01019609952396E2E0F9
:104140000C947F2AA3E0B0E0E8EAF0E20C94632A42
:104150009C01809183029091840282179307A1F0C1
:104160003093840220938302E0918702F0918802C9
:10417000309751F084E089833B832A830084F18562
:10418000E02DCE01019609952396E2E00C947F2A5A
:1041900020910201309103012E5F3F4F80911E015B
:1041A0008823A9F08091950287FF11C0209100011A
:1041B000309101012E5F3F4F9DE180E0F901408188
:1041C0002F5F3F4F41118F5F9150C0F7089595E0E9
:1041D000F4CF882321F190911E01992311F1909140
:1041E000950297FF1EC0982F969596959695803FBD
:1041F000B0F4E0910001F0910101E90FF11D22817D
:1042000030E0877041E050E0BA0102C0660F771FCE
:104210008A95E2F72623372381E0232B91F480E06F
:1042200008952091020130910301F9013296285F2F
:104230003F4F9191981721F0E217F307D1F7EFCF95
:1042400081E008959C01FC0132968FEF90E041914E
:10425000461751F08F3F19F4411101C0892F9F5F1C
:104260009630A9F78F3F09F40895280F311D87FD77
:104270003A95F901628308959C01FC013296285F0A
:104280003F4F8191861303C0DF0111971C92E21703
:10429000F307B9F70895FC01862F869586958695D4
:1042A000603F60F4E80FF11D677021E030E001C06D
:1042B000220F6A95EAF78281822B82830895FC019E
:1042C000862F869586958695603F80F4E80FF11DD0
:1042D000677081E090E09C0102C0220F331F6A9555
:1042E000E2F7B90160958281682362830895682F9F
:1042F00080911E01882359F08091950287FF07C0A5
:1043000080910001909101010E944B2108958091BC
:104310000201909103010E9422210895682F80914B
:104320001E01882359F08091950287FF07C0809174
:104330000001909101010E945F2108958091020186
:10434000909103010E943C21089580911E018823D1
:1043500079F08091950287FF0BC0E0910001F09108
:10436000010132968EE1DF011D928A95E9F70895E9
:10437000E0910201F0910301329686E0F4CFDC0176
:10438000FB0111969C9111978181981322C012967E
:104390008C911297882319F0928189131AC0139671
:1043A0008C911397882319F09381891312C0159665
:1043B0008C911597882319F0958189130AC014965A
:1043C0009C91992321F081E02481291303C080E08E
:1043D00001C081E08170089508950E94EC21089544
:1043E0008F5F809389020E94ED21089583E080937E
:1043F00089020E94ED2108950E94F021089581E034
:10440000809389020E94ED2108950E94FF21089562
:10441000089508950E9409220895089508950E941C
:10442000082208950E940D220E943C110E940E2233
:1044300080E00E94B810982F81E0911101C080E0C7
:10444000089585B7806885BF85B7806885BF089562
:104450001F921FB61F9211248F939F93AF93BF9308
:1044600080918A02811113C08091A4029091A502CB
:10447000A091A602B091A7024196A11DB11D809303
:10448000A4029093A502A093A602B093A702BF91A5
:10449000AF919F918F911F901FBE1F901895809193
:1044A000AC02843031F10E94930310928A0288E1B9
:1044B00090E020E40FB6F894A895809360000FBEBA
:1044C0002093600083B7817F846083BF83B781605E
:1044D00083BF7894889583B78E7F83BF0FB6F89497
:1044E000A8958091600088618093600010926000C0
:1044F0000FBE08950E942D070E949803089582E040
:1045000084BD93E095BD9AEF97BD80936E000895AA
:104510002FB7F8948091A4029091A502A091A602D1
:10452000B091A7022FBF0895A4E0B0E0EAE9F2E25B
:104530000C94632A8FB7F8942091A4023091A502BD
:104540004091A6025091A70229833A834B835C8352
:104550008FBF69817A818B819C812496E2E00C94E3
:104560007F2A9C014FB7F8948091A4029091A502F4
:10457000A091A602B091A7024FBF821B930B089592
:1045800078941F921FB61F9211248F939F93AF931D
:10459000BF938091A4029091A502A091A602B09130
:1045A000A7020196A11DB11D8093A4029093A502BC
:1045B000A093A602B093A702BF91AF919F918F9154
:1045C0001F901FBE1F90189587E797E790930108EB
:1045D0008093000888E19AE00FB6F894A89580933C
:1045E00060000FBE90936000FFCF88E19AE00FB6A5
:1045F000F894A895809360000FBE90936000FFCF61
:10460000809193020895282FCB01BA013091AC021A
:104610003430E1F42F702093E9002FEF3091E8005F
:1046200035FD07C035ED3A95F1F700002150211115
:10463000F5CF2091E80025FF09C040E050E00E943E
:104640004D258091E8008E778093E8000895BC01A5
:1046500043E050E084E00E9403230895BC0146E05B
:1046600050E084E00E9403230895BC0140E250E042
:1046700084E00E9403230895CF93DF93D82FC92F9E
:1046800048E050E0682F792F81E00E94032388E002
:10469000ED2FFC2FABE8B2E001900D928A95E1F787
:1046A000DF91CF910895792F603231F440E250E0EC
:1046B000682F82E00E94032308958091AB0281114C
:1046C00009C00E9424270E9481278091E200846013
:1046D0008093E20008951092AB0208950E94FF219A
:1046E00008956091A80281E0611101C080E00E94FC
:1046F000F62108959091AC0281E0943009F080E0B9
:104700006091A8020E94FC21089542E061EC81E0E2
:104710000E94A02642E261EC84E00E94A02642E2D0
:1047200061EC82E00E94A02642E260EC83E00E94FD
:10473000A0269091AC0281E0943009F080E0609175
:10474000A8020E94F02108958091AE02893089F17B
:1047500048F4823009F4A1C0833009F45BC0813091
:1047600041F008958A3009F488C08B3009F46DC097
:1047700008958091AD02813A09F04BC08091E80024
:10478000877F8093E8008091B1029091B202892BDB
:1047900061F060E080E090E070E00E94EB258091A5
:1047A000E8008B778093E800089568E08BE892E05A
:1047B000F3CF8091AD02813261F58091B102909189
:1047C000B2028D7F892B29F58091E800877F809345
:1047D000E8008091E80082FF18C09091F30080917A
:1047E000F200029731F48091F100813011F08630AF
:1047F00021F48091F100809393028091E8008B77FF
:104800008093E8000E94D42604C08091AC028111FC
:10481000E0CF08958091AD02813AD9F78091B1023D
:104820009091B202892BA9F78091E800877F80934D
:10483000E8008091E80080FFFCCF80911E0180930A
:10484000F1008091E8008E77DBCF8091AD0281325C
:1048500001F78091B1029091B202892BD1F680913B
:10486000E800877F8093E8000E94D4268091AF0201
:1048700080931E010E942D0708958091AD02813220
:1048800041F68091E800877F8093E8000E94D4265B
:104890008091B0028093940208958091AD02813A94
:1048A00009F0B7CF8091E800877F8093E80080917E
:1048B000E80080FFFCCF80919402C1CF84B7877F4E
:1048C00084BF0FB6F894A8958091600088618093AA
:1048D0006000109260000FBE80E890E00FB6F89480
:1048E00080936100909361000FBE0E94052208959D
:1048F0000E9424270E948127E2EEF0E080818460FC
:10490000808378940E94042A089584E191E00E94B3
:10491000412008958091AC02853031F48091AC0241
:10492000853019F00E947A2208950E944F228091CA
:10493000AA02882399F30E941222882379F30E9405
:1049400037250E942D07EACFA0E2B0E0EAEAF4E2C0
:104950000C94632A8091AC02843081F483E08093CC
:10496000E9008091E80082FF09C08091E80085FDA0
:1049700009C08091E8008B778093E800A096E2E080
:104980000C947F2A40E050E060E270E0CE01019696
:104990000E949C258091E8008B778093E80060E27C
:1049A000CE0101960E94051FE9CF9A014091B30202
:1049B0005091B4020E94DD240895AC01CB01D901CD
:1049C000252F33272330310521F168F421303105BB
:1049D00009F443C02230310509F444C080E090E07E
:1049E00020E030E024C02132310551F1223231057E
:1049F000A9F78330910590F7FC01EE0FFF1FEB55EF
:104A0000FE4F208131818E559E4FFC01808190E0C8
:104A10000EC0CA019927413069F08230910569F0D2
:104A2000EEECF2E0892BD1F6849190E09F012D937A
:104A30003C930895E4EAF2E0F7CFE4E9F2E0F4CF42
:104A40008330910558F6FC01EE0FFF1FE555FE4F30
:104A50002081318189E090E0EACF82E190E02DE28F
:104A600033E0E5CF8BE590E022ED32E0E0CF80E16E
:104A700089BD82E189BD09B400FEFDCF8091D800D7
:104A80008F7D8093D8008091E00082608093E00069
:104A90008091E00081FDFCCF0895AF92BF92CF924C
:104AA000DF92FF920F931F93CF93DF936C01EB0183
:104AB0008A010E94F326F82E811123C001151105E9
:104AC00039F0F80180819181C81BD90BC80ED91E1D
:104AD000A12CB12C2097A9F08091E80085FD22C07F
:104AE0008091E8008E778093E80001151105A1F010
:104AF000F801808191818A0D9B1D9183808385E0DF
:104B0000F82E8F2DDF91CF911F910F91FF90DF90A5
:104B1000CF90BF90AF9008950E94F3268823E1F2D2
:104B2000F82EEFCFF60181916F018093F10021976C
:104B3000FFEFAF1ABF0ACECFAF92BF92CF92DF92F4
:104B4000FF920F931F93CF93DF936C01EB018A01C8
:104B50000E94F326F82E811123C00115110539F0AA
:104B6000F80180819181C81BD90BC80ED91EA12CD8
:104B7000B12C2097A9F08091E80085FD22C080919A
:104B8000E8008B778093E80001151105A1F0F8018A
:104B9000808191818A0D9B1D9183808385E0F82E11
:104BA0008F2DDF91CF911F910F91FF90DF90CF90CC
:104BB000BF90AF9008950E94F3268823E1F2F82E6B
:104BC000EFCF8091F100F60181936F012197FFEF04
:104BD000AF1ABF0ACECFFC019B018091B302909126
:104BE000B4028617970718F0672B61F0C90140E0FF
:104BF000009771F441110CC08091E80082FF35C02C
:104C000080E008958091E8008E778093E800EECFF1
:104C10002091AC022223A9F12530A9F12091E800CE
:104C200023FD2DC02091E80022FDE6CF2091E80071
:104C300020FFDECF3091F3002091F200009719F0B1
:104C40002830310558F041E02830310509F040E0C6
:104C50002091E8002E772093E800CACF419140933D
:104C6000F10001972F5F3F4FE9CF8091AC0288237D
:104C700041F0853041F08091E80083FFBDCF81E0B5
:104C8000089582E0089583E00895FC019B018091DE
:104C9000B3029091B4028617970718F0672B61F062
:104CA000C90140E0009771F441110CC08091E80007
:104CB00082FF36C080E008958091E8008E7780936F
:104CC000E800EECF2091AC022223B1F12530B1F102
:104CD0002091E80023FD2EC02091E80022FDE6CFC0
:104CE0002091E80020FFDECF3091F3002091F20008
:104CF000009719F02830310558F041E0283031058F
:104D000009F040E02091E8002E772093E800CACF18
:104D100044914093F100319601972F5F3F4FE8CFC8
:104D20008091AC02882341F0853041F08091E80009
:104D300083FFBCCF81E0089582E0089583E0089569
:104D4000982F973028F08F708093E90081E00895C4
:104D50009093E900242F762F50E0981731F070914E
:104D6000EC002091ED005091F00021FD02C09F5F0A
:104D7000E8CF3091EB003E7F3093EB003091ED00B7
:104D80003D7F3093ED003091EB0031603093EB00CC
:104D90007093EC002093ED005093F0002091EE0012
:104DA00027FDE5CF80E008958091AD0287FF13C015
:104DB0008091E80082FF06C08091E8008B778093A5
:104DC000E80004C08091AC028111F2CF0895809177
:104DD000AC028823D9F38091E80080FFF8CF80915E
:104DE000E8008E77ECCF2091E4003091E50095E665
:104DF000A9018091EC008170882331F08091E80056
:104E000080FF06C080E008952091E80022FD1BC0CD
:104E10008091AC02882391F0853091F08091EB0075
:104E200085FD10C02091E4003091E5004217530742
:104E300001F391509111DCCF84E0089582E0089550
:104E400083E0089581E008950E9493270E949B27A4
:104E5000E0EEF0E0808181608083E8EDF0E0808129
:104E60008F77808319BCA7EDB0E08C918E7F8C93F7
:104E700080818F7E80831092AB0208950F931F93E1
:104E8000CF93DF930E9493270E949B27C8EDD0E029
:104E900088818F77888388818068888388818F7DE7
:104EA000888319BC1092AC021092A8021092AA0238
:104EB0001092A90200EE10E0F80180818B7F8083C0
:104EC00088818160888342E060E080E00E94A026C3
:104ED000E1EEF0E080818E7F8083E2EEF0E0808181
:104EE00081608083808188608083F80180818E7FEB
:104EF0008083888180618883DF91CF911F910F919A
:104F00000895E8EDF0E080818F7E8083E7EDF0E0AA
:104F100080818160808384E082BF81E08093AB02E6
:104F20000E943E270895E8EDF0E080818E7F808327
:104F30001092E20008951092DA001092E1000895B4
:104F40001F920F920FB60F9211242F933F934F93FE
:104F50005F936F937F938F939F93AF93BF93EF93E1
:104F6000FF938091E10082FF0BC08091E20082FFFD
:104F700007C08091E1008B7F8093E1000E94032AAB
:104F80008091DA0080FF19C08091D80080FF15C0A1
:104F90008091DA008E7F8093DA008091D90080FFC3
:104FA00094C080E189BD82E189BD09B400FEFDCFD6
:104FB00081E08093AC020E945D238091E10080FF3C
:104FC00019C08091E20080FF15C08091E2008E7FC1
:104FD0008093E2008091E20080618093E200809102
:104FE000D80080628093D80019BC85E08093AC0221
:104FF0000E9471238091E10084FF29C08091E2002A
:1050000084FF25C080E189BD82E189BD09B400FE2D
:10501000FDCF8091D8008F7D8093D8008091E100F2
:105020008F7E8093E1008091E2008F7E8093E2008A
:105030008091E20081608093E2008091A802882341
:1050400009F449C084E08093AC020E947A238091E5
:10505000E10083FF29C08091E20083FF25C0809199
:10506000E100877F8093E10082E08093AC021092A0
:10507000A8028091E1008E7F8093E1008091E200A0
:105080008E7F8093E2008091E20080618093E20055
:1050900042E060E080E00E94A0268091F0008860FD
:1050A0008093F0000E946E23FF91EF91BF91AF912A
:1050B0009F918F917F916F915F914F913F912F9130
:1050C0000F900FBE0F901F90189519BC1092AC0254
:1050D0000E946B2372CF8091E30087FF02C083E0C0
:1050E000B2CF81E0B0CF1F920F920FB60F92112472
:1050F000FF920F931F932F933F934F935F936F9361
:105100007F938F939F93AF93BF93CF93DF93EF934F
:10511000FF9309EE10E0F8018081C091EC00C79583
:10512000CC27C7958F70FC2EF82A1082C0EFD0E0F4
:105130008881877F888378940E94BC28F801108238
:10514000888188608883CF2DCF70C083FF91EF91D5
:10515000DF91CF91BF91AF919F918F917F916F918F
:105160005F914F913F912F911F910F91FF900F9061
:105170000FBE0F901F901895AAE2B0E0E2ECF8E2A3
:105180000C94622A8DEA92E0FC0101962091F100D4
:10519000208322E0853B9207B9F70E94A4238091E7
:1051A000E80083FF38C08091AD029091AE029A3042
:1051B00090F5E92FF0E0EF55F44D0C94462A803835
:1051C00089F0823841F58091B1028F70873018F5EF
:1051D0008093E9008091EB0085FB882780F910928D
:1051E000E90006C08091A9029091AA029111826003
:1051F0009091E800977F9093E8008093F1001092DF
:10520000F1008091E8008E7723C0811116C0809153
:10521000AF02813011F18091E80083FF0AC08091D4
:10522000E800877F8093E8008091EB0080628093A4
:10523000EB00AA96E3E00C947E2A823061F780911D
:10524000AF02882389F01092E9008091E800877FFF
:105250008093E8000E94D426DECF81E0933009F0ED
:1052600080E08093AA02EFCF8091B1028F702FEF80
:10527000280F263080F68093E9002091EB0020FF74
:10528000E2CF933031F48091EB0080628093EB00A9
:10529000DACF9091EB0090619093EB0021E030E049
:1052A000A90102C0440F551F8A95E2F74093EA0016
:1052B0001092EA008091EB008860E8CF8111ABCFBB
:1052C0001091AF021F778091E3008078812B80934B
:1052D000E3008091E800877F8093E8000E94D42655
:1052E0008091E80080FFFCCF8091E300806880938C
:1052F000E30083E0111101C082E08093AC028BCF08
:105300008058823008F087CF8091AF029091B00230
:105310008C3D53E0950799F583E08A838AE289837F
:105320004FB7F894DE01139620E03EE051E2E32F00
:10533000F0E050935700849120FF03C082958F7056
:105340003F5F8F708A30C8F0895C90E08D939D93A9
:105350002F5F243161F74FBF8091E800877F8093F2
:10536000E8006AE270E0CE0101960E94EB25809190
:10537000E8008B778093E8004ECF805DE6CF6091A8
:10538000B1027091B202AE014F5F5F4F0E94D5240F
:10539000BC01892B09F43FCF8091E800877F80937F
:1053A000E80089819A810E944526E1CF803809F082
:1053B00032CF8091E800877F8093E8008091A80237
:1053C0008093F1001ECF811126CF9091AF029230D1
:1053D00008F021CF8091E800877F8093E8009093C8
:1053E000A8020E94D4268091A802882331F084E08C
:1053F0008093AC020E9485230ECF8091E30087FD4D
:10540000F6CF81E0F5CF0895CF938091AC02882349
:1054100099F08091E900C091EC00C795CC27C79521
:105420008F70C82B1092E9008091E80083FD0E94E4
:10543000BC28CF70C093E900CF910895AA1BBB1B75
:1054400051E107C0AA1FBB1FA617B70710F0A61B84
:10545000B70B881F991F5A95A9F780959095BC01A5
:10546000CD01089597FB072E16F4009407D077FD21
:1054700009D00E941E2A07FC05D03EF49095819524
:105480009F4F0895709561957F4F0895EE0FFF1F10
:105490000590F491E02D09946927962769277827CC
:1054A0008727782708952F923F924F925F926F92AD
:1054B0007F928F929F92AF92BF92CF92DF92EF92A4
:1054C000FF920F931F93CF93DF93CDB7DEB7CA1B25
:1054D000DB0B0FB6F894DEBF0FBECDBF09942A8850
:1054E000398848885F846E847D848C849B84AA84F8
:1054F000B984C884DF80EE80FD800C811B81AA8185
:10550000B981CE0FD11D0FB6F894DEBF0FBECDBF4F
:10551000ED010895002E083090F0982F872F762FF8
:10552000652F542F432F322F22270850F4CF220FFC
:10553000331F441F551F661F771F881F991F0A9529
:10554000B2F7002D089597FD1094002E083098F0C2
:105550000850232F342F452F562F672F782F892F50
:10556000912DF4CF159497958795779567955795D5
:105570004795379527950A95AAF71124002D089588
:10558000FB01DC0104C08D910190801921F4415090
:105590005040C8F7881B990B0895FB01DC0102C03D
:1055A00001900D9241505040D8F70895F999FECFDF
:1055B00092BD81BDF89A992780B50895A6E1B0E023
:1055C00044E050E00C94202BA8E1B0E042E050E031
:1055D0000C94202BDC01A40FB51F4150504048F023
:1055E000CB01840F951F2E910E94FB2A4150504001
:1055F000D0F70895262FF999FECF92BD81BDF89A74
:10560000019700B4021639F01FBA20BD0FB6F89406
:10561000FA9AF99A0FBE08950396272F0E94FB2A43
:105620000E94FA2A252F0E94FB2A242F0C94FB2A81
:105630000196272F0E94FB2A0C94FA2ADC01CB0149
:10564000FC01F999FECF06C0F2BDE1BDF89A319692
:1056500000B40D9241505040B8F70895F894FFCF30
:105660001905190560056005CA05E70548054805DF
:10567000EC0559066A066A064E1555155C15611546
:1056800066156B15701575157A157F1584158915B6
:1056900050155015501550155015501550155015E2
:1056A000501517198B191F19E918ED182319F1183E
:1056B00027193319FD1884190119371905193B19D0
:1056C000631909193F196A190F1945194D19F51868
:1056D0002B19F9182F191319491959197319821906
:1056E000E3181B199219511A541A5A1A6F1A6F1A81
:1056F0006F1A6F1A6F1A6F1A6F1A6F1A5D1A621A81
:10570000661A6C1A7D1A831A871A891D8F1D791DD6
:10571000831D951D9B1DA11D1F1F2D1F6A1F861F09
:105720009A1FAE1FB11FB11FB11F381F381FB71FFF
:10573000BD1FC91FD81FEB1FEE1FF11F0420132030
:105740002B20DF2805290B2905290B295E29802913
:065750000B29D629E32914
:105756002E024E020001000101280850011E0A1403
:105766000103020100233C2335232E23272301E2D4
:1057760000E900EA00B500B600B700CD008301CC11
:10578600008A0192019401210223022402250226A5
:105796000227022A02B300B4006F0070009F01CBFB
:1057A600019F02A002E200E900EA00B500B600B7D8
:1057B60000CD008301CC008A0192019401210223CD
:1057C6000224022502260227022A02B300B4006F31
:1057D6000070009F01CB019F02A0026697C6343578
:1057E600000100FF0100010000FFFF0000010001B1
:1057F600FF004422B617043F036103E402FD021DC5
:0258060003009D
:00000001FF
