:100000000C942E020C944B020C944B020C944B0259
:100010000C944B020C944B020C944B020C944B022C
:100020000C944B020C944B020C940B280C94DE287D
:100030000C9473220C944B020C944B020C944B02C4
:100040000C944B020C944B020C944B020C944B02FC
:100050000C944B020C942B230C944B020C944B02EB
:100060000C944B020C944B020C944B020C944B02DC
:100070000C944B020C944B020C944B020C944B02CC
:100080000C944B020C944B020C944B020C944B02BC
:100090000C944B020C944B020C944B020C944B02AC
:1000A0000C944B020C944B020C944B02AA00A90036
:1000B0000100010001000100010001005F0060007B
:1000C00061002A000400010001000100010001009C
:1000D0000100010001000100010001000100010018
:1000E0000100010000010101010101010101020201
:1000F00002020202020202030303030303030304D6
:1001000004040404040405050505050606060606A0
:10011000070707070708080808090909090A0A0A5A
:100120000B0B0B0C0C0C0D0D0D0E0E0E0F0F0F10FC
:100130001011111112121313141415151616171786
:10014000181819191A1A1B1B1C1D1D1E1E1F2020F2
:10015000212222232424252626272829292A2B2C3C
:100160002D2D2E2F30313232333435363738393A5F
:100170003B3C3D3E3F404142434445464748494A57
:100180004C4D4E4F50515354555658595A5B5D5E25
:100190005F616264656668696B6C6D6F70727375C0
:1001A00077787A7B7D7E8082838587888A8C8E8F24
:1001B00091939596989A9C9EA0A2A3A5A7A9ABAD52
:1001C000AFB1B3B5B7BABCBEC0C2C4C6C9CBCDCF40
:1001D000D1D4D6D8DBDDDFE2E4E7E9EBEEF0F3F5EE
:1001E000F8FAFDFF00000000000000002A2B2800A4
:1001F00000000000000000000000000000000029D6
:10020000000000002C1E3420212224342627252E15
:10021000362D3738271E1F2021222324252633334D
:10022000362E37381F0405060708090A0B0C0D0E79
:100230000F101112131415161718191A1B1C1D2F45
:100240003130232D350405060708090A0B0C0D0E65
:100250000F101112131415161718191A1B1C1D2F25
:100260003130354C000000000000000000000000AC
:10027000000000000000000000000000000000007E
:1002800000000000000000007E0F00D4FFFFFFC749
:10029000000000780E037A0065006F0070006100B6
:1002A00064000000280370006F0073006900740090
:1002B00072006F006E005F0065006C0065006300F7
:1002C000740072006F006E00690063000000040398
:1002D000090409025B00030100A0FA0904000001FF
:1002E00003010100092111010001224400070581D9
:1002F00003080001090401000203000000092111A4
:1003000001000122220007058203200001070503E6
:10031000032000010904020001030000000921116B
:1003200001000122B600070584032000011201002C
:10033000020000000810D0010400010102000106C3
:1003400060FF0961A1010962150026FF0095207573
:100350000881020963150026FF00952075089102A7
:10036000C005010902A10185020901A100050919C1
:10037000012908150025019508750181020501096B
:100380003009311581257F950275088106093815D8
:1003900081257F950175088106050C0A38021581B3
:1003A000257F950175088106C0C005010980A1015E
:1003B000850319012AB700150126B70095017510AC
:1003C0008100C0050C0901A101850419012AA002C0
:1003D000150126A002950175108100C005010906CE
:1003E000A1018506050719E029E7150025019508F3
:1003F000750181020507190029EF1500250195F007
:1004000075018102050819012905950575019102FB
:10041000950175039101C005010906A101050719A0
:10042000E029E71500250195087501810295017500
:100430000881010507190029FF150026FF00950610
:100440007508810005081901290515002501950584
:1004500075019102950175039101C00011241FBE21
:10046000CFEFDAE0DEBFCDBF11E0A0E0B1E0E4EB1A
:10047000F7E502C005900D92A43CB107D9F722E040
:10048000A4ECB1E001C01D92AF3CB207E1F70E94BD
:10049000B7110C945D2B0C94000055985D98209832
:1004A00028980E94BB100895CF93C82F0E94A303E1
:1004B00044E16FEF823059F0833061F0813069F4AC
:1004C00084EB90E00E94A9148C2FCF91089583E2D1
:1004D00090E0F8CF84E690E0F5CF8FEF90E00E94B7
:1004E000AD14F2CF843090F4611110C0453070F437
:1004F000E42FF0E095E0899FE00DF11D1124EE0F4F
:10050000FF1FE454FF4F85919491089581E090E09E
:100510000895843088F461110FC0E82FF0E0EE0FE9
:10052000FF1F81E04827E40FF11DEE0FFF1FE45588
:10053000FF4F85919491089581E090E0089581E0C6
:1005400008950E949F02089581E008950E949F02ED
:1005500008950E94A602089508950E94AC0208958D
:10056000A6E0B0E0E6EBF2E00C94CD2A49835A8392
:100570009E833091CB0189819A8131111AC03E81CD
:10058000332399F0222389F00E946608182F682FE0
:1005900089819A810E943C0869817A81812F0E9419
:1005A000730F2696E3E00C94E92A0E945108182F55
:1005B000F3CF0E94660869817A81F1CFFC01262F72
:1005C0004081518162817381848195810E94B00252
:1005D0000895CF93DF93D82FC92F61E00E94DE02E8
:1005E0006D2F7C2F0E94A102DF91CF910895CF93B0
:1005F000DF93D82FC92F60E00E94DE026D2F7C2F81
:100600000E94AD02DF91CF91089581E008950E948C
:1006100005030895CF93C82F0E9433078C2F0E94A3
:1006200007032FEF84E39CE0215080409040E1F7E6
:1006300000C00000CF91089581E00E940A030E944B
:100640004F23089580E00E940A030E9460230895CA
:100650000F931F93CF93DF938C0161E00E94DE0222
:10066000EC01B8010E94B11E882309F449C0B80109
:10067000CE010E94A902882309F442C0B801CE012C
:100680000E94BD1D8823E1F1B801CE010E940F191F
:100690008823B1F1B801CE010E94E418882381F1CA
:1006A000B801CE010E948815882351F1B801CE010E
:1006B0000E94FE1D882321F1F8018581882381F0A5
:1006C000CA35FCE7DF0739F178F4C130ECE7DE0723
:1006D000F9F0C330FCE7DF07C9F0C115DC4771F062
:1006E000C8010E94A4020DC0CB35ECE7DE07B1F0D3
:1006F000CC35DC47A9F70E94B80CF2CF0E941C034E
:1007000080E0DF91CF911F910F9108950E94CA0C54
:100710000E942203F5CF0E94C20CE2CF0E94C60CB9
:10072000DFCF0E9455220E946E130E94D20381E007
:100730000E94001408950E94D60380E00E940014D5
:100740000E945A220895982F82958F70882311F065
:10075000982F84E0292F26952695222311F08E5F6D
:10076000922F969591118F5F0895089581E00895D5
:100770000895CF93DF93D82F0E94B603C82F882304
:1007800019F08D2F0E94B8038C2FDF91CF9108951F
:100790000895CF93C82F0E94B5038C2F0E94B903F0
:1007A000CF91089580E00E94C90308950E9491208E
:1007B0000E94C9030895CF930E949120C82F809171
:1007C000C6018C1779F0C093C6010E94DF226093A6
:1007D000C7017093C8018093C9019093CA018C2FFF
:1007E0000E94C903CF910895ADE0B0E0EAEFF3E0D5
:1007F0000C94CE2A488759876A877B878C879D8788
:1008000091110E94C30B1F8286E0FE013896DE0123
:10081000119601900D928A95E1F78D8181110DC09D
:1008200029813A814B815C816D817E818F810E941B
:10083000090B2D96E2E00C94EA2ACE0101960E9463
:10084000E9028111EDCFF5CFFC018481813021F4E3
:10085000808191810E948F080895662329F00E946B
:100860007D1A0E94531B08950E94DB1AFACFCF9382
:10087000C82F882399F08CEF8C0F813A88F48C2F45
:100880000E943421882329F08C2F0E94D9210E94B4
:100890005B0C8C2F0E94C2210E945B0CCF910895AB
:1008A00080E28C0F883048F4C77081E001C0880F67
:1008B000CA95EAF70E94A40BEFCF8BE58C0F83302B
:1008C00038F42C2F2452330BC9010E94C720E6CFE5
:1008D000E8E5EC0FEB3150F4F0E0EE0FFF1FE55DC3
:1008E000FE4F808191810E94ED20D8CF83E38C0F51
:1008F0008331A0F661E08C2F0E942D04CFCF882396
:1009000081F19CEF980F913A28F40E94D9210E941E
:100910005B0C089590E2980F983050F4877091E046
:1009200001C0990F8A95EAF7892F0E94AA0BEFCF91
:100930009BE5980F933028F480E090E00E94C72058
:10094000089598E5980F9B3128F480E090E00E948C
:10095000ED20089593E3980F933118F460E00E941E
:100960002D0408951F93CF93DF93182FEB010E945E
:100970003704209739F4812F0E947F04DF91CF91B3
:100980001F9108958FE99FE00197F1F700C00000E3
:100990002197EFCF6AE070E0893311F460E570E0F1
:1009A0000E94B2040895882321F00E94A40B0E94A3
:1009B0005B0C0895882321F00E94AA0B0E945B0C17
:1009C0000895A0E0B0E0E7EEF4E00C94C82A6C01D2
:1009D000D62FC72FFC011581068102950F700E944A
:1009E000990BE82E8823F9F0E12E1123E1F08C2FEA
:1009F000807F803461F080E28D0F8830F0F08C2FA2
:100A0000807E803221F4D230C0F00023B1F080919A
:100A1000AC0282FF12C082E00E948B0C0E94990BF4
:100A200091E0E82EE926EC2FE295EF70C03CB0F59E
:100A3000F0E0E15AF44D0C94B12AE12CF4CF0C2FE4
:100A40000F70C03110F00295007F112399F0002340
:100A500059F080E28D0F883010F0D11107C0802F3F
:100A60000E94A40B0E945B0C8D2F51C0802F0E940E
:100A7000B50BF8CF8D2F0E947F04002379F080E220
:100A80008D0F883010F0D11104C0802F0E94AA0B66
:100A900003C0802F0E94BB0B0E945B0CEE2089F0EC
:100AA0000E94950B80FD0DC0F60115820E948F0BF0
:100AB0000E94AA07C6010E94FA060E948F0B0E949C
:100AC000B607CDB7DEB7E8E00C94E42AFC2FFF7040
:100AD000FF2EC07FC03219F0F29480EFF822DD23A0
:100AE00041F0D130D1F1112309F444C00023F1F0D9
:100AF000BBCF8091AC0282FD15C0112359F0FF20BD
:100B000029F08F2D0E94A40B0E945B0C80E00E94B4
:100B10003704C4CF80E00E947F04FF2009F4BECFD9
:100B20008F2DB4CF112369F0011104C08F2D0E94C5
:100B3000D304B4CF013009F0B1CF8F2D0E94DB0B6D
:100B4000ADCF0111ABCF8F2D0E94DA048F2D0E9403
:100B5000E70B8F2D0E94CA0BA1CF112321F0063085
:100B600008F09CCFE3CF053008F098CF8F2D0E947E
:100B7000DA0494CF0023D1F3D93369F42FEF87EE51
:100B800093E0215080409040E1F700C000008D2F9D
:100B90000E947F0483CFEFE3FCE93197F1F7F5CFB3
:100BA0008C2F869586958370882369F0813009F0B3
:100BB00075CF8D2F9C2F9370111102C080E090E0B3
:100BC0000E94ED206BCF8D2F9C2F9370111102C0CE
:100BD00080E090E00E94C72061CF612F8D2F0E949E
:100BE0002D045CCF8C2F8370811134C0111124C06F
:100BF0004D2F429546954770440F440F8D2F8F70AF
:100C0000042E01C0880F0A94EAF7D071DD2341F069
:100C10002FE030E001C0220F4A95EAF7D22FD0959D
:100C2000C695C695C3708D2BC23071F0C33079F074
:100C3000C13039F00E9489070E9491200E94C903A7
:100C40002DCF0E948307F8CF0E948F07F5CF0E9417
:100C50008007F2CF112339F1C0FFEECF4D2F42951F
:100C600046954770440F440F8D2F8F70042E01C09E
:100C7000880F0A94EAF7D071DD2341F02FE030E0CD
:100C800001C0220F4A95EAF7D22FD095C695C69596
:100C9000C3708D2BC23069F0C33071F0C13031F0B8
:100CA0000E94D807C9CF823038F2D8CF0E94D2072D
:100CB000C3CF0E94DE07C0CF0E949807BDCFCF7080
:100CC000112339F08C2F0E94AA078D2F0E94D30484
:100CD000B3CF8D2F0E94DA048C2F0E94B607ACCFC1
:100CE000D23F31F170F4D03FB9F0D13FB1F11123CF
:100CF00009F451C0002309F44BC08D2F0E94370422
:100D00009BCFD33FE1F0D43F21F11111F3CF01117B
:100D100054C08C2F8F71E1CF112341F0053008F0C2
:100D20008BCF8C2F8F710E94C60786CF0530F7CFEF
:100D30008C2F8F711111D1CF0E94AA077DCF112363
:100D400029F08C2F8F710E94A10776CF0E949D07FA
:100D500073CF8091AC0282FD06C08C2F8F7111235E
:100D600009F4BBCFE9CF112349F0CF718C2F0E943A
:100D7000AA0763E08C2F0E946D0C5ECF81E00E9479
:100D80008B0C023008F458CF82E00E948B0C54CFB9
:100D90008C2F8F71D1CF002309F4BBCFD93369F4E5
:100DA000FFEF27EE83E0F15020408040E1F700C0E4
:100DB00000008D2F0E947F043FCFEFE3FCE93197C5
:100DC000F1F7F5CF0F931F93CF93DF93EC01688179
:100DD00079818D810E949C088C010E94E4070E9409
:100DE0007F07B801CE010E94E104DF91CF911F91EE
:100DF0000F910895CF93DF93EC018C81882399F0B4
:100E0000CE010E942803811111C00E94990B8823F2
:100E100051F08D81882339F08091AC0282FF03C0AC
:100E200082E00E948B0CDF91CF910895CE010E9449
:100E3000E206CE010E94F702F6CF80E090E00E9429
:100E4000C72080E090E00E94ED200E94C30B0E942A
:100E50005B0C0E94701B0E94531B08950E94F0219E
:100E60000E941D0708950E94B20B0E942E0708954C
:100E7000282F92959F70963091F060F4925F9F704A
:100E8000923030F481E0203F79F030F4283E30F0A9
:100E900080E008959A5FF3CF243FD1F7089581E071
:100EA000283EE0F3213FF9CF0895FC018481882397
:100EB00039F0808191810E948F080E94380708953F
:100EC00080E00895A6E0B0E0E8E6F7E00C94CE2AD2
:100ED0002696E2E00C94EA2AA7E0B0E0E2E7F7E029
:100EE0000C94CE2A2796E2E00C94EA2A08950E94F8
:100EF000760708950E9477078093D3010895089597
:100F00000E947A0708959091D301892B0E947A0755
:100F100008959091D30189230E947A0708959091B2
:100F2000D30189270E947A0708950E9454020895E8
:100F30000E9495078093D201089580E00E9498074F
:100F4000089591E001C0990F8A95EAF7892F0E94D0
:100F50009807089521E030E001C0220F8A95EAF752
:100F60008091D201822B0E949807089521E030E001
:100F7000A90102C0440F551F8A95E2F7CA01809566
:100F80009091D20189230E949807089521E030E0D2
:100F900001C0220F8A95EAF78091D20182270E9430
:100FA000980708959091D201892B0E94980708957F
:100FB0009091D20189230E94980708959091D201BF
:100FC00089270E949807089508959B01677091E012
:100FD00001C0990F6A95EAF763E0369527956A95FF
:100FE000E1F7B901660F771F260F371FFA01E20FED
:100FF000F31F40E050E0682F70E08191DF0111970E
:101000009B01042E02C0369527950A94E2F72170C1
:1010100021952827292328272C934F5F5F4F4330A2
:10102000510559F708959C01A82FA77083E03695C4
:1010300027958A95E1F7C901880F991F820F931FA1
:10104000FB01E80FF91F40E050E080E0219130E023
:101050000A2E02C0369527950A94E2F721703327AD
:10106000042E01C0220F0A94EAF7822B4F5F5F4FD4
:101070004330510559F70895282F862F911107C045
:10108000622F70E04FEC51E0253040F008959C5FF6
:101090009230E0F7622F70E04CEC51E00E94E507DF
:1010A000F5CF282F892F911105C06FEC71E0253005
:1010B00030F008958C5F823038F46CEC71E0822F50
:1010C00090E00E941308089580E0F3CFA0E0B0E024
:1010D000ECE6F8E00C94C92A7C010091D2018091E1
:1010E000D301082BC3E0D0E010E0C8010C2E02C0F1
:1010F000959587950A94E2F780FD09C02197A8F796
:10110000D12C8D2DCDB7DEB7E7E00C94E52ADC2E8F
:10111000B7018C2F0E948C0F019781F3F2CFCF93F0
:10112000DF93D82FC92F0E9466086D2F7C2F0E9455
:101130008C0FDF91CF9108951F93CF93DF93162FDC
:10114000D72F9091CB01992341F0862F972F0E94A2
:101150008F08DF91CF911F910895882381F0862F0A
:10116000972F0E946608C82F682F812F9D2F0E94FD
:101170003C08612F7D2F8C2F0E948C0FEACF862F89
:10118000972F0E945108C82FF4CFE1E0F0E0DF0173
:1011900002C0AA0FBB1F6A95E2F7BD01DF0102C0C2
:1011A000AA0FBB1F4A95E2F76A2B01C0EE0F2A95E2
:1011B000EAF7962F9823961302C08E2B0895E09598
:1011C0008E230895242F462F682F8091D2010E94EC
:1011D000C5080E94980708950F931F93CF93E0913D
:1011E000D401C7E08091D5018E1304C0CF911F9127
:1011F0000F9108950E2F10E0CE9FF0011124EA52B6
:10120000FE4F2081318142815381648175818681C5
:101210000E946C07F8013196E770E4CF20910E022E
:1012200030910F0240911002509111026091120210
:1012300070911302809114020E946C0708958091AE
:101240001402803178F480911302882359F0E091E0
:10125000D4012091D50130910F0240910E0257E048
:101260002E1301C008956E2F70E05E9FF0011124CF
:10127000DF01AA52BE4F14968C911497882361F116
:1012800011968C911197831327C08C91841324C0DD
:1012900015968C91159781111FC012968D919C9176
:1012A000A0911002B09111028A1B9B0B883C910502
:1012B00098F4809114028F70806180931402E4523C
:1012C000FE4F80818F70806180838EE092E00E946B
:1012D000FA060E94EC080895FB013196E770C0CF32
:1012E000E091D4019091D50127E0E91302C080E09C
:1012F0000895AE2FB0E02E9FF0011124EA52FE4F68
:101300003181361306C03081381303C03581341360
:1013100004C0FD013196E770E8CF81E008958F9217
:101320009F92AF92BF92DF92EF92FF920F931F9323
:10133000CF93DF93CDB7DEB72D970FB6F894DEBF0E
:101340000FBECDBF8C0186E0F801DE01189601903A
:101350000D928A95E1F7F801E080F580A280B380D4
:1013600084819EE0892E92E0992E90911202911133
:101370001BC0882309F4FCC0FF2009F43DC1C8014B
:101380000E945507882309F437C187E0F801D4018A
:1013900001900D928A95E1F7C4010E9424040E94F5
:1013A0001F090E940E09E4C0D09013022091100280
:1013B00030911102A501421B530BDD2009F4DBC063
:1013C000483C510508F0A6C0882309F4D1C090918B
:1013D0000F02918080911402803108F06BC0991245
:1013E00028C090910E029E1124C0F1105DC08F7034
:1013F0008061809314020E940E098EE092E00E94A8
:10140000FA0680911402F8018683F12C8F2D2D9617
:101410000FB6F894DEBF0FBECDBFDF91CF911F9105
:101420000F91FF90EF90DF90BF90AF909F908F90C3
:101430000895F11039C040E0692D8E2D0E94700989
:1014400040E0692D8E2D0E947009F82E8111DDCFAC
:10145000888599850E948F08292F22952F709034B6
:1014600050F49F70223080F0992399F0F801968112
:10147000903178F4CBCF2A5F2F70223078F0C801FA
:101480000E94FA06FD2CC2CF992319F0882309F493
:10149000BDCF805E883008F4B9CFF1CF803F08F42B
:1014A000B5CF815F8230F7CF809114028160809345
:1014B0001402ABCF991207C090910E029E1103C087
:1014C000FF2009F479C0C8010E945507882309F458
:1014D00093C0FF2009F490C080911402803288F0FC
:1014E00020910E0230910F023A832983BC82AB8295
:1014F000909112029D831E828F83CE0101960E94DD
:10150000FA0687E0F801AEE0B2E001900D928A950C
:10151000E1F745CF909114029031A0F448855985A8
:101520006A857B858C859D850E9462078EE092E0AE
:101530000E94FA0687E0F40111928A95E9F70E9469
:101540000E0963CF8823A1F020910F028181281317
:10155000BACF80910E028E11B6CFF110B4CF968320
:10156000C8010E94FA0687E0F40111928A95E9F712
:10157000FF24F3944BCF483C510508F041C0882329
:10158000B9F3FF20C9F190910F02818198132AC00D
:1015900080910E028E1126C08091140280FD19C028
:1015A0008031B8F08683807F803F39F08681982F24
:1015B000907F905F8F70892B8683C8010E94FA0606
:1015C00087E0F801AEE0B2E001900D928A95E1F774
:1015D000E8CE87E0F801AEE0B2E001900D928A9586
:1015E000E1F7C6CFC8010E94550781118ACF8091CB
:1015F0001402816080931402C8010E94FA06B8CFD9
:10160000488559856A857B858C859D850E94620702
:1016100091CFAEE0B0E0EFE0FBE00C94CD2A28875C
:1016200039874A875B876C877D878E87CE010896CE
:101630000E948F098823B1F06C85662341F02885CC
:1016400039854A855B857D858E850E946C0717E00C
:101650008091D4019091D50189133EC02E96E3E08C
:101660000C94E92A87E0FE013896DE01119601907C
:101670000D928A95E1F72091D5014091D4018C8596
:10168000882329F330E0C90101968770992750E03B
:101690008417950799F097E0929FD001939FB00D22
:1016A0001124AA52BE4FFE01319601900D929A95D7
:1016B000E1F78093D5010E94EC08C9CF0E9433075F
:1016C0001092D5011092D40187E0EEE0F2E0DF0144
:1016D0001D928A95E9F7BBCF189FC00111248A5249
:1016E0009E4F0E948F09882309F4B8CFE091D4015E
:1016F0001E9FF0011124EA52FE4F20813181428168
:1017000053816481758186810E946C078091D40128
:1017100090E00196877099278093D40199CF8091AA
:101720003D02869586958695089580913D02877045
:10173000089590913D02977081E0911101C080E081
:10174000089580916902089590916902982B909371
:1017500069020895982F909580916902892380935A
:101760006902089510926902089590916802982B79
:10177000909368020895982F90958091680289232C
:1017800080936802089510926802089508950E9457
:10179000C60B089590913E02292F2823222331F071
:1017A0008095892380933E020E94C70B0895089577
:1017B0000E94D70B089590913F02292F28232817C4
:1017C00029F0982B90933F020E94D80B0895909196
:1017D0003F02292F2823222331F0809589238093EB
:1017E0003F020E94D80B089580913F02882329F080
:1017F00010923F0280E00E94D80B0895CF93DF93B0
:10180000C091690280916802C82BD0913F02DD230C
:1018100031F00E94132181110E94F40BCD2B8C2FEB
:10182000DF91CF910895CF93DF93C0910A01D091BA
:101830000B010E94FE0B8883C0910A01D0910B011D
:1018400048E050E065E372E0CE010E94F52A892B62
:1018500059F088E0FE01A5E3B2E001900D928A956F
:10186000E1F7CE010E949E20DF91CF910895CF93A2
:10187000DF93C0910801D09109010E94FE0B89837A
:10188000C0910801D091090140E250E065E172E0A9
:10189000CE010E94F52A892B59F080E2FE01A5E1D4
:1018A000B2E001900D928A95E1F7CE010E94A92045
:1018B000DF91CF91089580912701882339F080919D
:1018C000AB0287FF03C00E94370C08950E94130CDF
:1018D000089508950E94690C08959091AC0292FFBA
:1018E00011C098E0899F90011124622B60933D0202
:1018F0000E94AA0780913D028695869586950E9452
:101900006A0C08950E94AA07089510923D0280E093
:101910000E946A0C089590913D02809589238093DE
:101920003D02282F277021110DC0891759F0909181
:10193000AC0292FF07C08695869586950E94B607F1
:101940000E94850C08959091AC0292FB222720F909
:10195000281769F080FB92F99093AC028091AB025A
:101960009091AC020E94EC0C82E00E948B0C0895D6
:101970008091AC0282FB882780F991E089270E9440
:10198000A30C089581E00E94A30C089580E00E94BA
:10199000A30C08956FEF7FEF80E090E00E94572B3B
:1019A000089580E090E00E94232B863E9E4F19F41C
:1019B0000E94391E089580E0089582E090E00E9420
:1019C0001B2B089583E090E00E941B2B089584E078
:1019D00090E00E94232B0895BC0184E090E00E94D7
:1019E000572B0895AB01BC018FE090E00E944B2B78
:1019F0000895AB01BC0183E190E00E944B2B089558
:101A000060E070E0CB010E94F90C089560E070E0A6
:101A1000CB010E94F20C0E94000D0895A8E0B0E0F6
:101A2000E4E1FDE00C94CE2A66EE7EEF80E090E0EB
:101A30000E94572B60E082E090E00E94392B81E009
:101A40008093D30161E083E090E00E94392B60E055
:101A500074E184E090E00E94572B60E086E090E023
:101A60000E94392B6FEF87E090E00E94392B40E015
:101A700050E0BA0188E090E00E944B2B60E084E2E5
:101A800090E00E94392B60E087E190E00E94392BC2
:101A900060E08CE090E00E94392B60E08DE090E007
:101AA0000E94392B19821A821B821C821D821E827F
:101AB0001F82188648E050E068E170E0CE01019690
:101AC0000E94292B40E050E0BA0180E290E00E94A1
:101AD0004B2B80E00E94521E0E94911E0E94060D18
:101AE0002896E2E00C94EA2A0E940E0D0895682FD1
:101AF0008EE090E00E94392B0895A6E0B0E0E3E884
:101B0000FDE00C94CC2A0E94D3228C0180916A02C1
:101B100090916B028017910779F019821A820E94C6
:101B2000D322BC0149815A8180E090E00E94F403F5
:101B300010936B0200936A022696E4E00C94E82A64
:101B40000E94DF2260937502709376028093770281
:101B50009093780260937102709372028093730283
:101B60009093740208950E94DF226093750270932F
:101B70007602809377029093780260936D0270935F
:101B80006E0280936F0290937002089508950895F5
:101B90000E94C60D089508950E94CB0D089584E813
:101BA00090E10E94C4110E94C70D0E94C80D0895C3
:101BB00081E008950E94D80D08950E94D80D0895DF
:101BC000089508950E94E00D0E94E10D08950E947D
:101BD000A0100E94C8030E94DF1308950E94CA2229
:101BE0000E94A11E0E94E6150E9438110E94E70D76
:101BF0000E94CC0D0895A6E0B0E0E1E0FEE00C9478
:101C0000C82A0E94DA0D811111C00E947D0D0E9428
:101C10006E130E94021681110E94B30D0E94911B47
:101C20000E94DB032696E8E00C94E42A0E9444110B
:101C300010916C0280E00E94C010181731F380915F
:101C4000790281FD0E94C6100E94DD0DD82E80E031
:101C50000E94C010182F90916C02891741F1E82E54
:101C6000E92600E0FF24F3948F2D8E218823C9F00C
:101C7000CC24C3948F2D8123811101C0C12CDD2080
:101C800059F009831A820E94D322BC0149815A81EA
:101C900081E09C2D0E94F4034C2D602F80E00E9477
:101CA000F2120F5FFF0C0530F9F610936C020E94E0
:101CB000A00DADCF1F93CF93DF930E94910FEC0146
:101CC000811522E5920708F053C0811540E594077D
:101CD00008F0DDC0803E9105F8F48D3C910508F0D8
:101CE000AEC0883A910580F4853A910508F099C014
:101CF0008130910521F00497813A910550F4CE018D
:101D0000DF91CF911F910895885A91094B9708F45C
:101D10008BC0C0E0D0E0F3CF811550E49507F8F414
:101D2000C11580E2D80708F0CBC0C83ED10538F312
:101D3000CE019A9581159F4160F78D2F0E94351035
:101D4000182FCE0199270E94910F212F30E0322FBA
:101D50002227E901CC27DF71C82BD92BD0CF9927B7
:101D60000E94910FCC27DF70C82BD92BD06AC7CF28
:101D7000803842E59407C8F5803652E5950708F0AB
:101D800067C0C03482E5D807B0F08C2F8695869561
:101D9000877020E2829FC0011124C37021E030E0EF
:101DA000A90102C0440F551FCA95E2F7EA01C82BEA
:101DB000D92BDC68A4CFC03252E5D50708F041C06A
:101DC0008C2F8695869520E2829FC0011124C370D6
:101DD00021E030E0A90102C0440F551FCA95E2F787
:101DE000EA01C82BD92BDD688ACF803C52E59507E4
:101DF00060F48F71C03AD24508F03FC090E0982F50
:101E00008827EC01C46FD06A7ACF805C92458097B6
:101E100008F07FCFDC2FCC27CC27DF71C06FD06AD2
:101E20006ECFA497D0646BCFC85AD0E0CC0FDD1F23
:101E3000CF59DE4F0990D881C02DD46460CFD065D2
:101E40005ECFCF71D0E0DC2FCC27C16FD06A57CFE7
:101E500086958695877020E2829FC0011124C37009
:101E600021E030E0A90102C0440F551FCA95E2F7F6
:101E7000EA01C82BD92BDA6842CF0E943510C82F4F
:101E8000D0E0DC2FCC27CC27DF71D06238CF8F7128
:101E90000E94351065E0D695C7956A95E1F7CF7039
:101EA000D0E0DC2FCC27282F30E084FF05C054E0A1
:101EB000220F331F5A95E1F7C22BD32BD0691FCFC6
:101EC0008D2F8F710E943510182FCE0199270E94F7
:101ED000910F212F30E0322F222722273F71282B0C
:101EE000392BE901D2CF462F711106C0653088F435
:101EF00060E00E94F81708957D3F39F4611109C030
:101F000041E060E00E94041808957C3F11F46623CC
:101F1000C1F380E090E008950E94730F0E945A0E72
:101F20000895803E9105D1F1C8F48133910509F4FB
:101F30007FC048F48932910509F46FC08A32910557
:101F400009F47DC0089589339105E1F08238910547
:101F5000C9F08533910509F45BC00895843E91056D
:101F6000D1F148F4823E910531F1833E910541F172
:101F700081EE90E00895863E9105C1F1873E91057E
:101F8000E1F108952091AB022370211165C02091E9
:101F9000AC0223FF14C089E290E008952091AB02C7
:101FA00020FD43C03091AC0230FF09C024FF4EC079
:101FB00080E090E008952091AB0222FDF7CF0895D4
:101FC0002091AB0222FD45C03091AC0230FD44C0EF
:101FD00024FFF5CFEDCF2091AC0221FFF0CF80910F
:101FE000AB0284FDE5CF87EE90E008952091AB022F
:101FF00023FFE5CF24FDDCCFF6CF2091AB0223FDFC
:102000002EC03091AC0231FFE3CF84EE90E0089512
:102010002091AB0225FFD3CFBECF2091AB0225FD8F
:1020200021C02091AC0223FFCACF89E390E008953C
:102030002091AB0226FFC3CF8AE290E00895209161
:10204000AB0226FFBCCF81E390E0089583EE90E0E1
:10205000089582EE90E0089580EE90E0089586EE77
:1020600090E0089585E390E0AACF9091AB0292FFB3
:1020700010C041E0282F2471243009F040E031E005
:10208000282F2871283009F030E0431711F02CE098
:10209000822793FF10C041E0282F2471243109F0DA
:1020A00040E031E0282F2871283109F030E0431753
:1020B00011F02CE082273091AC0230FF10C051E0CB
:1020C000282F2171213009F050E041E0282F28719C
:1020D000283009F040E0541711F029E0822731FF41
:1020E00010C041E0282F2171213109F040E031E09A
:1020F000282F2871283109F030E0431711F029E02A
:10210000822794FD877E089580E008950E94CA0C7E
:1021100008950E9444118FE39CE90197F1F700C0F4
:1021200000000E94441180E00E94C01080FF04C0A3
:102130000E9486100E944F2308950E9489100895DE
:102140000E94D10C811102C00E94740D0E94DD0C0E
:10215000809379020E94E70C9093AC028093AB02CB
:102160000E949D100E94E20C0E9480078091D20183
:102170000E9495070895089508950E94BC1008953F
:10218000E82FF0E0E255FD4F80810895089580EA40
:102190008A95F1F7089500C008950E94C710089528
:1021A000F894E82FE295EF70F0E041A18F7021E004
:1021B00030E0B90102C0660F771F8A95E2F7CB01C4
:1021C000962F9095942391A392A1892B82A3789422
:1021D0000895CF93DF9384EF0E94D010C7E9D1E038
:1021E00089918F3F11F00E94D01081E0CC39D8073F
:1021F000B9F7DF91CF9108950F931F93CF93DF939A
:10220000EC01062FF894849A8C9878940E94CB1055
:10221000A7E9B1E081E010E09D919F3F81F0E92FB7
:10222000E295EF70E05EF0E0208130E09F7002C048
:10223000359527959A95E2F72170982F211190E016
:10224000192B880F91E0AC39B90731F784EF0E9460
:10225000D01061E0111101C060E0802F0E94CD100C
:10226000C00FD11D1883DF91CF911F910F91089559
:102270000E94E9101092AE021092AD0281E00E941D
:1022800069110E944D020895A1E0B0E0EAE4F1E195
:102290000C94CD2A198260E0CE0101960E94FC10B8
:1022A0009091AD02898121E0981310C020E041E0B7
:1022B0006EEA72E08DEA92E00E946A11182F0E9485
:1022C000BD10812F2196E3E00C94E92A8093AD02A2
:1022D000EECF0895A0E0B0E0E0E7F1E10C94C82A69
:1022E000D82EE92EF62ED72F042FC22F222379F0D5
:1022F00081E080937C020E94D32290937B028093A2
:102300007A0280E0CDB7DEB7E8E00C94E42AC09012
:102310007C02CC20B1F380917A0290917B020E94E2
:10232000FC22059770F310E0A8016D2D7E2D8F2DF6
:102330009D2F0E94F52A892B41F0A8016D2D7E2D3D
:102340008F2D9D2F0E94022BCC2D10927C028C2F62
:10235000D9CF0E94E3240E94EE0D0E94F02408953C
:102360000E94F5240E94FB0D0E940F2508950E94F3
:102370006C220E94C9240E94CF0D0E94A9110E94C4
:10238000B0110E94E20DFBCF9093C5018093C40170
:102390000895A0E0B0E0EFECF1E10C94C62AE82F3C
:1023A00071110DC0442321F0F0E0EC51FF4F8491F6
:1023B000682F782FCDB7DEB7EAE00C94E22A262FFB
:1023C00030E0C72FD0E0F0E0442321F0EC51FF4F84
:1023D000E491F0E086E0829F7001839FF00C11246D
:1023E0000FEF10E0C701B8010E94892AAB01220F4C
:1023F000331F65E5649FC001659F900D1124281B64
:10240000390BC22ECC0CC20EC8018C1B9D0B8E9FAB
:1024100090018F9F300D9E9F300D1124832FCC9EF5
:10242000B001CD9E700D1124672F77275801A61A91
:10243000B70AAE9ED001AF9EB00DBE9EB00D112466
:102440007B2F5801AC18B1086501CC9E5001CD9E80
:10245000B00CDC9EB00C1124AB2CBB240A191B0958
:102460000E9FE0010F9FD00D1E9FD00D11246E2FE7
:1024700043305105C9F09CEFE91693E0F90650F49A
:102480004130510509F496CF4230510589F07E2F35
:102490006D2F90CF4430510571F046305105B9F39E
:1024A000632F8B2F7E2F86CF6B2F732F8E2F82CF94
:1024B000732F8D2F7FCF7D2F632FF8CF41E00E94A8
:1024C000C911089590917D02982B90937D020895F3
:1024D00048E050E068E170E08FEA92E00E94292B2A
:1024E00010927D0208950E945E1208950E94681263
:1024F0000895EFEAF2E085E08083809128019091D1
:102500002901A0912A0181839283A3838FE7848389
:102510008FEF85830E9468120895E091A201F091E7
:10252000A30109950895E0919E01F0919F010995FD
:102530000895CF93DF93EC016091B0027091B102E6
:102540008091B2020E947312462F672F282F80912C
:10255000070199818923882321F080E090E00E947F
:10256000931280E0DF91CF910895A0E0B0E0EBEB13
:10257000F2E10C94C82A7C01C091B002C090B10273
:10258000D090B2026C2F7C2D8D2D0E947312162FCD
:10259000D72F082F8091B3026C2F680F7C2D8D2DC3
:1025A0000E947312462F672F282F90910701F70181
:1025B00081818923882331F090FF0AC080E090E078
:1025C0000E94931280E0CDB7DEB7E8E00C94E42AD5
:1025D000202F412F6D2FF2CFE091A001F091A101AA
:1025E000099508950E94D80D0895CF93C82F809122
:1025F00010018C1339C02091AF02237030E040915C
:10260000110150E081E02417350709F480E0817062
:1026100080930F018091B40290910E01981739F0C8
:1026200080930E0140E060E080E00E94EC12C13037
:10263000E9F0C23079F1C11132C080910F018823D5
:10264000B9F140E060E080E00E94EC1280910D0161
:102650008F5F80930D0182E080930C0180910F01C8
:10266000882359F1CF91089581E0D1CF8DE091E099
:102670000E94991290910D019F5F90930D0181111D
:10268000F1CF82E080930C0180910F018111EACF9C
:10269000CC23E7CF8DE091E00E94B512EBCF809183
:1026A0000D018F5F80930D0182E080930C01DACFE2
:1026B00080910D018F5F80930D0183E0F6CF81E063
:1026C00008950E945F13089581E008950E946413A5
:1026D000089561E080E00E9466130895A4E0B0E0F0
:1026E000E4E7F3E10C94CE2A0E94DF2260937E029D
:1026F00070937F02809380029093810220918202E6
:1027000021111FC02091AF02322F33703983332340
:1027100019F026952695298320910C01223051F13C
:1027200090F4211116C010920D016093B7027093BE
:10273000B8028093B9029093BA0281E080930C01B1
:1027400004C01982E9CF233009F12496E2E00C9409
:10275000EA2A89810E94F51289818823B1F3809148
:102760000C01823011F40E9461138DE091E00E940F
:102770006913EBCF9981909310018091AF02837020
:10278000809311010E948D1283E0D8CF80917D0249
:1027900081110E9468128091B7029091B802A091B5
:1027A000B902B091BA02BC01CD010E940B23603185
:1027B00071058105910548F210920C01C6CFE09198
:1027C0009C01F0919D0109950E94D10C811104C0DA
:1027D0000E94740D0E94791281E080937D0248E08E
:1027E00050E068E170E08FEA92E00E940B2B1092BB
:1027F0007D028091AF02843010F40E947912089516
:10280000CF93C82F882391F08091820281110EC04E
:102810000E94F512109210018091AF028370809394
:1028200011010E948D1283E080930C01C0938202FB
:10283000CF910895EFEAF2E0908121E09227908312
:1028400010920C010E946212089580E00E941A14F6
:10285000089581E00E941A1408958091AF02837058
:10286000811102C010920C018091AF028C7F8160B7
:102870008093AF0208958091AF028370811110920E
:102880000C018091AF028C7F8093AF0208958091FC
:10289000AF0283700895982F862F2091AF02237086
:1028A000222389F0992381F0933080F49F73990F4C
:1028B000990F2091AF022370922B9093AF02109248
:1028C0000C010E946212089591E0F1CF92E0EFCFE7
:1028D00060E00E944B14089561E00E944B1408953B
:1028E0008091AF02869586950895682F8091AF02FA
:1028F000869586958F5F833008F081E00E944B14A7
:10290000089581E00E9475140895682F9091AF0298
:10291000969596958FEF890F913009F482E00E9489
:102920004B14089581E00E9485140895982F822FFA
:102930002091AF022370222359F09093B00260934C
:10294000B1024C3408F04BE44093B2020E94621290
:10295000089520E00E949614089521E00E949614A4
:1029600008958091B00208958091B10208958091F8
:10297000B2020895282FEFEAF2E09181892F90E0CA
:102980004381628108960E949614089581E00E9416
:10299000BA140895282FEFEAF2E081814381628121
:1029A0008850990B0E949614089581E00E94CA14E1
:1029B0000895282FEFEAF2E0628130E1630F08F416
:1029C0006FEF8181438190E00E949614089581E029
:1029D0000E94D9140895282FEFEAF2E0628130E1D5
:1029E000631B08F460E08181438190E00E949614AB
:1029F000089581E00E94EB140895282FEFEAF2E099
:102A0000438130E1430F08F44FEF8181628190E010
:102A10000E949614089581E00E94FD140895282FC5
:102A2000EFEAF2E0438130E1431B08F440E08181AA
:102A3000628190E00E949614089581E00E940F1533
:102A400008958093B30280E00E94621208958091FD
:102A5000B3020895EFEAF2E0248130E1230F08F495
:102A60002FEF24830E946212089581E00E942A15AC
:102A70000895EFEAF2E0248130E1231B08F420E01E
:102A800024830E946212089581E00E9439150895FE
:102A9000109283020895CF93DF93DC01FC01EE0FC7
:102AA000FF1FEF01CA0FDB1FC554DD4F898186135D
:102AB00006C08881841303C08A81821751F081E0A7
:102AC00080938302EA0FFB1FE554FD4F618340832F
:102AD0002283DF91CF910895242F462F682F80E025
:102AE00090E00E944B15089580918302882341F065
:102AF00061E070E08BEB92E00E94B81610928302C6
:102B00000895FA01882311F009950895FB01FCCF7F
:102B10001F93CF93DF93EC01FB01158111114DC081
:102B20000E94A10B8272FE01E052F847E531F105E7
:102B300008F043C0E559F44D0C94B12A0E942914C1
:102B4000812FDF91CF911F91089542E954E161E80F
:102B500074E10E948115F4CF41E854E162E974E127
:102B6000F8CF45ED54E166EC74E1F3CF46EC54E167
:102B700065ED74E1EECF49EF54E167EE74E1E9CF22
:102B800047EE54E169EF74E1E4CF4DE155E16BE0CC
:102B900075E1DFCF4BE055E16DE175E1DACF44E45B
:102BA00055E165E375E1D5CF45E355E164E475E1B1
:102BB000D0CF81E00E946C14C3CF11E0C1CF8FE869
:102BC00091E00197F1F700C00000089581E0809343
:102BD00085025098589A5198599A0E94DF15209171
:102BE000850247E852E0FA018E2F841B821708F015
:102BF000089599B189B186958170880F9170892B5C
:102C00008193F2CFA8E1B0E0E8E0F6E10C94C12AAC
:102C100010E000E084E0A82EB12C9DEF992E22E078
:102C2000822E772473943CEF632E43E0542E8091E0
:102C30008502181728F0802F6896EFE00C94DD2AA3
:102C4000E12EF12C99B189B186958170880F917030
:102C5000892BD701A957BD4FEC919E2F93709817E0
:102C600009F484C0EE0FEE0FE82BEC93EF70F0E068
:102C7000EC55FE4FC7018A579D4F6C018081F601CC
:102C80009081890F808320E084308CF1F701EC572C
:102C9000FD4F80818F5F80831D876E860E94D322C7
:102CA000BC018F87988B598A7A8A4D855E8583E02F
:102CB00091E00E94F4038FE39CE90197F1F700C0D3
:102CC00000001B8B6C8A0E94D322BC018D8B9E8BD3
:102CD0005F8A188E4B895C8983E090E00E94F40340
:102CE000EFE3FCE93197F1F700C0000021E0F601C5
:102CF00080818D3F8CF5F701EC57FD4F808181502D
:102D0000808319839A820E94D322BC018B839C8387
:102D10008D827E8249815A8182E091E00E94F40393
:102D20008FE39CE90197F1F700C000001F839886AC
:102D30000E94D322BC0189879A878B861C864F818B
:102D4000588582E090E00E94F403EFE3FCE93197BC
:102D5000F1F700C0000021E0F6018081082E000C90
:102D6000990BB5010E949D2A8083022B1F5F5FCFC4
:102D70009C01AB01539A6BB1677F7BB17860EFB771
:102D8000F894CA01880F991F840F951F820F931F13
:102D90008217930741F4EFBF8FE594E00197F1F7B5
:102DA00000C000000895D9014D919D0158E07BB904
:102DB000000000C047FF6BB9440F000000C000C016
:102DC00000C06BB900C05A9591F7E2CF84E0089536
:102DD0000F931F93CF93DF93843008F561111FC0C9
:102DE0004530E8F4C42FD0E0CC0FDD1F2AE0829FED
:102DF000C00DD11D1124CE0189960E941B2B082FD6
:102E000010E0102F0027CE018A960E941B2B9801FC
:102E1000282BC901DF91CF911F910F91089580E078
:102E200090E0F8CF1F93CF93DF93962F122F632F4D
:102E30008430B0F4911114C0453090F4C42FD0E028
:102E4000CC0FDD1F9AE0899FC00DD11D1124CE014A
:102E500089960E94392B612FCE018A960E94392BC8
:102E6000DF91CF911F9108950F931F93CF93DF931D
:102E7000843048F5611127C024E0829F800111242D
:102E80000F5A1F4FC8014423A1F00E941B2BC82FCB
:102E9000D0E0DC2FCC2781E090E0800F911F0E94D2
:102EA0001B2B9E01282BC901DF91CF911F910F9100
:102EB000089502960E941B2BC82FD0E0DC2FCC2750
:102EC00083E090E0EACF80E090E0EECF1F93CF93D5
:102ED000DF93962F122F632F8430A0F4911112C02C
:102EE00094E0899FE0011124CF5ADF4FCE014423A3
:102EF00069F00E94392B81E090E0612F8C0F9D1FBB
:102F00000E94392BDF91CF911F91089502960E9464
:102F1000392B83E090E0F1CFCF93DF93C0E0D0E096
:102F20004D2F60E08C2F0E9472029C014D2F60E0BB
:102F30008C2F0E941217DF5FD53091F741E060E0DF
:102F40008C2F0E9489029C0141E060E08C2F0E943E
:102F5000661740E060E08C2F0E9489029C0140E0EF
:102F600060E08C2F0E946617CF5FC430C1F6DF91FE
:102F7000CF910895EF92FF920F931F93CF93DF931A
:102F80008C01EA017A01E60EF71ECE15DF0529F461
:102F9000CDB7DEB7E6E00C94E62A80E008321105F2
:102FA00020F4C80189960E941B2B89930F5F1F4F45
:102FB000ECCFEF92FF920F931F93CF93DF938C018F
:102FC000EA017A01E60EF71ECE15DF0529F4CDB72A
:102FD000DEB7E6E00C94E62A0832110528F4688191
:102FE000C80189960E94392B21960F5F1F4FECCFA5
:102FF000843038F4611105C0453018F40E94E81699
:10300000089580E090E00895843028F4611103C0B1
:103010000E943417089580E090E0089580E10895BB
:103020008FE993E00895EF92FF920F931F93CF9350
:10303000DF938C01EA017A01E60EF71ECE15DF055B
:1030400029F4CDB7DEB7E6E00C94E62A0F3983E029
:10305000180748F4C8018F599F4F0E941B2B899372
:103060000F5F1F4FEBCF80E0FACFEF92FF920F93ED
:103070001F93CF93DF938C01EA017A01E60EF71ECE
:10308000CE15DF0529F4CDB7DEB7E6E00C94E62ACD
:103090000F3983E0180730F46881C8018F599F4FBA
:1030A0000E94392B21960F5F1F4FEACFCF93DF93FA
:1030B000C1E6D0E060E0CE010E94392B2196C11517
:1030C00084E0D807B9F7DF91CF910895A8E0B0E088
:1030D000ECE6F8E10C94C82AF82E2FE0281708F443
:1030E0006FC08FEF93E00E941B2B811169C001E636
:1030F00010E0F11038C01A821982FE01339686E082
:10310000DF011D928A95E9F76801BFEFCB1ADB0A50
:10311000C8010E941B2B89831A82882309F450C09E
:103120008130D1F4780122E0E20EF11CC6010E9448
:103130001B2B8A83882309F443C09FEF980F933099
:10314000F8F4680183E0C80ED11CC7010E941B2B54
:103150008B838823A9F11C826AE0CE0101960E942C
:10316000E71C8601D1CF011584E0180749F1C80199
:103170000E941B2B0F5F1F4F8111F5CFFA94B9CF1F
:103180008430B9F402E010E0C701AFEFEA1AFA0A9E
:103190000E941B2BE1E0F0E0EC0FFD1FE00FF11FA0
:1031A0008083882369F08C3731F4FE01E00FF11F32
:1031B00012826701D1CF0F5F1F4F0730110521F732
:1031C0002896E8E00C94E42ACF93DF93EB01863154
:1031D0009C4719F50E94A10B9D819923A1F08A7A41
:1031E00091E0811101C090E090938802882349F01A
:1031F00085E30E94C2210E945B0C80E0DF91CF91A9
:10320000089589E2F6CF80918802882321F085E332
:103210000E94D921F0CF89E2FBCF81E0EFCFCF939D
:10322000DF93EC01FB018581882309F4D2C09E0164
:1032300030572332310508F0B2C00E94E70C90935A
:10324000AC028093AB02FE01E150F047E232F1059F
:1032500020F4E058F44D0C94B12A8091AB028160C7
:103260008093AB0293C08091AC0288608093AC02E3
:103270008DC08091AB028260F3CF8091AB028460FD
:10328000EFCF8091AB028860EBCF8091AC02816080
:10329000EDCF8091AC028260E9CF8091AB0280617A
:1032A000DFCF8091AB028062DBCF8091AB02806484
:1032B000D7CF0E9433078091AB028068D1CF809135
:1032C000AB028C60CDCF8091AC028360CFCF809178
:1032D000AB028E7FC5CF8091AC02877FC7CF809134
:1032E000AB028D7FBDCF8091AB028B7FB9CF809138
:1032F000AB02877FB5CF8091AC028E7FB7CF809134
:10330000AC028D7FB3CF8091AB028F7EA9CF80912D
:10331000AB028F7DA5CF8091AB028F7BA1CF0E94A6
:1033200033078091AB028F779BCF8091AB02837F75
:1033300097CF8091AC028C7F99CF8091AB0282FBBA
:10334000992790F921E0922790FB82F990FB83F96D
:1033500087CF8091AC02982F909591708E7F892BAA
:1033600090FB81F983CF9091AB02892F8F7B96FFE1
:10337000806476CF0E9433079091AB02892F97FB30
:1033800087F980586DCF81E00E94770D8091AB0264
:103390009091AC020E94EC0C0E94330780E0DF9118
:1033A000CF91089580E0F0CF9091AB02892F8F7E6E
:1033B00094FF806155CF9091AB02892F8E7F90FF53
:1033C00081604ECF9091AC02892F877F93FF8860F8
:1033D0004DCF81E0E4CF282F35EB2303C00111242A
:1033E00097FF04C080589109892F089580589F4FF6
:1033F000FBCF80918F0280FF0DC06091170170E0BC
:10340000660F771F60387105C0F561157105B9F158
:10341000862F089581FF07C06091170184E0689F9F
:10342000B0011124EFCF82FF04C06091170188E042
:10343000F6CF80918E028823E9F090911601609179
:10344000170170E0891730F093E0660F771F9A95A7
:10345000E1F7D8CF869F9001879F300D112483E03C
:10346000220F331F8A95E1F7692F70E0C9010E948E
:103470009D2AC8CF68E070E0CBCF8FE7089581E048
:10348000089580918F0280FF0CC06091130170E05D
:1034900075956795759567956115710561F1862F2D
:1034A000089581FF06C06091130170E075956795DE
:1034B000F3CF6091130170E082FD15C020918D0261
:1034C0002223B1F0909112016091130170E029174D
:1034D00050F4269FA001279F500D1124692F70E002
:1034E000CA010E949D2A60387105B0F28FE70895E5
:1034F00061E070E0D4CF81E0089590919202209134
:103500009302922B20919502922B20919402922B60
:10351000992331F098E090938E0291E090938D0280
:103520008D3C31F40E94F91981958093930208959E
:10353000E2E3E80FE231B0F5F0E0EE55F44D0C9423
:10354000B12A0E94F919F1CF0E94F919819580934F
:10355000920208950E94F919FACF0E94411A8093AD
:10356000940208950E94411A8195F9CF0E94411A50
:1035700081958093950208950E94411AFACF815D4A
:10358000990B21E030E001C0220F8A95EAF7809183
:103590009102822B80939102089580918F02816025
:1035A00080938F02089580918F028260F9CF80917D
:1035B0008F028460F5CF409192028D3C59F4809146
:1035C000930287FF0DC010929302442359F4109286
:1035D0008E0208C08E3C81F48091930218169CF3F1
:1035E000442381F08091940290919502892B81115E
:1035F00059C010928D0208958F3C41F447FFF0CFDF
:1036000010929202809193028823E0CF803D19F4BA
:103610001416B4F3E5CF90919402893D29F419165C
:10362000FCF610929402DCCF8A3D19F497FFD8CFB4
:10363000F8CF909195028B3D29F497FFD1CF10924E
:103640009502CECF8C3D19F41916CCF3C9CF9FE269
:10365000980F983090F4815D990B21E030E0B9012A
:1036600002C0660F771F8A95E2F7CB018095909193
:103670009102892380939102B3CF8D3D31F48091E3
:103680008F028E7F80938F02ABCF8E3D21F480918D
:103690008F028D7FF7CF8F3D09F0A2CF80918F02EF
:1036A0008B7FF0CF08950E94D32220919202309117
:1036B0009302232B222321F080938B0290938C0280
:1036C0002091940230919502232B222321F08093A4
:1036D000890290938A0280E992E00E94B8200895BE
:1036E00086E0E0E9F2E0DF011D928A95E9F71092A9
:1036F0008E0210928D0210928F020895FC01828139
:1037000081110DC0838181110AC08481811107C09C
:1037100081E09581911101C080E08170089581E080
:10372000FCCFA6E0B0E0E7E9FBE10C94CB2A86E011
:10373000E0E9F2E09E012F5F3F4FD90101900D9229
:103740008A95E1F7109292021092930210929402DD
:10375000109295028B819C81892B8901882391F09D
:1037600080918B0290918C020E94FC229C0180919E
:103770008E028823C9F14091180150E04217530787
:1037800008F43FC08D819E81892B882399F0809118
:10379000890290918A020E94FC229C0180918D02F4
:1037A000882309F467C04091140150E04217530781
:1037B00008F46EC0B80180E992E00E940A228111EB
:1037C00005C080E992E00E947E1B81110E94531B7C
:1037D00086E0F801A0E9B2E001900D928A95E1F748
:1037E0002696E5E00C94E72A409119019AE0499F5A
:1037F000A00111244217530728F68F5F80938E0291
:1038000002C08F3FD1F7FB80FF2059F00E94F919C9
:1038100091E01F140CF09FEF899F802D112480935D
:103820009202FC80FF2059F00E94F91991E01F14C8
:103830000CF09FEF899F802D11248093930280913B
:103840009202882309F49ECFF0909302FF2009F49E
:1038500099CF0E94EB19811101C081E080939202FF
:103860008F2D0E94EB19882319F0809393028ACF41
:1038700081E0FBCF409115019AE0499FA0011124FE
:103880004217530708F096CF8F5F80938D0202C0D6
:103890008F3FD1F7FD80FF2059F00E94411A91E03F
:1038A0001F140CF09FEF899F802D112480939402A8
:1038B000FE80FF2059F00E94411A91E01F140CF085
:1038C0009FEF899F802D112480939502809194020F
:1038D000882309F46FCFF0909502FF2009F46ACF96
:1038E0000E94EB19811101C081E0809394028F2D19
:1038F0000E94EB19882319F0809395025BCF81E039
:10390000FBCFFF920F931F93CF93DF93E82FF0E04D
:10391000EC51FE4FF490282F26952695269530E001
:10392000F901EC57FD4F94918770F901EC58FD4F68
:10393000049110E0082E02C0159507950A94E2F74D
:1039400001701127F901EC59FD4FC491D0E0082E08
:1039500002C0D595C7950A94E2F7C170DD27E92F1B
:10396000F0E002C0F595E7958A95E2F7E0FD10C01A
:1039700001151105C1F48F2D0E94CA04CD2B19F039
:103980008CE20E94CA04CDB7DEB7E5E00C94E72ACA
:1039900081EE0E9437040115110579F48F2D0E94E4
:1039A000CA0481EE07C086EE0E9437048F2D0E9464
:1039B000CA0486EE0E947F04E1CF86EE0E9437049F
:1039C0008F2D0E94CA0486EE0E947F04EACFEF92F8
:1039D000FF921F93CF93DF93EC01162F88818823EA
:1039E00009F456C0813009F050C089818130A1F4BA
:1039F0007E0122E0E20EF11C8A810E94CA04E701E6
:103A00002196812F882351F3EFE9FFE03197F1F7F9
:103A100000C000008150F6CF823041F47E0182E088
:103A2000E80EF11C8A810E943704E9CF833041F40B
:103A30007E01E2E0EE0EF11C8A810E947F04DFCF5E
:103A4000843011F02196DCCF2A81229680E090E02C
:103A50006AE0AE014F5F5F4F2053330B2A303105D0
:103A600048F0019768F2EFE9FFE03197F1F700C005
:103A70000000F7CF689FF001699FF00D1124C90184
:103A80008E0F9F1F2981EA01E4CF0E94811CB8CFCD
:103A9000DF91CF911F91FF90EF9008950F931F93A7
:103AA000CF93DF93C42FD22FFC0185818823C9F0E7
:103AB000409398020E94D32290939702809396029B
:103AC00080E28C0F883040F4C77081E001C0880F1D
:103AD000CA95EAF70E94D304DF91CF911F910F910D
:103AE00008951091980214133CC080919602909111
:103AF00097020E94FC22883C910598F5C0E2CD0F08
:103B00001D1741F180E2810F883040F4177081E089
:103B100001C0880F1A95EAF70E94DA04C83020F035
:103B2000802F0E94CA04D8CF91E08D2F877001C0EA
:103B3000990F8A95EAF7892F0E94D304802F0E945B
:103B4000CA04D77081E001C0880FDA95EAF70E94B5
:103B5000DA04C2CF802F0E94CA04C83008F0BCCF5C
:103B6000F0CF80E28C0F883008F0B6CFC77081E0CC
:103B700001C0880FCA95EAF7EACF0F93FC01CB0189
:103B8000E851FC47E730F10590F5EC54F44D0C9406
:103B9000B12A06E221EE41EE6AE17CE70E944E1D69
:103BA00080E00F91089507E225EE45EE6BE17CE79A
:103BB000F5CF06E221EE40EE68E17CE7EFCF07E2C9
:103BC00025EE44EE69E17CE7E9CF06E221EE42EE24
:103BD0006CE17CE7E3CF07E225EE46EE6DE17CE7A2
:103BE000DDCF08E221E045EE6EE17CE7D7CFFB01B7
:103BF000858181111092980281E0D3CFCF93DF931A
:103C00009C01FB0127378CE7380739F028373C4700
:103C1000F1F081E0DF91CF9108958581882391F0C3
:103C20000E94301E0E94AA070E94361ED82F0E94B2
:103C3000331EC82F0E94301E4D2F6C2F0E94E208A9
:103C400080E0E8CF0E94301E0E94B607EDCF85814C
:103C5000882319F00E94331EE5CF0E94331EF4CF53
:103C600080911C01089580911B01089580911A0193
:103C7000089585E290E00E941B2B843289F486E24D
:103C800090E00E941B2B893059F487E290E00E945B
:103C90001B2B91E0813109F090E0892F817008950C
:103CA00080E0FCCF882381F064E285E290E00E940E
:103CB000392B69E086E290E00E94392B61E187E2CE
:103CC00090E00E94392B08956FEF85E290E00E940A
:103CD000392B6FEF86E290E00E94392B6FEFEFCF28
:103CE0000895A4E0B0E0E7E7FEE10C94CE2A88E274
:103CF00090E00E941B2B282F30E040E050E0CA01EA
:103D0000B9012496E2E00C94EA2A0895CF93C62FD5
:103D10000E94851E6C2F88E290E00E94392BCF9183
:103D2000089580E00E94521E60E070E0CB010E9486
:103D3000861E0E948C170E94561881E00E94521E17
:103D400008950E94701E0E94711E0E94851E0E948E
:103D5000391E811102C00E94911E08950E942514EF
:103D600008959C01FB018581882351F0A9015757D3
:103D70004038510530F4822F0E94661880E0089583
:103D800081E008952FEFFC012083089580E00895DD
:103D9000CF93DF93EC018881833021F138F48130B7
:103DA00071F08230C1F0DF91CF9108958430D9F75E
:103DB0000E94B11489830E94B4148A83F4CF0E94B4
:103DC000B7142FEF829FC00111246BE470E00E94B2
:103DD000892A6983E8CF0E94471481110E947014D8
:103DE0008983E1CF0E942715FBCF1F93CF93DF93E9
:103DF000EC018881833069F140F4813071F08230C8
:103E0000E1F0DF91CF911F9108958430D1F70E94A6
:103E1000B714482F89816A810CC019812BE4129F45
:103E2000112D11240E94B414C82F0E94B114412FE7
:103E30006C2F90E00E94A914E4CF8981811103C006
:103E40000E943B14DECF0E942D1489810E946814C9
:103E5000D8CF89810E942115D4CFFC019C012E5F0F
:103E60003F4F9081983041F0993051F0973059F49C
:103E7000C9010E94F51E0895C9010E94C81E089537
:103E80000E94761208958FEF80830895FC012181AE
:103E9000233019F40E942D1F08950E94C21E089518
:103EA000AEE0B0E0E6E5FFE10C94CD2A8D839E8381
:103EB000162F8D819E810E94C61E811115C0AD8175
:103EC000BE81EC91E150E531F0F4F0E0E554F44DC1
:103ED0000C94B12AED81FE8111828CE08283612FE6
:103EE0008D819E810E94BE232E96E3E00C94E92AE8
:103EF000AD81BE8111968C91833059F148F48130A7
:103F000081F08230C9F08FEFAD81BE818C93E7CF15
:103F10008430C9F7ED81FE811282138214821582EA
:103F2000DECF0E94DF220E94B72AED81FE816283EC
:103F3000738384839583D3CF0E94711E0E94B72A16
:103F4000AD81BE8112966D937D938D939C93159751
:103F5000C6CFED81FE8182818111C1CF0E94C01048
:103F6000AD81BE8113968C93BACFED81FE818181A4
:103F7000823041F0853039F6ED81FE8182810E94E8
:103F8000AE1EADCFAD81BE8112968D919D910D90EB
:103F9000BC91A02DBC01CD010E94B72A0E94861EB3
:103FA0009ECFAD81BE8113964C91139712966C9162
:103FB000129711968C910E94E816982789279827C6
:103FC000ED81FE81958384838ACFAD81BE81149675
:103FD0002D913C91159732272327322713964C9128
:103FE000139712966C91129711968C910E9412174A
:103FF00076CF0E948C1773CF612F8D819E810E9496
:10400000461F6DCF0E940E18ED81FE81818367CF20
:104010000E941018982789279827AD81BE81129693
:104020009C938E9311975BCFED81FE81638170E04D
:1040300081819281AF014C5F5F4F98278927982734
:104040000E9413184CCFAD81BE8113966C911397CB
:1040500070E011968D919C911297AD014C5F5F4F6E
:104060009827892798270E94351839CF0E9456181B
:1040700036CF0E94E616C8CFAD81BE8113966C91F3
:10408000139770E011968D919C911297AD014C5F42
:104090005F4F9827892798270E94BA1720CFED8174
:1040A000FE81638170E081819281AF014C5F5F4F3F
:1040B0009827892798270E94D91711CF41E0AD8111
:1040C000BE8113968C91811101C040E0ED81FE818B
:1040D000628181810E943417982789279827AD81B2
:1040E000BE8115969C938E931497F9CEED81FE8137
:1040F0002481358132272327322741E083818111B2
:1041000001C040E0AD81BE8112966C91129711966C
:104110008C910E946617E3CE90939E0280939D023D
:104120000895E0919D02F0919E02309729F0019050
:10413000F081E02D0995089580E00895E0919D02B9
:10414000F0919E02309721F00280F381E02D0995D5
:104150000895DC01E0919D02F0919E02309739F0C4
:1041600086E08C930480F581E02DCD0109950895BA
:10417000DC01E0919D02F0919E02309739F082E0DF
:104180008C930680F781E02DCD0109950895A3E079
:10419000B0E0EDECF0E20C94CE2A9C0180919B0201
:1041A00090919C0282179307A1F030939C02209378
:1041B0009B02E0919D02F0919E02309751F083E0C6
:1041C00089833B832A830084F185E02DCE0101960B
:1041D00009952396E2E00C94EA2AA3E0B0E0E3EF2D
:1041E000F0E20C94CE2A9C018091990290919A025F
:1041F00082179307A1F030939A0220939902E091DD
:104200009D02F0919E02309751F084E089833B83B8
:104210002A830084F185E02DCE010196099523962D
:10422000E2E00C94EA2A20910A0130910B012E5F02
:104230003F4F809127018823A9F08091AB0287FF2F
:1042400011C020910801309109012E5F3F4F9DE17F
:1042500080E0F90140812F5F3F4F41118F5F915006
:10426000C0F7089595E0F4CF882321F190912701BC
:10427000992311F19091AB0297FF1EC0982F96954C
:1042800096959695803FB0F4E0910801F091090170
:10429000E90FF11D228130E0877041E050E0BA0162
:1042A00002C0660F771F8A95E2F72623372381E045
:1042B000232B91F480E0089520910A0130910B01A5
:1042C000F9013296285F3F4F9191981721F0E2173C
:1042D000F307D1F7EFCF81E008959C01FC013296FE
:1042E0008FEF90E04191461751F08F3F19F4411143
:1042F00001C0892F9F5F9630A9F78F3F09F4089579
:10430000280F311D87FD3A95F901628308959C01BC
:10431000FC013296285F3F4F8191861303C0DF0175
:1043200011971C92E217F307B9F70895FC01862F45
:10433000869586958695603F60F4E80FF11D67705D
:1043400021E030E001C0220F6A95EAF78281822BDA
:1043500082830895FC01862F869586958695603F19
:1043600080F4E80FF11D677081E090E09C0102C0CD
:10437000220F331F6A95E2F7B901609582816823A5
:1043800062830895682F80912701882359F08091D6
:10439000AB0287FF07C080910801909109010E943C
:1043A0009621089580910A0190910B010E946D2140
:1043B0000895682F80912701882359F08091AB02DE
:1043C00087FF07C080910801909109010E94AA21EE
:1043D000089580910A0190910B010E948721089510
:1043E00080912701882379F08091AB0287FF0BC071
:1043F000E0910801F091090132968EE1DF011D92F2
:104400008A95E9F70895E0910A01F0910B0132963F
:1044100086E0F4CFDC01FB0111969C91119781811C
:10442000981322C012968C911297882319F09281CA
:1044300089131AC013968C911397882319F09381CE
:10444000891312C015968C911597882319F09581C0
:1044500089130AC014969C91992321F081E024814C
:10446000291303C080E001C081E0817008950895A0
:104470000E94372208958F5F80939F020E94382206
:10448000089583E080939F020E94382208950E943D
:104490003B22089581E080939F020E943822089574
:1044A0000E944A220895089508950E945422089572
:1044B000089508950E94532208950E9458220E9450
:1044C00044110E94592280E00E94C010982F81E080
:1044D000911101C080E0089585B7806885BF85B7D8
:1044E000806885BF08951F921FB61F9211248F9375
:1044F0009F93AF93BF938091A002811113C08091CD
:10450000BE029091BF02A091C002B091C10241963B
:10451000A11DB11D8093BE029093BF02A093C00263
:10452000B093C102BF91AF919F918F911F901FBE19
:104530001F9018958091C602843031F10E9491033A
:104540001092A00288E190E020E40FB6F894A895BC
:10455000809360000FBE2093600083B7817F8460EA
:1045600083BF83B7816083BF7894889583B78E7F3C
:1045700083BF0FB6F894A8958091600088618093FE
:104580006000109260000FBE08950E9433070E94E1
:104590009B03089582E084BD93E095BD9AEF97BD9B
:1045A00080936E0008952FB7F8948091BE02909189
:1045B000BF02A091C002B091C1022FBF0895A4E034
:1045C000B0E0E5EEF2E20C94CE2A8FB7F894209199
:1045D000BE023091BF024091C0025091C1022983B6
:1045E0003A834B835C838FBF69817A818B819C8105
:1045F0002496E2E00C94EA2A9C014FB7F89480914B
:10460000BE029091BF02A091C002B091C1024FBF03
:10461000821B930B0895A4E0B0E0E1E1F3E20C9477
:10462000CC2A462F572FBC012FB7F8948091BE0299
:104630009091BF02A091C002B091C1022FBF8C0126
:104640009D01041B150B260B370BC901B8012496DD
:10465000E4E00C94E82A78941F921FB61F9211246C
:104660008F939F93AF93BF938091BE029091BF02AF
:10467000A091C002B091C1020196A11DB11D80930D
:10468000BE029093BF02A093C002B093C102BF913B
:10469000AF919F918F911F901FBE1F90189587E734
:1046A00097E7909301088093000888E19AE00FB69D
:1046B000F894A895809360000FBE90936000FFCFA0
:1046C00088E19AE00FB6F894A895809360000FBE39
:1046D00090936000FFCF8091A9020895282FCB010D
:1046E000BA013091C6023430E1F42F702093E90012
:1046F0002FEF3091E80035FD07C035ED3A95F1F721
:10470000000021502111F5CF2091E80025FF09C0BC
:1047100040E050E00E94B8258091E8008E778093B9
:10472000E8000895BC0143E050E084E00E946E235D
:104730000895BC0146E050E084E00E946E23089595
:10474000BC0140E250E084E00E946E230895CF93C4
:10475000DF93D82FC92F48E050E0682F792F81E0F0
:104760000E946E2388E0ED2FFC2FA1EAB2E00190B9
:104770000D928A95E1F7DF91CF910895792F6032FC
:1047800031F440E250E0682F82E00E946E230895E9
:104790008091C502811109C00E948F270E94EC27D9
:1047A0008091E20084608093E20008951092C50237
:1047B00008950E944A2208956091C20281E0611129
:1047C00001C080E00E94412208959091C60281E0DC
:1047D000943009F080E06091C2020E94472208955F
:1047E00042E061EC81E00E940B2742E261EC84E050
:1047F0000E940B2742E261EC82E00E940B2742E21A
:1048000060EC83E00E940B279091C60281E0943017
:1048100009F080E06091C2020E943B2208958091DD
:10482000C802893089F148F4823009F4A1C083308C
:1048300009F45BC0813041F008958A3009F488C0E2
:104840008B3009F46DC008958091C702813A09F058
:104850004BC08091E800877F8093E8008091CB0275
:104860009091CC02892B61F060E080E090E070E0F4
:104870000E9456268091E8008B778093E800089587
:1048800068E081EA92E0F3CF8091C702813261F55E
:104890008091CB029091CC028D7F892B29F580915C
:1048A000E800877F8093E8008091E80082FF18C0CD
:1048B0009091F3008091F200029731F48091F10021
:1048C000813011F0863021F48091F1008093A902AB
:1048D0008091E8008B778093E8000E943F2704C016
:1048E0008091C6028111E0CF08958091C702813A7C
:1048F000D9F78091CB029091CC02892BA9F78091B6
:10490000E800877F8093E8008091E80080FFFCCF7B
:10491000809127018093F1008091E8008E77DBCFB2
:104920008091C702813201F78091CB029091CC0235
:10493000892BD1F68091E800877F8093E8000E9460
:104940003F278091C902809327010E943307089571
:104950008091C702813241F68091E800877F809381
:10496000E8000E943F278091CA028093AA0208951E
:104970008091C702813A09F0B7CF8091E800877F24
:104980008093E8008091E80080FFFCCF8091AA022C
:10499000C1CF84B7877F84BF0FB6F894A895809164
:1049A0006000886180936000109260000FBE80E814
:1049B00090E00FB6F89480936100909361000FBE71
:1049C0000E94502208950E948F270E94EC27E2EE59
:1049D000F0E080818460808378940E946F2A08953B
:1049E0008DE191E00E948C2008958091C60285306F
:1049F00031F48091C602853019F00E94C5220895D5
:104A00000E949A228091C402882399F30E945D2219
:104A1000882379F30E94A2250E943307EACFA0E2FF
:104A2000B0E0E5E1F5E20C94CE2A8091C602843034
:104A300081F483E08093E9008091E80082FF09C05F
:104A40008091E80085FD09C08091E8008B77809314
:104A5000E800A096E2E00C94EA2A40E050E060E230
:104A600070E0CE0101960E9407268091E8008B77C6
:104A70008093E80060E2CE0101960E94501FE9CFCA
:104A80009A014091CD025091CE020E94482508958E
:104A9000AC01CB01D901252F33272330310521F17A
:104AA00068F42130310509F443C02230310509F49E
:104AB00044C080E090E020E030E024C021323105A5
:104AC00051F122323105A9F78330910590F7FC01AD
:104AD000EE0FFF1FE954FE4F208131818C549E4F11
:104AE000FC01808190E00EC0CA019927413069F035
:104AF0008230910569F0EEECF2E0892BD1F68491D9
:104B000090E09F012D933C930895E4EAF2E0F7CF03
:104B1000E4E9F2E0F4CF8330910558F6FC01EE0FA2
:104B2000FF1FE354FE4F2081318189E090E0EACFFE
:104B300082E190E02DE233E0E5CF8BE590E022EDDD
:104B400032E0E0CF80E189BD82E189BD09B400FE99
:104B5000FDCF8091D8008F7D8093D8008091E000B8
:104B600082608093E0008091E00081FDFCCF089599
:104B7000AF92BF92CF92DF92FF920F931F93CF938A
:104B8000DF936C01EB018A010E945E27F82E8111F0
:104B900023C00115110539F0F80180819181C81BEE
:104BA000D90BC80ED91EA12CB12C2097A9F0809149
:104BB000E80085FD22C08091E8008E778093E800B0
:104BC00001151105A1F0F801808191818A0D9B1DCD
:104BD0009183808385E0F82E8F2DDF91CF911F91F7
:104BE0000F91FF90DF90CF90BF90AF9008950E94FB
:104BF0005E278823E1F2F82EEFCFF60181916F0155
:104C00008093F1002197FFEFAF1ABF0ACECFAF928A
:104C1000BF92CF92DF92FF920F931F93CF93DF93B8
:104C20006C01EB018A010E945E27F82E811123C0DE
:104C30000115110539F0F80180819181C81BD90B4C
:104C4000C80ED91EA12CB12C2097A9F08091E800A4
:104C500085FD22C08091E8008B778093E8000115E4
:104C60001105A1F0F801808191818A0D9B1D91832E
:104C7000808385E0F82E8F2DDF91CF911F910F91CA
:104C8000FF90DF90CF90BF90AF9008950E945E2775
:104C90008823E1F2F82EEFCF8091F100F6018193A5
:104CA0006F012197FFEFAF1ABF0ACECFFC019B0126
:104CB0008091CD029091CE028617970718F0672B4E
:104CC00061F0C90140E0009771F441110CC080917E
:104CD000E80082FF35C080E008958091E8008E777B
:104CE0008093E800EECF2091C6022223A9F125305F
:104CF000A9F12091E80023FD2DC02091E80022FDBC
:104D0000E6CF2091E80020FFDECF3091F300209124
:104D1000F200009719F02830310558F041E02830B2
:104D2000310509F040E02091E8002E772093E8005B
:104D3000CACF41914093F10001972F5F3F4FE9CFD8
:104D40008091C602882341F0853041F08091E800CF
:104D500083FFBDCF81E0089582E0089583E0089548
:104D6000FC019B018091CD029091CE02861797079E
:104D700018F0672B61F0C90140E0009771F4411110
:104D80000CC08091E80082FF36C080E008958091D9
:104D9000E8008E778093E800EECF2091C6022223B0
:104DA000B1F12530B1F12091E80023FD2EC0209112
:104DB000E80022FDE6CF2091E80020FFDECF309111
:104DC000F3002091F200009719F02830310558F0D7
:104DD00041E02830310509F040E02091E8002E77CD
:104DE0002093E800CACF44914093F1003196019797
:104DF0002F5F3F4FE8CF8091C602882341F0853076
:104E000041F08091E80083FFBCCF81E0089582E00B
:104E1000089583E00895982F973028F08F7080933D
:104E2000E90081E008959093E900242F762F50E067
:104E3000981731F07091EC002091ED005091F00046
:104E400021FD02C09F5FE8CF3091EB003E7F3093A1
:104E5000EB003091ED003D7F3093ED003091EB00A1
:104E600031603093EB007093EC002093ED00509391
:104E7000F0002091EE0027FDE5CF80E008958091BD
:104E8000C70287FF13C08091E80082FF06C08091AF
:104E9000E8008B778093E80004C08091C6028111FE
:104EA000F2CF08958091C6028823D9F38091E8005B
:104EB00080FFF8CF8091E8008E77ECCF2091E4005E
:104EC0003091E50095E6A9018091EC00817088237E
:104ED00031F08091E80080FF06C080E008952091C5
:104EE000E80022FD1BC08091C602882391F0853026
:104EF00091F08091EB0085FD10C02091E40030918D
:104F0000E5004217530701F391509111DCCF84E083
:104F1000089582E0089583E0089581E008950E9455
:104F2000FE270E940628E0EEF0E080818160808309
:104F3000E8EDF0E080818F77808319BCA7EDB0E0C9
:104F40008C918E7F8C9380818F7E80831092C5029E
:104F500008950F931F93CF93DF930E94FE270E9423
:104F60000628C8EDD0E088818F77888388818068A3
:104F7000888388818F7D888319BC1092C602109225
:104F8000C2021092C4021092C30200EE10E0F801B7
:104F900080818B7F808388818160888342E060E0AC
:104FA00080E00E940B27E1EEF0E080818E7F80831D
:104FB000E2EEF0E080818160808380818860808380
:104FC000F80180818E7F8083888180618883DF9172
:104FD000CF911F910F910895E8EDF0E080818F7ED1
:104FE0008083E7EDF0E080818160808384E082BF90
:104FF00081E08093C5020E94A9270895E8EDF0E0C2
:1050000080818E7F80831092E20008951092DA00F2
:105010001092E10008951F920F920FB60F92112483
:105020002F933F934F935F936F937F938F939F93B0
:10503000AF93BF93EF93FF938091E10082FF0BC08A
:105040008091E20082FF07C08091E1008B7F809316
:10505000E1000E946E2A8091DA0080FF19C08091E1
:10506000D80080FF15C08091DA008E7F8093DA002F
:105070008091D90080FF94C080E189BD82E189BD23
:1050800009B400FEFDCF81E08093C6020E94C823D0
:105090008091E10080FF19C08091E20080FF15C07F
:1050A0008091E2008E7F8093E2008091E200806137
:1050B0008093E2008091D80080628093D80019BC70
:1050C00085E08093C6020E94DC238091E10084FF8A
:1050D00029C08091E20084FF25C080E189BD82E182
:1050E00089BD09B400FEFDCF8091D8008F7D8093EB
:1050F000D8008091E1008F7E8093E1008091E200F2
:105100008F7E8093E2008091E20081608093E200D4
:105110008091C202882309F449C084E08093C602CA
:105120000E94E5238091E10083FF29C08091E20085
:1051300083FF25C08091E100877F8093E10082E0BA
:105140008093C6021092C2028091E1008E7F80930C
:10515000E1008091E2008E7F8093E2008091E20086
:1051600080618093E20042E060E080E00E940B27D3
:105170008091F00088608093F0000E94D923FF9115
:10518000EF91BF91AF919F918F917F916F915F91BF
:105190004F913F912F910F900FBE0F901F90189538
:1051A00019BC1092C6020E94D62372CF8091E300F0
:1051B00087FF02C083E0B2CF81E0B0CF1F920F9291
:1051C0000FB60F921124FF920F931F932F933F93CB
:1051D0004F935F936F937F938F939F93AF93BF93FF
:1051E000CF93DF93EF93FF9309EE10E0F8018081F6
:1051F000C091EC00C795CC27C7958F70FC2EF82A7C
:105200001082C0EFD0E08881877F888378940E94E5
:105210002729F8011082888188608883CF2DCF707C
:10522000C083FF91EF91DF91CF91BF91AF919F919B
:105230008F917F916F915F914F913F912F911F912E
:105240000F91FF900F900FBE0F901F901895AAE23C
:10525000B0E0EDE2F9E20C94CD2A87EC92E0FC019B
:1052600001962091F100208322E08F3C9207B9F74C
:105270000E940F248091E80083FF38C08091C7020C
:105280009091C8029A3090F5E92FF0E0E053F44D88
:105290000C94B12A803889F0823841F58091CB0294
:1052A0008F70873018F58093E9008091EB0085FBC3
:1052B000882780F91092E90006C08091C30290917E
:1052C000C402911182609091E800977F9093E8006A
:1052D0008093F1001092F1008091E8008E7723C056
:1052E000811116C08091C902813011F18091E800CE
:1052F00083FF0AC08091E800877F8093E800809157
:10530000EB0080628093EB00AA96E3E00C94E92A1C
:10531000823061F78091C902882389F01092E900F8
:105320008091E800877F8093E8000E943F27DECFCE
:1053300081E0933009F080E08093C402EFCF809148
:10534000CB028F702FEF280F263080F68093E90074
:105350002091EB0020FFE2CF933031F48091EB00FD
:1053600080628093EB00DACF9091EB009061909394
:10537000EB0021E030E0A90102C0440F551F8A95DF
:10538000E2F74093EA001092EA008091EB00886017
:10539000E8CF8111ABCF1091C9021F778091E30054
:1053A0008078812B8093E3008091E800877F809351
:1053B000E8000E943F278091E80080FFFCCF8091A9
:1053C000E30080688093E30083E0111101C082E074
:1053D0008093C6028BCF8058823008F087CF8091AF
:1053E000C9029091CA028C3D53E0950799F583E07C
:1053F0008A838AE289834FB7F894DE01139620E00E
:105400003EE051E2E32FF0E050935700849120FFFB
:1054100003C082958F703F5F8F708A30C8F0895CBF
:1054200090E08D939D932F5F243161F74FBF809162
:10543000E800877F8093E8006AE270E0CE01019681
:105440000E9456268091E8008B778093E8004ECF2B
:10545000805DE6CF6091CB027091CC02AE014F5FD0
:105460005F4F0E944025BC01892B09F43FCF8091FA
:10547000E800877F8093E80089819A810E94B026A6
:10548000E1CF803809F032CF8091E800877F8093A8
:10549000E8008091C2028093F1001ECF811126CFD7
:1054A0009091C902923008F021CF8091E800877F67
:1054B0008093E8009093C2020E943F278091C2022D
:1054C000882331F084E08093C6020E94F0230ECF3F
:1054D0008091E30087FDF6CF81E0F5CF0895CF936B
:1054E0008091C602882399F08091E900C091EC0078
:1054F000C795CC27C7958F70C82B1092E900809173
:10550000E80083FD0E942729CF70C093E900CF9166
:105510000895AA1BBB1B51E107C0AA1FBB1FA617FA
:10552000B70710F0A61BB70B881F991F5A95A9F74C
:1055300080959095BC01CD01089597FB072E16F438
:10554000009407D077FD09D00E94892A07FC05D076
:105550003EF4909581959F4F0895709561957F4F8A
:105560000895EE0FFF1F0590F491E02D099469272F
:105570009627692778278727782708952F923F92C3
:105580004F925F926F927F928F929F92AF92BF9253
:10559000CF92DF92EF92FF920F931F93CF93DF93FF
:1055A000CDB7DEB7CA1BDB0B0FB6F894DEBF0FBE5C
:1055B000CDBF09942A88398848885F846E847D84A9
:1055C0008C849B84AA84B984C884DF80EE80FD80AB
:1055D0000C811B81AA81B981CE0FD11D0FB6F89421
:1055E000DEBF0FBECDBFED010895FB01DC0104C09D
:1055F0008D910190801921F441505040C8F7881BCB
:10560000990B0895FB01DC0102C001900D924150FD
:105610005040D8F70895DC01CB01FC01F999FECF89
:1056200006C0F2BDE1BDF89A319600B40D9241502A
:105630005040B8F70895F999FECF92BD81BDF89A10
:10564000992780B50895A8E1B0E042E050E00C94BD
:105650000D2BDC01A40FB51F4150504048F0CB0189
:10566000840F951F2E910E943A2B41505040D0F745
:105670000895262FF999FECF92BD81BDF89A019722
:1056800000B4021639F01FBA20BD0FB6F894FA9A8A
:10569000F99A0FBE08950396272F0E943A2B0E9475
:1056A000392B252F0E943A2B242F0C943A2B01964C
:1056B000272F0E943A2B0C94392BF894FFCF1F050B
:1056C0001F0566056605D005ED054E054E05F2057C
:1056D0005F06700670069E15A515AC15B115B615BA
:1056E000BB15C015C515CA15CF15D415D915A015EC
:1056F000A015A015A015A015A015A015A015A01502
:105700006719DB196F1939193D197319411977197F
:1057100083194D19D4195119871955198B19B319B2
:1057200059198F19BA195F1995199D1945197B19BE
:1057300049197F1963199919A919C319D21933196C
:105740006B19E219A11AA41AAA1ABF1ABF1ABF1A12
:10575000BF1ABF1ABF1ABF1ABF1AAD1AB21AB61AA9
:10576000BC1ACD1AD31AD71AD91DDF1DC91DD31DD6
:10577000E51DEB1DF11D6A1F781FB51FD11FE51F29
:10578000F91FFC1FFC1FFC1F831F831F0220082022
:1057900014202320362039203C204F205E20762004
:1057A0004A297029762970297629C929EB29762971
:0457B000412A4E2A12
:1057B4000000000000000004400260020300FF003B
:1057C400FFFF280850011E0A14010302016B23A7DE
:1057D40023A023992392230100FF4BE200E900EA6E
:1057E40000B500B600B700CD008301CC008A019259
:1057F4000194012102230224022502260227022AFF
:1058040002B300B4006F0070009F01CB019F02A09F
:1058140002E200E900EA00B500B600B700CD00835B
:1058240001CC008A01920194012102230224022561
:1058340002260227022A02B300B4006F0070009F00
:1058440001CB019F02A00297C634356648154B155B
:105854006C15741500FF0100010000FFFF0000013A
:105864000001FF004422B617043F036103E402FD74
:04587400021D03000E
:00000001FF
